:400000000008002011000000690C0000690C000010B500F095FF00F02FFEC04670B572B6EE220024264B12021A60264B264A1C60972326491360264A264D1160264A1820BC
:400040001360FF22254B1A609022254B12011A60F322244B1A600123234A1360234A13600722234B1A60234BB032FF321A6011232B6000F073FE204B204A1C60204B21491F
:400080001A60FE2212020A601F4919601F490A601F4A1A601F4A14601F4A1A6004221F4B1A601F4B3E321A601E4B023A1A601E4B01321A601D4B02321A602C6070BDC0466A
:4000C000000102400003024000000440000C1B00080004403000104018000440000104400801044018010440000204401802044000030440080304400803014042FF0080AF
:40010000000001400003014040FF00800403014041FF00800C03014043FF0080280003400C01014008010140040101400001014010B5064C2378002B07D1054B002B02D0D4
:40014000044800E000BF0123237010BD1802002000000000B02B0000084B10B5002B03D00749084800E000BF07480368002B00D110BD064B002BFBD09847F9E7000000001D
:400180001C020020B02B0000680000200000000010B5022001F046FF0122264B26491A705A688A4201D801325A601A7A012A3CD0DA6822498A4214D9197C0022012916D0A8
:4001C000197E5A610022012918D05A831A7F012A1BD000225A779A7F012A1ED000221A8410BD197C0132DA6000220129E8D15A69197E01325A6100220129E6D15A8B0132D1
:4002000092B25A831A7F012AE3D15A7F7C2AE2D801325A779A7F012AE0D197211A8C89008A42DDD801321A84DAE70022DA601A72C2E7C04634020020D9070000B90400006F
:4002400010B500F0A9FE01F0BDFC00F08DFE044B1B889A00D318DB00181800F079FE10BD36030020F8B55F4656464D464446464BF0B49946454B464F464E00259A469B4630
:400280000DE0E0000A2102F0DFFA404522D801239C46013502370436E1440B2D4BD034683B886000001980000A21984602F0CCFA8045E6D9280001F0CBF85B465B5D984229
:4002C0003FD034683B88E0000A21984602F0BCFA4045DCD9280001F0BBF853465C5D8046E00000190301181A642102F037FB8045CDD12100280001F0B3F84B462800197877
:4003000001F098FA4B461C78280001F08BFA013C211A89B2280001F095FA280001F0D8F8052000F0CBFD01239C46013502370436E1440B2DB3D13CBC90469946A246AB4640
:40034000F8BDC30018180301181A642102F006FB0100280001F084F84B461B7864219800C0180301C01802F0F9FA81B2280001F061FA4B461B7864219800C0180301C0181B
:4003800002F0ECFA84B2BFE71003002020030020A00200206C00002010B50400084B1880084B198001F000FC074800F0D1FD200000F0E2FD00F0BEFD00F0F6FD10BDC046DB
:4003C0003403002036030020FFFF000010B514210520FFF7E1FFFEE7F0B55F4656464D464446F0B483B062B60024002001F066FE002001F055FE002001F044FE002001F022
:40040000A7FD002001F0B2FDFF2001F011FEDB4801F01CFE01F0B6FDD94B082118009B4601F03EFD0721D74801F058FD01F01EFC14210120FFF7B0FF01F0CAFBD24806226A
:400440002C30D24901F0C6FBD14ED24D200000F0FFFF3055200001F0DDF9285501340B2CF4D1142000F02AFD142000F027FD00F0C3FD20230193C84B9A46C84B9946C84BDB
:40048000984600250026300000F02CFF00F088FE0028FBD153460400585BC24B5F19398801F0CEFAC04B388058534B469C55434601365C5302350B2EE5D1019B013BDBB225
:4004C0000193002BDDD1B94D2323EC5C002C4DD12B78012B00D129E3AB7F012B00D116E2B34BEA689A4200D9E5E1B24A1378002B00D017E201F0A6FCC30600D5FDE101F0A0
:40050000A1FC01230342DFD004242B72A94B1C7001F004FD01F09CFC2522AB5C022B00D159E3042B00D17AE32223EB5C002B00D000E35A46A04FEB3313703B7853707A785F
:40054000144201D003210A40594658468A7000215C465F3BD318C170B420E37123232071B2386071A171EC5C002CB1D000F014FD2323EB5C002BAFD0904B904A1C881B7851
:400580008F48138064238F4A0126138001F0F2FA00F0EAFC8B4B1B889A00D318DB00181800F0D6FCE0B200F0E7FC00F0C3FC00F0FBFC00F05DFF00F0A5FC00F079FF2623B0
:4005C0000022EA54804B7C4F99460A2000F08AFE00F0E6FD0028FBD10A3000F0DDFF0A2001F03EF94B4600241870200000F07AFE00F0D6FD0028FBD1200000F0CDFF2000ED
:40060000013401F02DF90A2CEFD179783A788B083340164201D00133DBB2900701D50133DBB2012B00D838E12223EE54002A00D03DE1002900D03AE100222223EA544B46B1
:400640001B78002B52D05D4B5C4A1C881B78138001F0AAFA5D4800F07BFCE0B200F08CFC00F068FC00F0A0FC01F000FB002323220020AB54EB60AE7701F05CFCFF2001F0BB
:40068000D7FC3E4801F0E2FC01F07CFC9620800000F014FC0A21002001F0DCF80A21012001F0D8F81421022001F0D4F81421032001F0D0F80521042001F0CCF805210520E7
:4006C00001F0C8F80521062001F0C4F80521072001F0C0F80A21082001F0BCF80A21092001F0B8F80A210A2001F0B4F82622AB5C0133DBB2AB54022B00D866E753461B88DE
:40070000334A9B3BFF3B9BB2934200D9F6E100232B7653465B889B3BFF3B9BB2934200D9ECE153469A882B4BCD3A92B29A4200D9E4E15246D288CD3A92B29A4200D9DDE19C
:4007400052461289CD3A92B29A4200D9D6E152465289CD3A92B29A4200D9CFE152469289CD3A92B29A4200D9C8E15246D289CD3A92B29A4200D9C1E12EE0C04691010000D5
:400780002C030020040300206C000020C03F0000200300201003002074020020B8020020C402002058030020A002002034020020AF0400001C030020E80200203403002086
:4007C00041020000360300201B030020FFFF0000CA1C0000640E00005246128ACD3A92B29A4200D98AE153465B8ABE4ACD3B9BB2934200D982E153469B8ABB4A9B3BFF3B6B
:400800009BB2934200D979E100232B854246B74B11881A88914200D97DE1424651885A88914200D977E1424691889A88914200D971E14246D188DA88914200D96BE14246F6
:4008400011891A89914200D965E1424651895A89914200D95FE1424691899A89914200D959E14246D189DA89914200D953E14246118A1A8A914200D94DE14246518A5A8A60
:40088000914200D947E142469B8A928A9A4200D941E10023EB622B7416E6002A02D1002900D1C9E62223EB5C002B00D1C7E600234A4613701AE7012223230024EA54013BA0
:4008C000EC54AC7701F0EAF9012001F033FB0A20062100F0BFFF24230020EC542434032100F0B8FF285D0130C0B228550928F6D901F0A8FAC30600D401E601F009FB0728D8
:4009000000D131E101F010FB01F0B6FAF7E596232A8C9B009A4200D8E2E50023AB7700F0FDFDDDE5013B137000F0EAFC00F038FC0028FBD1FFF796FC00F0B6FE01F000F823
:4009400042466A4B11881A88914200D981E1424651885A88914200D97BE1424691889A88914200D975E14246D188DA88914200D96FE1424611891A89914200D969E142465F
:4009800051895A89914200D963E1424691899A89914200D95DE14246D189DA89914200D957E14246118A1A8A914200D951E14246518A5A8A914200D94BE142469B8A928A25
:4009C00093429B415B422B746A69494B9A4200D99FE053461B88444A9B3BFF3B9BB2934200D9BEE000232B7653465B889B3BFF3B9BB2934200D9B4E053469A88394BCD3AD7
:400A000092B29A4200D9ACE05246D288CD3A92B29A4200D9A5E052461289CD3A92B29A4200D99EE052465289CD3A92B29A4200D997E052469289CD3A92B29A4200D990E0FC
:400A40005246D289CD3A92B29A4200D989E05246128ACD3A92B29A4200D982E053465B8A204ACD3B9BB2934200D97AE053469B8A1D4A9B3BFF3B9BB2934272D81C4B6A8B42
:400A80009A4246D804241B4F79780C4023005A1E93413A78DBB2D00701D50133DBB2900701D50133DBB2012B00D8A4E022230120E854213B002A09D1002900D0A6E00020FA
:400AC0002223E8540C4B1A70597000236A7F4F2A3ED8002C00D19FE0002B00D09CE001332B7707E5640E0000CA1C0000440100206F300000E80200200C03002001232C2274
:400B00002B762B8DFF3201339BB22B85934200D87CE6FFF75BFC01222A742C22EB6AFF320133EB62934200D8CEE4F2E700F034FA2C701DE5EB235A4659461370464A474F9E
:400B400013784B70797852780C4200D1FCE4F9E4772A5DD9002C5BD1012001F0EBF92C77C8E401232B7689E73D4B5A7919785B78C9183B4B9B78C918394BDB78C918384B9A
:400B80001B79CB183649D3188979DBB2994200D0B8E62523EA54012A00D0B3E60024023BEA54013BEC54AC7701F078F8012001F0C1F90A20062100F04DFE24230020EC54C4
:400BC0002434032100F046FE285D0130C0B228550928F6D996E65946E9330B70CB3B4B700923CB70F6330B714B71BC3B8B7137338A70CB7168E4002A02D1002900D15EE74A
:400C00002223EB5C002B00D060E75BE701235DE7002001F08FF96DE400232B776AE45A46E73313700F4AB73BD05C5B4659463432587053785C468B7091785A46D170EE22BB
:400C4000C3184B3BCB1822716271A271E371FFF73BFC0123B7E6C0460C030020E8020020040300206C00002010B501F063FF03680C2B00D0FEE7FEE7F8B5104E002E18D00E
:400C800000200F4DA9682C686A68002905D00023E758043380C29942FAD1E9680023002903D0D05004339942FBD1013E1035002EE8D101F045FFFFF78FFBFEE7010000004E
:400CC000742C00000121104A70B513680F4C8B4313600F48002200230E4D04E00133A1500432192B08D00100032BF7D851590133A1500432192BF6D1FFF790F90123024A4D
:400D000011680B43136070BD0000104000000020690C0000000000008021034A090613680B4313607047C04630000340024A13685B005B08136070473000034010B5040013
:400D400001F0D4F9032304490A689A43234013430B6001F0CFF910BD28000340F8B50400182806D0102302009A43202A01D001BEF8BD072601F0BAF91B4D1C4A2B6807003D
:400D8000B3432B601A4B1B48E3181B78DBB21360194A1368B3431360184B0168E3181A787F23994313400B430360322001F094F9182C03D8380001F09DF9D9E723002A6817
:400DC0001C3B9B08B243334013432B60322001F083F9183C2B68A4083440B3431C432C60380001F087F9C3E7080F03400C0F0340CDF1FF0F180F0340100F0340B4F1FF0FB3
:400E000010B5040001F072F9A3000C24044923400A68A24313430B6001F06CF910BDC04628000340082800D901BE034B8000C318186819607047C04640000020F8B5040026
:400E40000E00032900D901BE082C00D901BE032701F04CF93D00094B25409C46A408A40064442168ED000B0031000635AF40A940BB431943216001F03DF9F8BD00E400E064
:400E80001F2318401E3B8340014A13607047C04600E100E01F2318401E3B8340014A13607047C04680E100E01F2318401E3B8340014A13607047C04680E200E0F8B5802509
:400EC00007002D02A84214D904000B4E706801F003F90A4B9C466444AC42F7D8084BFB18DB0BDB036744FF1AB068784301F0F4F8F8BD014EF8E7C046A40000200080FFFF5E
:400F0000FF7FFFFF10B501F0F1F8074B074A1B889BB213600423064A11680B43136030BF01F0E8F810BDC04652F1FF0F0400034010ED00E00022014B1A60704738000340BD
:400F4000014A024B1A6070476588EDAC38000340044A00041368000C1B0C1B04184310607047C04640000340024B18680004000C7047C04640000340F02110B5044C020434
:400F8000044B206809030A4003401A43226010BD40000340FFFFF0FF0123024A11680B4313607047440003400123024A11680B43136070474C00034010B500F095FD00F096
:400FC000BDFD0021002000F0C5FD0021002000F097FDFF2000F0A4FD402000F077FD044A0449136807200B431360FFF749FF10BD0400084000100880F8B55F4656464D469D
:401000004446F0B44C4B1B78002B24D000F06CFD00F094FD0021002000F09CFD0021002000F06EFD454CFF2000F07AFD402000F04DFD2368424A072013432360FFF720FF1C
:4010400080222368D203134323603CBC90469946A246AB46F8BD3B4B0B22002118009B4601F09DFD0F203849384B0A68384C1A702378324D03401A002378364C834313439F
:401080000B60354A354B08381A60354B00262B602268344B1340C022D20213432360FFF7F9FE31490720FFF7BDFE03210720FFF7C5FE2B6821002B602C4B99462C4B9846C3
:4010C0002C4B9A4620E001F011F807224346A2401B68013693431F4343461F6001F00AF8012211004B46A9401B688B4349460B600B2E1DD053460C33F35C9B0053449A6AA2
:4011000099699B6B9046994653460F279D5D5B46AA00D2B29740985D0B686C00BB4306272C19E4B20B60A7400128CCD10027CAE7014B1A706AE7C0467002002004000840AE
:40114000001008804003002000FF08403803002062F1FF0F000002400002000108000840C008A001FFFFF0FF4D1A00000000044008000440B42B000070B501210724074DEA
:401180000130C0B20B2807D022000E0002409640C308EB5C1E42F3D070BDC046B80000200120024B5B7818407047C04670020020434BF0B54546984648234E468146574613
:4011C0009A46C14452464B469B5C3E4C9B00E0B4E31807005E6800F087FC00F0AFFC3023E419E05C0021013880B200F0B3FC3C23E05C0021013880B200F082FCFF2000F000
:401200008FFC402000F062FC0720FFF743FE40232D4D07202A6813432B60FFF731FE0720FFF738FE29482A4B026813405246A15C0B431A00274BDB191B7F1B0413430360B0
:401240002C68254B07201C40244B1C43FFF718FE4B461B7B99464346DF5D00F047FF82460F204B46B900C9B288409B0043449A699B6A9446126898468243042088401968FA
:401280007B00FB180727DBB29F40B9430B0041460B60634602431A60504600F02BFF00F025FF07002C60002000F016FF0C4B38001E6000F01FFF1CBC90469946A246F0BDEC
:4012C000B42B0000B8000020040008400800084000FF80FF70020020FF1FDFFF200020000C000840002210B5044BC1B25A70273299545A325A70FFF75BFF10BD700200203D
:40130000F8B50023FF2207240120104E104D73702733F254F35CDBB20133DBB20B2B07D02100070019408F40DA08AA5C1742F3D02722B354B35C0A2B07D8012371780B4366
:401340007370B05CC0B2FFF733FFF8BD70020020B8000020F0B54746264B27491A684300CB1880B49A800F22244F3E5C3B181C7B234BB1001B5CC9B28A409C46A4003B19DF
:401380009869750003687519934303606346EDB2012B2BD00623AB40984600F0A7FE0722AA403C19A16A0B689343424613430B6000F0A0FE0122B240A16B07200B6893436B
:4013C0000B60FFF767FD0F4A0F4B116807200B40A02109020B4313600C4A0D4B11680B401360FFF74DFD04BC9046F0BD00239846D3E7C0460C00084070020020B42B00000F
:401400004003002004000840FF1FDFFF0800084000FF80FF02000720CB08014006388840D35C1840431E98417047C046072310B5CC081940063B8B400419DBB2002A03D1A2
:4014400022789A43227010BD227813432370FAE7024B18184823C05C7047C046B8000020024B18184823C1547047C046B80000200C4B10B51B68002B02DA01220A4B1A705F
:401480000720FFF707FD074A084B11680B40136013685B005B08136000F026FB00F04EFB10BDC046040008409C020020FFEFF7FF10B5FF2000F00AFBFF2000F031FB034B17
:4014C0001B78002B01D0FFF777FD10BD9C02002070B50400FFF706FFFFF762FE0028FBD1094B62001D5D094BD15A094B1C1920769C18A0840748D152445D3C205B191C5401
:40150000054BD15270BDC046FC2B000074020020A00200203801002058030020F8B55F4656464D464446174BF0B49B46164B00259A46164B00249946154B3C279846154EF2
:401540002000FFF7CFFEFFF72BFE0028FBD131001831605431005B462431685248461A5D5346B118825C5B5BCA55424601347353535302350B2CE3D13CBC90469946A2466C
:40158000AB46F8BDFC2B0000740200203801002058030020A0020020F0B54D465F46444656463B4BF0B41B5C3A4D99465B009B46EB189B8941009C46374B5B5A9846222348
:4015C000EA5C4346002A08D04246344C635AD2185B009B189B089BB26352314A575A9F4223D80024A04646462E4C26540126B046DC1BA4B2A44537D31518A9462D7E3E02C2
:401600003543ED1B5B191D0A55524D462B760025244B1D54A44533D30025521895843CBC90469946A246AB46F0BD5E46AE19FC1AB68CA4B2A64220D23C261A4C2F18235C64
:40164000BF5D9F4221D843465352002317189C463B764B464F46ED5C4346D719BD550F4D6B5263462354D7E75D44AD8CA54207D946462500002ED0D1BEE70026B046B9E7EE
:401680004346002BC8D02500C7E701332354C3E7FC2B0000380100207402002058030020A00200204C030020F0B54D4644465F465646F0B4504B85B09946504B504E002540
:4016C0000024504F984604E00134023501360B2C57D021003800FFF79DFE0028F4D04A4B1B5D9A465B000193019A4B46944663449B894A460393454B5B5B9C462223D25C20
:401700006346002A09D06046414AAA181388C0185B001B189B089BB213804246505B98423FD8002232701A1A92B20292012292460299039A8A4208D2019A4A44918C029AD7
:40174000914225D95246002A25D1182242449446A25C010211434246081A1B18190A51536246A3540023029A3370039B93420FD34346002224330134EA52013602350B2CDF
:40178000A7D105B03CBC90469946A246AB46F0BD5346002BECD06A46434612892433EA5292E7C21A92B211000292019A9346CB445A46928C93468B4518D24A463C32337827
:4017C000A25C9A4215D8434662465A53424600231832A35450464A464146105C3C225144885461460A4A33705153C1E7002292469FE701333370BBE738010020A002002072
:401800004C030020B8000020FC2B00007402002058030020024B400018184823C05A704738010020024B400018186023C05A704738010020024B400018184823C15270477B
:4018400038010020024B4000181881817047C04638010020014B19547047C04638010020F0B544465F4656464D46314AF0B42432904648222F4B83B01C5C1818037B944606
:401880001B19009363009844002301932A4B47469A46274B6344994610E04246961BB34232DB21004846FFF7B5FD002801D001230193009B01340237A34231D948221F4B92
:4018C00021001D5D48466B0053449A5A904660229E5A53465B5D9B46FFF79CFD3B880028DBD14644B34214DB114B3C229C466544AB5C013BDBB2AB54002BD2D13B3A21003B
:401900004846FFF793FDCCE7002221004846FFF78DFD074B5A469C463C236544EA54C0E7019803B03CBC90469946A246AB46F0BDA0020020342C000038010020FC2B0000AD
:40194000F0B55F4656464D4644460023F0B485B003930293354B9B463549029A0B000C338C5CD35C334A1B19904648220093630098440023944601932F4B47466344994680
:4019800010E04246961BB34232DB21004846FFF741FD002801D001230193009B01340237A34231D94822254B21001D5D48466B005B449A5A904660229E5A5B465B5D9A46E6
:4019C000FFF728FD3B880028DBD14644B34214DB194B3C229C466544AB5C013BDBB2AB54002BD2D13B3A21004846FFF71FFDCCE7002221004846FFF719FD0F4B52469C4643
:401A00003C236544EA54C0E7019B002B01D001230393029B013302930B2B9DD1039805B03CBC90469946A246AB46F0BD38010020342C0000C4020020A0020020FC2B000052
:401A40004B0018184118890888B2704770B501260720FFF71FFA174B174D1E602878C0B2FFF778FC154C23785BB2002B19DB2878C0B2FFF781FB28702B780A2B15D9237829
:401A8000B343237023785B0607D502220C490D4801F07CF802220C4B1A700720FFF7F0F970BD2378B3432370F7E72878C0B2FFF77FFBF2E714000840970200207102002055
:401AC0003C030020B8000020EA020020044A1368002BFCDB034B00021843014B186070470000014041000080034A1368002BFCDB024A014B1A60704700000140410000405B
:401B000010B5FF24C9002140000208430721034A13680B401843106010BDC04604030140044A1368002BFCDB034B00021843014B186070470000014040000080034A13686B
:401B4000002BFCDB024A014B1A607047000001404000004010B5FF24C9002140000208430721034A13680B401843106010BDC0460003014010B51024074B1C60074B1865C7
:401B800000F0B4FAC023064A11680B43136000F0B1FA044B1C6010BD80E100E00000002004E400E000E100E01022034B1A60034A034B1A657047C04680E100E0690C000076
:401BC000000000201022014B1A60704780E200E07047C046F0B55F464D46444656468023F0B490468A18814691B00F00DB0101209A4231D88B041B0E9A4643468C0B24027E
:401C00005444A401002B2ED06B46EB4600251E1B2200403208E0A84508D94B465B5D013533550134944207D0A742F4D92378DBB2335501349442F7D15046594600F05EFA15
:401C400001239C46E244454502D2403E0028DFD0012801D90120404211B03CBC90469946A246AB46F0BD0020F6E7C04610B5094C2378002B03D100F045F8012323708021AF
:401C8000054A0906136805200B431360FFF7F8F810BDC046EC0200200000064010B50520FFF7F8F800F090F8054A052013685B005B0813600022034B1A60FFF7F5F810BD56
:401CC00000000640880F064080220A4B5200196811420AD008490968490406D4186807490140196019680A431A600222044B1A607047C0460000064060000640FFFEFFFF7E
:401D00006C00064010B500241A4B1B4A1C601B4B1B491A601B4B1C4A052013601B4A14601B4A11601B4A13601B4B1C60FFF7B2F803210520FFF782F818490520FFF772F872
:401D40004C22174BFF321C60164B1A60164B3C3A1C60164BFF3A1C60154B1C60154B1A70154B1C70154B1C60154B1C60154B1C7010BDC04600000640FD0800406000064048
:401D80009E00FE000701008000030640040306401003064000020640040206409D240000880E0640480F0640080F0640C80F0640880F06406E030020840300207003002020
:401DC00074030020900300200023044A1360044A13601022034B1A707047C046680006406C0006406E0300200E4A10B513680E495B005B08136000230B600C490C480B607A
:401E000004680C49214001600B490B600B490B6010210B4B19708021136809060B43136010BDC04600000640680006406C00064060000640FF5CFFFF880F0640C80F064033
:401E40006E030020014B1878C0B270478403002010B50520FFF71EF80D21064B05201C781A78E4B28A431A70FFF70AF80F20204010BDC0468403002010B50520FFF70AF895
:401E80002F21064B05201C781A78E4B20A401A70FEF7F6FF0F232000984310BD8403002070B504000D0000280ED00520FEF7F2FF064B074A1C60074B05201D600023136052
:401EC000054A1360FEF7DCFF70BDC04680030020700300207C0300208803002070B504000D0000280CD00520FEF7D4FF0022054B05201C60044B1D60044B1A60FEF7C0FF1A
:401F000070BDC0468C0300207803002074030020014B18687047C046740300200022014B1A607047700300200022014B1A607047740300200300042004499B000A688243BF
:401F4000D2B21840104308607047C046000304400300022004495B000A688243D2B21840104308607047C046000304400121044A084013688B43DBB2184310607047C04611
:401F80000003044010B51B4A1378002B1DD1C0210C20194B890019601849086018490A3808601848184908601B689B039B0F012B1DD0591E8B4115498C46634414490B60D6
:401FC0000021144B19600123137000F08FF80123114A11680B43136000F08CF800F086F880220E4B52041A6000F084F810BD0C4BE4E7C046F402002000010540240105403D
:4020000038010540A60E000014010540A50E00000C010540080105400000054008000540A70E0000014B18607047C04630010540044A1368002BFCDB034B00021843014BC1
:4020400018607047000001404200008010B58024084B64001C60084B186600F047F8C023064A11680B43136000F044F8044B1C6010BDC04680E100E00000002008E400E02E
:4020800000E100E00300402004499B010A688243D2B21840104308607047C046000004400300202004495B010A688243D2B21840104308607047C04600000440030008205E
:4020C0000449DB000A688243D2B21840104308607047C046000004400230800804D0C0460138FDD1C046C046C0467047EFF3108072B6704780F310887047C046F0B556462B
:402100005F464D4644460023F0B495B0009306000193FF2800D9EDE0002900D1EAE0402202AD04A800F032FDA9680B000F005A1E9341EA685B001743002A00D0E4E01C00DF
:402140000A000F003B0029690B43002902D004241F0052183B0069690B43002900D0F7E039000800AF6913003843002F02D006240100D3190F00E8690743002800D0E4E0EF
:402180001A000F003800296A0843002900D0D8E01300390008006F6A1A003843002F02D009240100DA190F00A86A0743002800D0C4E013000F003800E96A0843002900D053
:4021C000B8E01A00390008002F6B13003843002F02D00C240100D3190F00686B0743002800D0A4E01A000F003800A96B0843002900D098E0130039000800EA6B1043002AA7
:4022000000D08CE01A0008002B6C1843002B00D081E013006A6C10000843002A01D011240100D318002B00D071E0002900D16FE0A200AF58AB50012398468C4B8C49029316
:402240003F238C4A6B608C4B1D601160C0461A68120F0F2A04D01A68120F0A2A00D17BE0FF221B6813400093009B9946002B43D1FFF73CFF814B83461A68814B9A4651460F
:402280001A60804B1B68DB0FDB074B607E4B1B689B0018338B60494601910199002900D1C0E0009B002B17D1784A31040292029A77480A4302926F496F4A15600860C046A4
:4022C0001168090F0F2903D01168090F0A2902D01368FF2213400093009B9946002B02D14346002B58D1019B002B37D05846FFF701FF01E004230093009815B03CBC9046AD
:402300009946A246AB46F0BD03248A181AE700239846002791E71024D31801007AE70F249A1801006FE753180E24010064E70D241A1859E75A180B24010044E70A2413185F
:4023400039E753180824010024E707241A1819E752180524190004E7002384E753469868302855D0FEF7FAFC534603201B681840FEF7E4FC5246414B12681A6053465B6837
:40238000002B01D1FEF7D2FC00230193019B002BACD0019B0093A9E74022002104A800F0FEFB324BA4002F5102933F2330496B60304A314B1D601160C0461A68120F0F2AEA
:4023C00003D01A68120F0A2A03D0FF221B681A4091464B460093009B002B00D083E72D4A36040292029A2C4816432249224A029615600860C0461168090F0F2903D0116852
:40240000090F0A2902D01368FF22134000936AE7032210001B681840AAD11B091340012BA6D1B1E7302B06D12D3B134203D112091A40012A16D00220FEF7E2FC53469B6895
:40244000302B02D03020FEF789FCFEF765FC0020FEF774FC302209490B6893431A00102313430B60002300931BE7C046B6D7000004000080040010400800104028000340A9
:40248000F802002030000340080F0340B6D8000005000080B6D9000006000080F0B54746C64B80B41B68002B00D09847C44B1B68DB0702D50022C34B1A602021C24A13786C
:4024C000194206D1C14B18680223FF33184200D0F5E013789B0600D5EEE01378DB0600D420E1BA4B196802230B4230D0B8490B60B84B19681B681B04D80F0F230B40B649CB
:40250000C3180878834200D219E1B4480D7804685B1BE31A0360B24B0468B24804600020B14C206080240870B04964020868204308600C68AE482040086002201978814329
:4025400019700121187801431970102313709F4B196808230B4239D09D490B60A54B1B689B0419D5A44D2B681B0710D00F27A34BA34CA44E20681968844630686144C0B253
:40258000087019680131196029680F42F2D199499D4B086803400B609C4B1B689B0600D4E5E040218E4B187801431970002098490860984895490860202019788143197002
:4025C0001021187801431970102313707F4B1B685B0625D50121904B1960904B196810230B4200D0B5E08E4B84491B6809685B1A072B00D9C7E00421854B19602023784905
:40260000087803430B7011231370864A704B1A600823854A11680B4313600122834B1A60834B1A68120758D57D4B1A68734B083A1868101A082800D988E00126002800D1E3
:4026400097E06F4C6F4D21681A688C4629686244C9B211701A68013801321A600028F2D1002E00D085E00822684B1A60714B1B68DB0621D5704B0F211B6856489C46FF2329
:402680009846564A6D4D6E4C534E03680B40082B0FD017682B689F423AD2136863441B78DBB2236013680133136003680B40082BEFD11022634B1A6004BC9046F0BD137808
:4026C000DB0732D4464B187888439021187018780143197000231370FBE61B685B07C5D5484B4F491A68454B1868096888425CD201204E49D2B208604148196800684118D5
:402700000A701A6801321A600422404B1A60ADE74346236033780A2BB7D833780133DBB23370B2E7FFF760FBC6E702202C4B1978814319700921187801431970CAE704203D
:40274000274B1C78204318702448E5E60026082077E725490B60234B1968204B196002231F49087803430B70122313704DE71C4B1CE780211F4A090213680B431360002242
:40278000234B1A606FE71B49082B08D080200B68800103430B6008211D4B19602EE7A0200B68000203430B6028E7FFF78DFA40230B4A11780B431370A6E7C046F0020020DF
:4027C0008C0E0640880E06406E0300204C0F0640400F06400802064090030020880300208403002070030020880F064004020640FFFFFEFF600006400803064074030020BC
:402800008C03002040030640FF5FFFFFC00F0640C80F0640ED0F0000800E06406400064078030020FF0F0000480F06406C000640CC0F06408C0F0640800300207C0300201C
:4028400040020640800F0640002243088B4274D303098B425FD3030A8B4244D3030B8B4228D3030C8B420DD3FF22090212BA030C8B4202D31212090265D0030B8B4219D318
:4028800000E0090AC30B8B4201D3CB03C01A5241830B8B4201D38B03C01A5241430B8B4201D34B03C01A5241030B8B4201D30B03C01A5241C30A8B4201D3CB02C01A5241D5
:4028C000830A8B4201D38B02C01A5241430A8B4201D34B02C01A5241030A8B4201D30B02C01A5241CDD2C3098B4201D3CB01C01A524183098B4201D38B01C01A5241430929
:402900008B4201D34B01C01A524103098B4201D30B01C01A5241C3088B4201D3CB00C01A524183088B4201D38B00C01A524143088B4201D34B00C01A5241411A00D2014637
:40294000524110467047FFE701B5002000F0F0F802BDC0460029F7D076E7704703460B437FD4002243088B4274D303098B425FD3030A8B4244D3030B8B4228D3030C8B4241
:402980000DD3FF22090212BA030C8B4202D31212090265D0030B8B4219D300E0090AC30B8B4201D3CB03C01A5241830B8B4201D38B03C01A5241430B8B4201D34B03C01A85
:4029C0005241030B8B4201D30B03C01A5241C30A8B4201D3CB02C01A5241830A8B4201D38B02C01A5241430A8B4201D34B02C01A5241030A8B4201D30B02C01A5241CDD2DB
:402A0000C3098B4201D3CB01C01A524183098B4201D38B01C01A524143098B4201D34B01C01A524103098B4201D30B01C01A5241C3088B4201D3CB00C01A524183088B4202
:402A400001D38B00C01A524143088B4201D34B00C01A5241411A00D201465241104670475DE0CA0F00D04942031000D34042534000229C4603098B422DD3030A8B4212D3CA
:402A8000FC22890112BA030A8B420CD3890192118B4208D3890192118B4204D389013AD0921100E08909C3098B4201D3CB01C01A524183098B4201D38B01C01A5241430982
:402AC0008B4201D34B01C01A524103098B4201D30B01C01A5241C3088B4201D3CB00C01A524183088B4201D38B00C01A5241D9D243088B4201D34B00C01A5241411A00D212
:402B00000146634652415B10104601D34042002B00D54942704763465B1000D3404201B5002000F005F802BD0029F8D016E770477047C046014B18687047C04610020020B1
:402B40000E4B70B500251E000D4CE41AA410A54204D0AB00F35898470135F8E700F078F8084B00251E00084CE41AA410A54204D0AB00F35898470135F8E770BD5C2C00008E
:402B80005C2C00005C2C0000642C0000002310B59A4203D0CC5CC4540133F9E710BD03008218934202D019700133FAE7704700000000000002000700010405060007010003
:402BC000000000010101010102010000000002400001024000020240000302400800044008010440080204400803044000000440000104400002044000030440000102036D
:402C00000405060708090A000400000001000000800000000100000002000000100000002000000040000000010000008000000002000000000102030405060708090A00B1
:402C400001010101010101010101014300000000F8B5C046F8BC08BC9E46704759010000C50C0000F8B5C046F8BC08BC9E46704731010000882C000068000020B001000030
:402C80008001000000000000000000002413000042130000560900008809000074090000560900006A09000088090000560900007409000006130000B402202509430000FB
:402CC000191210000100000000007017E02E00000C000000001BB700FF0700000000FF1F0000FF1F0000FF0F0000FF0F0000FF0F0000FF0F0000FF0F0000FF0F0000FF0F81
:402D00000000FF0F0000FF1F0202020202020202020202000404040404040404040404001F25161815191715110E210008000440080004400800044008010440080104409B
:402D40000801044008010440080104400802044008010440080004400A0A1414050505050A0A0A0046003D00290028002F0029003000310039003C003C0001001E001E009C
:402D80001E001E001E001E001E001E001E001E001E000000323232323232323232323200640057003B00390043003A00440046005200550055000000050005000500050099
:402DC0000500050005000500050005000500000000000000000000000000000000000000000000000000000000000000000000004B2C000000000000000000000000000039
:402E0000000000000000000000000000000000000000000000000000000000000000000000000000000000000000000000000000B0010020000000000000000000000000C1
:402E40000000000000000000000000000000000000000000000000000000000000000000000000000000000000000000000000000000000000000000000000000000000052
:402E80000000000000000000000000000000000000000000000000000000000000000000000000000000000000000000000000000000000000000000000000000000000012
:402EC00000000000000000000000000000000000000000000000000000000000000000000000000000000000000000000000000000000000000000000000000000000000D2
:402F00000000000000000000000000000000000000000000000000000000000000000000000000000000000000000000000000000000000000000000000000000000000091
:403FC000B40220250943000000000000000000000000000000000000000000000000000000000000000000000000000000000000000000000000000000000000000000007A
:0200000490303A
:02000000036398
:0200000490402A
:200000000000000000000000000000000000000000000000000000000000000000000000E0
:0200000490501A
:0C00000000020A48119A00000A5714FD83
:0200000490600A
:0100000001FE
:00000001FF