:4000000000080020110000003D0B00003D0B000010B500F0CDFE00F099FDC04670B572B6EE220024264B12021A60264BD8211C609F23254A49031360244A254D1160254AD5
:4000400018201360BF22244B1A60244A244B1A60B322244B1A600123234A1360234A13600722234B1A60234BB032FF321A6011232B6000F0BBFD204B204A1C60204B214979
:400080001A60FE2212020A601F4919601F490A601F4A1A601F4A14601F4A1A6004221F4B1A601F4B3E321A601E4B023A1A601E4B01321A601D4B02321A602C6070BDC0466A
:4000C00000010240000302400000044008000440300010401800044000010440000918000801044018010440000204401802044000030440080304400803014042FF0080B5
:40010000000001400003014040FF00800403014041FF00800C03014043FF0080280003400C01014008010140040101400001014010B5064C2378002B07D1054B002B02D0D4
:40014000044800E000BF0123237010BDB00100200000000030210000084B10B5002B03D00749084800E000BF07480368002B00D110BD064B002BFBD09847F9E70000000010
:40018000B401002030210000680000200000000010B5022001F022FF0122264B26491A705A688A4201D801325A601A7A012A3CD0DA6822498A4214D9197C0022012916D0BF
:4001C000197E5A610022012918D05A831A7F012A1BD000225A779A7F012A1ED000221A8410BD197C0132DA6000220129E8D15A69197E01325A6100220129E6D15A8B0132D1
:4002000092B25A831A7F012AE3D15A7F542AE2D801325A779A7F012AE0D197211A8C89008A42DDD801321A84DAE70022DA601A72C2E7C046CC010020D9070000B904000000
:4002400010B500F0E1FD01F0C7FB00F0C5FD044B1B889A00D318DB00181800F0B1FD10BDCA02002010B50400084B1880084B198001F0A4FB074800F0A3FD200000F0B4FDDD
:4002800000F090FD00F0C8FD10BDC046C8020020CA020020FFFF000010B514210120FFF7E1FFFEE7F0B55F4656464D464446F0B483B062B60024002001F0DCFE002001F07D
:4002C000CBFE002001F0BAFEFF2001F08DFED54801F098FE01F032FED34A03211F2001F069FC01F0A7FB14210220FFF7BBFFCF4ECF4D200000F0E4FF3055200001F0B0F931
:40030000285501340B2CF4D1142000F00FFD142000F00CFD00F0A8FD20230193C54B9846C54B9B46C54B9A46C54B994600260025280000F00FFF00F06BFE0028FBD1434641
:400340000400985B5B469F19398801F083FA53469853BC4B38805C554B465C55013502360B2DE5D1019B013BDBB20193002BDDD1B54BB64E9B462323F45C002C21D1337856
:40038000012B00D195E2B37F012B00D1BAE1B04BF2689A4200D9A4E1AE4A1378002B00D0BBE12423F45C002C00D15FE12824335D042B00D900E1013333552323F45C002C3F
:4003C000DDD000F021FD2323F35C002BDBD05B465A461C881B78A048138014239F4A138001F0D2FA00F0F8FC9C4B1B889A00D318DB00181800F0E4FCE0B200F0F5FC00F043
:40040000D1FC00F009FD00F063FF00F0B3FC00F07FFF25230022F254033B9A46904F0A2000F098FE00F0F4FD0028FBD10A3000F0BDFF0A2001F022F900253870280000F067
:4004400089FE00F0E5FD0028FBD10400280000F0ADFF2800013501F011F90A2DEED15346F55C002D00D1ACE03C702522B35C0133DBB2B354022BD2D943461A88E623673A2D
:4004800092B2DB009A4200D9FBE10022327642465288673A92B29A4200D9F2E142469288673A92B29A4200D9EBE14246D288673A92B29A4200D9E4E142461289673A92B2A2
:4004C0009A4200D9DDE142465289673A92B29A4200D9D6E142469289673A92B29A4200D9CFE14246D289673A92B29A4200D9C8E14246128A673A92B29A4200D9C1E14346D9
:40050000E6225B8AD200673B9BB2934200D9B8E143469B8A673B9BB2934200D9B1E10023F3844A464F4B11781A78914200D9B5E14A4651785A78914200D9AFE14A469178C8
:400540009A78914200D9A9E14A46D178DA78914200D9A3E14A4611791A79914200D99DE14A4651795A79914200D997E14A4691799A79914200D991E14A46D179DA799142E5
:4005800000D98BE14A46117A1A7A914200D985E14A46517A5A7A914200D97FE14A469B7A927A9A4200D979E100232824F3623374335D042B00D8FEE600F0C6F900233355FA
:4005C000D9E63B78002B00D14FE75B465A461C881B78138001F0F2F9234800F0F1FBE0B200F002FC00F0DEFB00F016FC01F022FA23230020F554223BB377F56001F0F2F96A
:40060000FF2001F0F1FC074801F0FCFC01F096FC9620800000F08AFB03210A2001F028F823E7C046910100009C020020BC0200208C02002010020020EC0200203C0200206E
:400640006002002054020020C8020020CC010020AF0400009802002041020000CA020020970200200C010020FFFF000001F090FA030700D49AE603210122AD4B32721970E6
:40068000AC4BAC4819785B788078CB18DBB2984200D12FE12223F35C002B00D010E1A54AEB331370A44AA34913784B705278510701D503210A409F499E488A700021C17018
:4006C000017101209B4C203BA1712031E171033121724D316172D3182F396071A172E37264E601222323F25400232132B354B37701F0B8F9012001F075F906210A2000F0C9
:40070000B7FF4EE69623328C9B009A4200D83EE60023B37700F00CFE39E6013B137000F027FD00F075FC0028FBD100F0DBFE01F013F84A46814B11781A78914200D9F4E09B
:400740004A4651785A78914200D9EEE04A4691789A78914200D9E8E04A46D178DA78914200D9E2E04A4611791A79914200D9DCE04A4651795A79914200D9D6E04A469179DE
:400780009A79914200D9D0E04A46D179DA79914200D9CAE04A46117A1A7A914200D9C4E04A46517A5A7A914200D9BEE04A469B7A927A93429B415B4233747269604B9A42C7
:4007C0006AD843461A88E623673A92B2DB009A4273D80022327642465288673A92B29A426BD842469288673A92B29A4265D84246D288673A92B29A425FD842461289673A2E
:4008000092B29A4259D842465289673A92B29A4253D842469289673A92B29A424DD84246D289673A92B29A4247D84246128A673A92B29A4241D84346E6225B8AD200673BE4
:400840009BB2934239D843469B8A673B9BB2934233D83B4B728B9A421ED82223F25C002A05D13549374B0878187049785970737F272B33D8304B5B78042B4DD00023337798
:400880008FE501232C223376F38CFF3201339BB2F384934200D844E6FFF7FEFC012232742C22F36AFF320133F362934200D87DE5F2E700F0A9FA347085E501233376C8E707
:4008C000EB231C4A1B4913701E4A13784B701A4952784978490700D4EDE6EAE64F2B20D90424154B5B781C401BD1012001F07AF8347756E50A4200D1CCE62323F254013B23
:40090000F454B47701F0AEF8012001F06BF806210A2000F0ADFEBDE6002AAFD1033B33773FE5002001F05EF83BE5012344E7C046980200209C020020780200200C010020D8
:400940006F30000088020020F8B54F464646C0B4754B082499461D7817E0002001F05EF8012001F095FB012001F04AF8012001F08FFB013C002001F043F86D000120E4B2EF
:40098000EDB201F085FB002C06D06BB2002BE4DA012001F043F8E3E7002001F03FF8022001F076FB614F3E0016363D78082417E0002001F033F8012001F06AFB012001F065
:4009C0001FF8012001F064FB013C002001F018F86D000120E4B2EDB201F05AFB002C06D06BB2002BE4DA012001F018F8E3E7002001F014F80137022001F04AFBB742D4D1C9
:400A00004B4F3E0016363D78082417E0002001F005F8012001F03CFB012000F0F1FF012001F036FB013C002000F0EAFF6D000120E4B2EDB201F02CFB002C06D06BB2002BC4
:400A4000E4DA012000F0EAFFE3E7002000F0E6FF0137022001F01CFBB742D4D1354F3E000B363D78082417E0002000F0D7FF012001F00EFB012000F0C3FF012001F008FB3B
:400A8000013C002000F0BCFF6D000120E4B2EDB201F0FEFA002C06D06BB2002BE4DA012000F0BCFFE3E7002000F0B8FF0137022001F0EEFAB742D4D11F4B00279846434654
:400AC0000824DD5D17E0002000F0A8FF012001F0DFFA012000F094FF012001F0D9FA013C002000F08DFF6D000120E4B2EDB201F0CFFA002C06D06BB2002BE4DA012000F0FF
:400B00008DFFE3E7002000F089FF0137022001F0BFFA022FD3D14B464A461B78013313700CBC90469946F8BD08020020100200203C020020600200207802002010B501F0C5
:400B4000B9FA03680C2B00D0FEE7FEE7F8B5104E002E18D000200F4DA9682C686A68002905D00023E758043380C29942FAD1E9680023002903D0D05004339942FBD1013E46
:400B80001035002EE8D101F09BFAFFF78BFBFEE701000000F42100000121104A70B513680F4C8B4313600F48002200230E4D04E00133A1500432192B08D00100032BF7D804
:400BC00051590133A1500432192BF6D1FFF726FA0123024A11680B43136070BD00001040000000203D0B000000000000F8B50400182806D0102302009A43202A01D001BE8D
:400C0000F8BD072601F04EFA1B4D1C4A2B680700B3432B601A4B1B48E3181B78DBB21360194A1368B3431360184B0168E3181A787F23994313400B430360322001F028FAD3
:400C4000182C03D8380001F031FAD9E723002A681C3B9B08B243334013432B60322001F017FA183C2B68A4083440B3431C432C60380001F01BFAC3E7080F03400C0F03406D
:400C8000CDF1FF0F180F0340100F0340B4F1FF0F082800D901BE034B8000C318186819607047C04640000020F8B504000E00032900D901BE082C00D901BE032701F0F2F90D
:400CC0003D00094B25409C46A408A40064442168ED000B0031000635AF40A940BB431943216001F0E3F9F8BD00E400E01F2318401E3B8340014A13607047C04600E100E04C
:400D00001F2318401E3B8340014A13607047C04680E100E01F2318401E3B8340014A13607047C04680E200E001BE7047F8B5802507002D02A84214D904000B4E706801F0D3
:400D4000A7F90A4B9C466444AC42F7D8084BFB18DB0BDB036744FF1AB068784301F098F9F8BD014EF8E7C0466C0000200080FFFFFF7FFFFF10B501F095F9074B074A1B88FB
:400D80009BB213600423064A11680B43136030BF01F08CF910BDC04652F1FF0F0400034010ED00E00022014B1A60704738000340014A024B1A6070476588EDAC3800034031
:400DC000044A00041368000C1B0C1B04184310607047C04640000340024B18680004000C7047C04640000340F02110B5044C0204044B206809030A4003401A43226010BD64
:400E000040000340FFFFF0FF0123024A11680B4313607047440003400123024A11680B43136070474C00034010B500F067FD00F08FFD0021002000F097FD0021002000F0DF
:400E400069FDFF2000F076FD402000F049FD044A0449136807200B431360FFF747FF10BD0400084000100880F8B55F4656464D464446F0B44C4B1B78002B24D000F03EFDE6
:400E800000F066FD0021002000F06EFD0021002000F040FD454CFF2000F04CFD402000F01FFD2368424A072013432360FFF71EFF80222368D203134323603CBC90469946CE
:400EC000A246AB46F8BD3B4B0B22002118009B4601F025F90F203849384B0A68384C1A702378324D03401A002378364C834313430B60354A354B08381A60354B00262B60D0
:400F00002268344B1340C022D20213432360FFF7F7FE31490720FFF7BBFE03210720FFF7C3FE2B6821002B602C4B99462C4B98462C4B9A4620E001F0B5F807224346A24016
:400F40001B68013693431F4343461F6001F0AEF8012211004B46A9401B688B4349460B600B2E1DD053460C33F35C9B0053449A6A99699B6B9046994653460F279D5D5B463D
:400F8000AA00D2B29740985D0B686C00BB4306272C19E4B20B60A7400128CCD10027CAE7014B1A706AE7C0460C0200200400084000100880D402002000FF0840CC020020F8
:400FC00062F1FF0F000002400002000108000840C008A001FFFFF0FF6118000000000440080004403421000070B501210724074D0130C0B20B2807D022000E00024096408C
:40100000C308EB5C1E42F3D070BDC046800000200120024B5B7818407047C0460C020020434BF0B54546984648234E46814657469A46C14452464B469B5C3E4C9B00E0B467
:40104000E31807005E6800F059FC00F081FC3023E419E05C0021013880B200F085FC3C23E05C0021013880B200F054FCFF2000F061FC402000F034FC0720FFF741FE40235B
:401080002D4D07202A6813432B60FFF72FFE0720FFF736FE29482A4B026813405246A15C0B431A00274BDB191B7F1B04134303602C68254B07201C40244B1C43FFF716FED1
:4010C0004B461B7B99464346DF5D00F0EBFF82460F204B46B900C9B288409B0043449A699B6A94461268984682430420884019687B00FB180727DBB29F40B9430B00414683
:401100000B60634602431A60504600F0CFFF00F0C9FF07002C60002000F0BAFF0C4B38001E6000F0C3FF1CBC90469946A246F0BD3421000080000020040008400800084002
:4011400000FF80FF0C020020FF1FDFFF200020000C000840002210B5044BC1B25A70273299545A325A70FFF75BFF10BD0C020020F8B50023FF2207240120104E104D7370FE
:401180002733F254F35CDBB20133DBB20B2B07D02100070019408F40DA08AA5C1742F3D02722B354B35C0A2B07D8012371780B437370B05CC0B2FFF733FFF8BD0C02002057
:4011C00080000020F0B54746264B27491A684300CB1880B49A800F22244F3E5C3B181C7B234BB1001B5CC9B28A409C46A4003B199869750003687519934303606346EDB279
:40120000012B2BD00623AB40984600F04BFF0722AA403C19A16A0B689343424613430B6000F044FF0122B240A16B07200B6893430B60FFF765FD0F4A0F4B116807200B4031
:40124000A02109020B4313600C4A0D4B11680B401360FFF74BFD04BC9046F0BD00239846D3E7C0460C0008400C02002034210000D402002004000840FF1FDFFF0800084055
:4012800000FF80FF02000720CB08014006388840D35C1840431E98417047C046072310B5CC081940063B8B400419DBB2002A03D122789A43227010BD227813432370FAE7E5
:4012C000024B18184823C05C7047C046800000200C4B10B51B68002B02DA01220A4B1A700720FFF70DFD074A084B11680B40136013685B005B08136000F000FB00F028FB39
:4013000010BDC0460400084038020020FFEFF7FF10B5FF2000F0E4FAFF2000F00BFB034B1B78002B01D0FFF77FFD10BD38020020F8B55F4656464D464446174BF0B49B4621
:40134000164B00259A46164B00249946154B30279846154E2000FFF7FDFEFFF759FE0028FBD131001831605431005B462431605448461A5D5346B118825C5B5BCA554246AE
:4013800001347353535302350B2CE3D13CBC90469946A246AB46F8BD7C2100001002002000010020EC0200203C020020474BF0B51B5C56469A4644465F464D46444BF0B4B4
:4013C0009B4653465B441B7B44009C46414B83B01B5B98465B46DA7D4346002A08D042463D490B5BD2185B009B189B089BB20B533A490F5B9F422AD8002290464646384AF2
:4014000016540126B046DA1B92B266466D46EE80EE88B44696423BD30D18A9462D7E3E023543ED1B5B191D0A0D534C46237600242B4B1C5494453DD3002224230818C25492
:4014400003B03CBC90469946A246AB46F0BD56465E44FA1A367E92B2964228D25D4624271F4A2E18135CF75D9F422CD8434600270B530B181F765346CB189C4653466646BC
:40148000ED5C3023F5544546134B17541D53D3E75D4655442D7E95420CD94546002DBBD0FF2A0CD9FF2224230818C254C8E70026B046AAE74346002BBED0FF2AF2D824235F
:4014C0000818C254BCE701331354B5E77C2100000001002010020020EC0200203C020020E0020020F0B55F46444656464D46F0B4544B85B09846544B544E554D554F00247A
:401500009B4605E001340136023502370B2C58D021004046FFF7B6FE0028F3D04E4B1B5D0193019A5B46944663441B7B4B4A9C466300D35A99465B46DA7D4B46002A07D006
:401540004A463B88D2185B009B189B089BB23B802888984247D8002232701A1A92B2029201229246624602A9CA80CA889446029A944508D2019A5A44117E029A914227D9B2
:401580005246002A27D1324A11001822914649448946625C010211434A46081A1B18190AA35400233370029B29809C4510D30022274B01362433E2540134023502370B2C5F
:4015C000A6D105B03CBC90469946A246AB46F0BD5346002BEBD0029BFF2B2DD9FF221C4B2433E2548EE7C21A92B20292019A9246DA445246127E9246029A924516D25A4676
:4016000024323378A25C9A4213D84B462B8000230F4A01991832A3540D4A337050185A46515C302281544A463A80C0E70022924698E701333370BAE7054B02AA12782433BC
:40164000E2545FE78000002000010020E00200203C020020EC0200207C21000010020020024B18183023C05C7047C04600010020014B19547047C04600010020F0B5444660
:401680005F4656464D46304BF0B41C5C1818037B85B01B190293002303932C4B99462C4B9B4630239A460C335B4498460EE0BE1BB34236DB21004046FFF7E4FD002801D079
:4016C00001230393029B0134A34235D9214B52461D5D4B465B199F5C3C229E5C4B465B5D210040460193FFF7CDFD5B462433E35C0028DCD1BE195D44B3420DDB53465246BF
:40170000EB5C013BDBB2AB54002BD3D1012221004046FFF7C3FDCDE76A4653461279EA54C8E7002221004046FFF7B8FD6A46534612795D44EA54BDE7039805B03CBC9046ED
:401740009946A246AB46F0BDB4210000000100203C0200207C210000F0B55F4656464D4644460023F0B487B005930493354B9946354B9A4630239B463449049A0B000C338B
:401780008C5CD35C1B190293002303933C33534498460EE0BE1BB34236DB21004046FFF771FD002801D001230393029B0134A34235D9274B5A461D5D4B465B199F5C3C2272
:4017C0009E5C4B465B5D210040460193FFF75AFD53462433E35C0028DCD1BE195544B3420DDB5B465A46EB5C013BDBB2AB54002BD3D1012221004046FFF750FDCDE76A463D
:401800005B461279EA54C8E7002221004046FFF745FD6A465B4612795544EA54BDE7039B002B01D001230593049B013304930B2BA2D1059807B03CBC90469946A246AB46F4
:40184000F0BDC046000100203C020020B42100007C2100004B0018184118890888B2704770B501260720FFF74BFA174B174D1E602878C0B2FFF7A6FC154C23785BB2002B9E
:4018800019DB2878C0B2FFF7AFFB28702B780A2B15D92378B343237023785B0607D502220C490D4800F032FC02220C4B1A700720FFF71CFA70BD2378B3432370F7E7287835
:4018C000C0B2FFF7ADFBF2E714000840330200200D020020D0020020800000207A020020044A1368002BFCDB034B00021843014B186070470000014041000080034A136836
:40190000002BFCDB024A014B1A607047000001404100004010B5FF24C9002140000208430721034A13680B401843106010BDC04604030140044A1368002BFCDB034B00027F
:401940001843014B186070470000014040000080034A1368002BFCDB024A014B1A607047000001404000004010B5FF24C9002140000208430721034A13680B4018431060D7
:4019800010BDC0460003014010B51024074B1C60074B186500F086FBC023064A11680B43136000F083FB044B1C6010BD80E100E00000002004E400E000E100E01022034B2C
:4019C0001A60034A034B1A657047C04680E100E03D0B0000000000201022014B1A60704780E200E00300042004499B000A688243D2B21840104308607047C046000304401B
:401A00000300022004495B000A688243D2B21840104308607047C046000304400121044A084013688B43DBB2184310607047C0460003044010B5094C2378002B03D100F006
:401A400045F8012323708021054A0906136805200B431360FFF74AF910BDC0467C0200200000064010B50520FFF74AF900F08AF8054A052013685B005B0813600022034BFD
:401A80001A60FFF747F910BD00000640880F064080220A4B5200196811420AD008490968490406D4186807490140196019680A431A600222044B1A607047C04600000640E4
:401AC00060000640FFFEFFFF6C00064010B50024184B194A1C60194B19491A60194B1A4A05201360194A1460194A1160194A1360194B1C60FFF704F903210520FFF7D4F869
:401B000016490520FFF7C4F85222154BFF321C60144B1A600022144B1C60144B1C60144B1C60144B1C70144B1C70144B1C80144B1A7010BD000006400008004060000640A7
:401B40009E00FE00070100800003064004030640100306400002064004020640E51B0000880E0640480F0640080F0640C80F0640880F0640080300200C030020060300206B
:401B8000040300200022014B1A7070470803002010B50520FFF7B4F81F21054B05201C781A78E4B28A431A70FFF7A0F8200010BD0C03002070B506000D00141E0BD00520BC
:401BC000FFF79EF8044B05201C60044B1E80044B1D80FFF78BF870BD10030020140300200A030020F8B54F464646B54BC0B41B68002B00D09847B34BB34D1E68B34B2C887E
:401C00001F680223FF3333402DD02021B04A13685B005B081360AF4B1A788A431A70102219780A431A70AC4A1268D20600D48DE0022219780A431A70A84AA94B11680B4033
:401C4000136000238021A74A09061360A24A1360A54A13709E4A13680B4313602C800CBC90469946F8BDFA0601D5A04A13600A233B424CD102231F40002F1AD0F30614D56E
:401C80000023984A1360944A1360994B1A780A23944200D1F8E08F4A334011780B4320218B4313700022904B1A70730658D4854B1E60864B1B685B07D0D58E4B8E4E98461C
:401CC0001A888E4BFF271B688D489C4600230F2199460DE063461B191B78013ADBB23360012399460368013492B20B40082B06D0002AEFD1376003680B40082BF8D14B4620
:401D0000002B00D0D9E010227E4B1A60A6E77E4B1B685B074FD57D4B73491A680B78002B00D191E0012B7BD1724988460988002900D1ABE07648D2B20360704B01391B68F1
:401D40001B191A704346013419806CE0684A1278A24200D170E7082219780A431A706BE720235C4A11780B431370614B1C78694B1A68102313424FD08020674A5D491288E5
:401D80004002121B0A80654A1168014311601068634901401160504A13600122614B62491A60484B196010236049086803430B60574B1A607BE7494A13689B0400D459E72E
:401DC00002231F4033D14B4B1988083989B2198008295ED800296ED000239846474B4B489C466118634602681B68D2B21B1901341A708C42F6D14346002B09D18020374A6F
:401E0000000213680C00034313600022354B1A600C22474B1A602FE70422324B1A60BCE70020FEF781FF0422414B1A6022E70F21404B1B6810681940294B0340136001230D
:401E400098460029CAD1E3E73348008882421DD201242F4804603848008882421DD2801A244C80B22080072819D908281AD080201A4980010B6803430B600821194B1960C0
:401E80001B4B14001A70CEE7083B04E7FFF700FEC9E7012308219846A0E71648038001230B70EDE7A0240D4824020168214301600C490B60E4E72100A0E743461A8022E7C5
:401EC00080020020400F064006030020000E0640000006400C030020880F064060000640FF5FFFFFC80F064008030020880E0640040300208402002040020640100300202E
:401F000008020640800F0640CC0F0640400306406C000640640006401403002004020640FFFFFEFF800E0640FF0F0000480F0640C00F0640080306400A03002010B51B4ABC
:401F40001378002B1DD1C0210C20194B890019601849086018490A3808601848184908601B689B039B0F012B1DD0591E8B4115498C46634414490B600021144B196001236A
:401F8000137000F08FF80123114A11680B43136000F08CF800F086F880220E4B52041A6000F084F810BD0C4BE4E7C04686020020000105402401054038010540A60E0000D6
:401FC00014010540A50E00000C010540080105400000054008000540A70E0000014B18607047C04630010540044A1368002BFCDB034B00021843014B1860704700000140C4
:402000004200008010B58024084B64001C60084B186600F047F8C023064A11680B43136000F044F8044B1C6010BDC04680E100E00000002008E400E000E100E003004020BA
:4020400004499B010A688243D2B21840104308607047C046000104400300402004499B010A688243D2B21840104308607047C046000004400300202004495B010A68824369
:40208000D2B21840104308607047C046000004400230800804D0C0460138FDD1C046C046C0467047EFF3108072B6704780F310887047C046014B18687047C046A8010020B9
:4020C0000E4B70B500251E000D4CE41AA410A54204D0AB00F35898470135F8E700F078F8084B00251E00084CE41AA410A54204D0AB00F35898470135F8E770BDDC210000A4
:40210000DC210000DC210000E4210000002310B59A4203D0CC5CC4540133F9E710BD03008218934202D019700133FAE7704700000000000002010307000104050007000031
:4021400000000000010101010201000000000240000102400002024000030240080004400801044008020440080304400000044000010440000204400003044000010203F8
:402180000405060708090A000400000002000000080000008000000001000000020000001000000020000000010000008000000001000000000102030405060708090A0074
:4021C00001010101010101010101014300000000F8B5C046F8BC08BC9E46704759010000990B0000F8B5C046F8BC08BC9E46704731010000082200006800002048010000DA
:402200006801000000000000000000000100000000007017E02E00000C000000001BB700FF0700000000FF070000FF070000FF070000FF070000FF070000FF070000FF0791
:402240000000FF070000FF070000FF070000FF070202020202020202020202000404040404040404040404001C1E16161615171512111E0008000440080004400800044022
:402280000800044008010440080104400801044008010440080204400801044008000440030303030303030303030300121212121215151515150E011E1E1E1E1E1E1E1ED4
:4022C0001E1E1E0032323232323232323232320019191919191E1E1E1E1E140005050505050505050505050000000000000000000000000000000000000000000000000000
:402300000000000000000000CB21000000000000000000000000000000000000000000000000000000000000000000000000000000000000000000000000000000000000B1
:4023400000000000000000004801002000000000000000000000000000000000000000000000000000000000000000000000000000000000000000000000000000000000F4
:40238000000000000000000000000000000000000000000000000000000000000000000000000000000000000000000000000000000000000000000000000000000000001D
:4023C00000000000000000000000000000000000000000000000000000000000000000000000000000000000000000000000000000000000000000000000000000000000DD
:40240000000000000000000000000000000000000000000000000000000000000000000000000000000000000000000000000000000000000000000000000000000000009C
:40244000000000000000000000000000000000000000000000000000000000000000000000000000000000000000000000000000000000000000000000000000000000005C
:0200000490303A
:02000000A3D08B
:0200000490402A
:2000000000000000000000000000000000000000FFFFFFFFFFFFFFFFFFFFFFFFFFFFFFFFF0
:0200000490501A
:0C00000000020A48119A00000A53B56A79
:0200000490600A
:0100000001FE
:00000001FF