:400000000008002011000000810600008106000010B500F045FC00F03BFBC04670B572B600241E4B1E4A1C6010231E4913601E4A1E4D1160C0211E4A490313601D4A2F3377
:4000400013601D4A182011601C4A136007221C4B1A601C4BB032FF321A6011232B6000F067FB194B194A1C60194B1A491A60FE2212020A601849196018490A60184A1A6072
:400080000422184B1A60184B3E321A60174B023A1A60174B01321A602C6070BD0003024000000440B6011B000800044030001040180004400001044008010440180104409E
:4000C00000030440080304400803014042FF0080000001400003014040FF00800403014041FF0080280003400C0101400801014004010140000000000000000000000000C8
:4001000010B5064C2378002B07D1054B002B02D0044800E000BF0123237010BD7801002000000000DC110000084B10B5002B03D00749084800E000BF07480368002B00D1BD
:4001400010BD064B002BFBD09847F9E7000000007C010020DC110000680000200000000010B5022000F072FF0122014B1A7010BD94010020F8B500250024084F084E200014
:4001800000F00EFD00F06AFC0028FBD1735B01347B530235062CF2D1F8BDC04684020020A8010020F0B5454657464E46314BE0B41E5C314B76009F5B304B44000500185BC5
:4001C0002F4B9846195B00F03FFE43462D4918532D4B18530B5B9C46984225D300222B4B5A55634601329146C31A9BB29F422AD36246120290464646254A9246525D324314
:400200006646921B8018020A0A535246002150551E4A51559F4222D300221E4B1A531CBC90469946A246F0BD1B4A1B1A925B9BB29A4211D2154E194A735D525D9A4213D968
:4002400001337355E8E7144A925B9A4207D94E461A00002EE1D1CBE700229146C6E74A46002AD9D01A00D8E7280000F04DFD00237355D1E720120000D4000020A801002096
:4002800084020020BC010020F40100207C020020C8010020D0010020E4000020F0000020F8B55F4656464D464446F0B462B6002000F026FF002000F015FF002000F0F6FEF6
:4002C000002000F001FF002000F028FF002000F031FF002000F050FE002000F05BFEFF2000F0BAFE4B4800F0C5FE00F05FFE142000F0B2FA142000F0AFFA00F0D9FAFFF700
:4003000039FF454B10279B46444B454C9A46002300269846404600F043FC00F09FFB051EFBD1B1465B46D144985B4B46198800F08BFD4B46424618803A4BA0539D543A4B9F
:400340009D5301239C46E04443460236062BE1D1013FFFB2002FDAD1344B354E9B46354B354D98460623994600239A4600F026FC00F074FB0028FBD1002702E00137062F4B
:400380000BD03900584600F0A1FC0028F6D038000137FFF707FF062FF3D100F0D5FC318822880023914200D98B1A2B80718862880023914200D98B1A6B80B188A2880023A0
:4003C000914200D98B1AAB80F188E2880023914200D98B1AEB80318922890023914200D98B1A2B81718962890023914200D98B1A6B814A4643465A709B78012B05D900F005
:400400001DF8434652469A70B0E7424601339370ACE7C04661010000A801002084020020BC010020C8010020D001002080000020F401002094010020E8010020F0B5474660
:4004400080B4894B082498461D7817E0002000F0A1FD012000F07CFE012000F08DFD012000F076FE013C002000F086FD6D000120E4B2EDB200F06CFE002C06D06BB2002B4E
:40048000E4DA012000F086FDE3E7002000F082FD022000F05DFE754F3E000C363D78082417E0002000F076FD012000F051FE012000F062FD012000F04BFE013C002000F00E
:4004C0005BFD6D000120E4B2EDB200F041FE002C06D06BB2002BE4DA012000F05BFDE3E7002000F057FD0137022000F031FEB742D4D15F4F3E000C363D78082417E00020D6
:4005000000F048FD012000F023FE012000F034FD012000F01DFE013C002000F02DFD6D000120E4B2EDB200F013FE002C06D06BB2002BE4DA012000F02DFDE3E7002000F08E
:4005400029FD0137022000F003FEB742D4D1494F3E000C363D78082417E0002000F01AFD012000F0F5FD012000F006FD012000F0EFFD013C002000F0FFFC6D000120E4B2D5
:40058000EDB200F0E5FD002C06D06BB2002BE4DA012000F0FFFCE3E7002000F0FBFC0137022000F0D5FDB742D4D1334B08241D7817E0002000F0EEFC012000F0C9FD012003
:4005C00000F0DAFC012000F0C3FD013C002000F0D3FC6D000120E4B2EDB200F0B9FD002C06D06BB2002BE4DA012000F0D3FCE3E7002000F0CFFC022000F0AAFD1F4F3E00ED
:4006000064363D78082417E0002000F0C3FC012000F09EFD012000F0AFFC012000F098FD013C002000F0A8FC6D000120E4B2EDB200F08EFD002C06D06BB2002BE4DA012013
:4006400000F0A8FCE3E7002000F0A4FC0137022000F07EFDB742D4D1434642461B780133137004BC9046F0BDA0010020F4010020BC010020E8010020E40100200802002080
:4006800010B500F077FD03680C2B00D0FEE7FEE7F8B5104E002E18D000200F4DA9682C686A68002905D00023E758043380C29942FAD1E9680023002903D0D05004339942A0
:4006C000FBD1013E1035002EE8D100F059FDFFF7E7FDFEE701000000741200000121104A70B513680F4C8B4313600F48002200230E4D04E00133A1500432192B08D001002C
:40070000032BF7D851590133A1500432192BF6D1FFF784FC0123024A11680B43136070BD00001040000000208106000000000000F8B50400182806D0102302009A43202A45
:4007400001D001BEF8BD072600F00CFD1B4D1C4A2B680700B3432B601A4B1B48E3181B78DBB21360194A1368B3431360184B0168E3181A787F23994313400B43036032205B
:4007800000F0E6FC182C03D8380000F0EFFCD9E723002A681C3B9B08B243334013432B60322000F0D5FC183C2B68A4083440B3431C432C60380000F0D9FCC3E7080F034081
:4007C0000C0F0340CDF1FF0F180F0340100F0340B4F1FF0F082800D901BE034B8000C318186819607047C04640000020F8B504000E00032900D901BE082C00D901BE032750
:4008000000F0B0FC3D00094B25409C46A408A40064442168ED000B0031000635AF40A940BB431943216000F0A1FCF8BD00E400E01F2318401E3B8340014A13607047C04675
:4008400000E100E01F2318401E3B8340014A13607047C04680E100E0F8B5802507002D02A84214D904000B4E706800F071FC0A4B9C466444AC42F7D8084BFB18DB0BDB038E
:400880006744FF1AB068784300F062FCF8BD014EF8E7C0466C0000200080FFFFFF7FFFFF014A024B1A6070476588EDAC38000340F8B55F4656464D464446F0B44C4B1B7841
:4008C000002B24D000F012FB00F03AFB0021002000F042FB0021002000F014FB454CFF2000F020FB402000F0F3FA2368424A072013432360FFF79CFF80222368D203134311
:4009000023603CBC90469946A246AB46F8BD3B4B0622002118009B4600F058FC0F203849384B0A68384C1A702378002603401A002378304C834313430B60344A344B083841
:400940001A60344B344A23601168344B0B40C021C9020B431360FFF775FF31490720FFF739FF03210720FFF741FF23682D4923602D4B99462D4B98462D4B9A4620E000F09A
:40098000F1FB07224346A2401B68013693431F4343461F6000F0EAFB012211004B46A9401B688B4349460B60062E1DD053460833F35C9B0053441A6A19691B6B9046994638
:4009C00053460F279D5D5B46AA00D2B29740985D0B686C00BB4306272C19E4B20B60A7400128CCD10027CAE7014B1A706AE7C046A401002004000840001008807402002052
:400A000000FF08406C02002062F1FF0F0002000108000840C008A00100000240FFFFF0FF550E0000000102400001044008010440E011000070B501210724074D0130C0B203
:400A4000062807D022000E0002409640C308EB5C1E42F3D070BDC046800000200120024B5B7818407047C046A4010020434BF0B54546984640234E46814657469A46C1442A
:400A800052464B46E0B407009B5C3D4C9B00E318E4195E6800F02AFA00F052FA207F0021013880B200F058FA2423E05C0021013880B200F027FAFF2000F034FA402000F02F
:400AC00007FA0720FFF7BEFE52462E4D07202B6813432B60FFF7ACFE0720FFF7B3FE2A482A4B026813402C22A15C0B431A00284BDB191B7C1B04134303602C68254B0720A8
:400B00001C40254B1C43FFF793FE4B461B7A99464346DF5D00F026FB82460F204B46B900C9B288409B0043441A691B6A94461268984682430420884019687B00FB1807275A
:400B4000DBB29F40B9430B0041460B60634602431A60504600F00AFB00F004FB07002C60002000F0F5FA0D4B38001E6000F0FEFA1CBC90469946A246F0BDC046E01100008D
:400B800080000020040008400800084000FF80FFA4010020FF1FDFFF200020000C0008400022054B10B55A70C2B29A7581225A70FFF75CFF10BDC046A4010020F8B500237C
:400BC000072401200F4E104D7370FF33B375B37DDBB20133DBB2062B07D02100070019408F40DA08AA5C1742F3D0B375B37D052B07D80123727813437370B07DC0B2FFF795
:400C000035FFF8BDA401002080000020F0B54746264B27491A684300CB1880B49A800F22244F3E5C3B181C7A234BB1001B5CC9B28A409C46A4003B19186975000368751992
:400C4000934303606346EDB2012B2BD00623AB40984600F087FA0722AA403C19216A0B689343424613430B6000F080FA0122B240216B07200B6893430B60FFF7E3FD0F4ACF
:400C80000F4B116807200B40A02109020B4313600C4A0D4B11680B401360FFF7C9FD04BC9046F0BD00239846D3E7C0460C000840A4010020E01100007402002004000840D1
:400CC000FF1FDFFF0800084000FF80FF02000720CB08014006388840D35C1840431E98417047C046072310B5CC081940063B8B400419DBB2002A03D122789A43227010BDC3
:400D0000227813432370FAE730B50025094B42001C5C094BD15A094B18180573981885820748D1521B19045D20201C54054BD15230BDC04620120000A8010020BC01002010
:400D4000CC000020840200202822F0B55F4656464D46444600239446F0B485B003930293344B9A46344B63449B463449029A0B0008338C5CD35C324A1B199046009363003B
:400D8000984400234746019310E04246961BB34231DB21005846FFF799FF002801D001230193009B01340237A34230D9254B21001D5D58466B0053449A8D1E8F53465B5D24
:400DC00090469946FFF782FF3B880028DDD14644B34215DB184B20229C4620236544EB5C013BDBB2AB54002BD3D11F3A21005846FFF778FFCDE7002221005846FFF772FFED
:400E00000D4B4A469C4620236544EA54C1E7019B002B01D001230393029B01330293062BA3D1039805B03CBC90469946A246AB46F0BDC046CC000020BC0100204012000015
:400E4000D0010020201200004B0018184118890888B2704770B501240720FFF7F3FC164B164E1C603078C0B2FFF7D0FE144D2B785BB2002B17DB3078C0B2FFF7DBFD3070CE
:400E80003378052B13D92B78A3432B702B785B0605D50C4B1A780C4B1A700C4B1C700720FFF7C6FC70BD2B78A3432B70F7E73078C0B2FFF7DBFDF2E714000840BA010020B6
:400EC000A50100207002002080000020E5010020044A1368002BFCDB034B00021843014B186070470000014041000080034A1368002BFCDB024A014B1A607047000001402D
:400F00004100004010B5FF24C9002140000208430721034A13680B401843106010BDC04604030140044A1368002BFCDB034B00021843014B186070470000014040000080BE
:400F4000034A1368002BFCDB024A014B1A607047000001404000004010B5FF24C9002140000208430721034A13680B401843106010BDC046000301400300022004495B00D4
:400F80000A688243D2B21840104308607047C046000304400121044A084013688B43DBB2184310607047C0460003044010B51B4A1378002B1DD1C0210C20194B89001960C1
:400FC0001849086018490A3808601848184908601B689B039B0F012B1DD0591E8B4115498C46634414490B600021144B19600123137000F0B7F80123114A11680B43136036
:4010000000F0B4F800F0AEF880220E4B52041A6000F0ACF810BD0C4BE4E7C046E6010020000105402401054038010540A60E000014010540A50E00000C0105400801054094
:401040000000054008000540A70E0000014B18607047C04630010540044A1368002BFCDB034B00021843014B18607047000001404200008010B58024084B64001C60084B4F
:40108000186600F06FF8C023064A11680B43136000F06CF8044B1C6010BDC04680E100E00000002008E400E000E100E00300402004499B010A688243D2B2184010430860F4
:4010C0007047C046000104400300402004499B010A688243D2B21840104308607047C046000004400300202004495B010A688243D2B21840104308607047C0460000044018
:401100000300042004499B000A688243D2B21840104308607047C046000004400121044A084013688B43DBB2184310607047C046000004400300022004495B000A68824373
:40114000D2B21840104308607047C046000004400230800804D0C0460138FDD1C046C046C0467047EFF3108072B6704780F310887047C046014B18687047C0467001002040
:401180000E4B70B500251E000D4CE41AA410A54204D0AB00F35898470135F8E700F058F8084B00251E00084CE41AA410A54204D0AB00F35898470135F8E770BD5C120000A2
:4011C0005C1200005C1200006412000003008218934202D019700133FAE77047000000000401020500030000010101010101000000000240000102400002024000030240E1
:401200000800044008010440080204400803044000000440000104400002044000030440000102030405000010000000020000000400000020000000010000000800000014
:4012400000010203040500000101010101014300F8B5C046F8BC08BC9E46704729010000DD060000F8B5C046F8BC08BC9E4670470101000088120000680000201001000048
:401280001801000000000000000000000100000000007017E02E00000C000000001BB7003F0000000000FF070000FF0F0000FF0F0000FF070000FF070000FF070202020226
:4012C00002020000020202020202000015181513131100000801044008010440080104400801044008010440080104400808141408080000140014001400140014001400D7
:40130000010000001E001E001E001E001E001E0032323232323200002D00550041003200370032000500050005000500050005000000000000000000000000000000000050
:40134000000000000000000000000000000000004E12000000000000000000000000000000000000000000000000000000000000000000000000000000000000000000000D
:4013800000000000000000000000000000000000100100200000000000000000000000000000000000000000000000000000000000000000000000000000000000000000FC
:4013C00000000000000000000000000000000000000000000000000000000000000000000000000000000000000000000000000000000000000000000000000000000000ED
:4014000000000000000000000000000000000000000000000000000000000000000000000000000000000000000000000000000000000000000000000000000000000000AC
:40144000000000000000000000000000000000000000000000000000000000000000000000000000000000000000000000000000000000000000000000000000000000006C
:40148000000000000000000000000000000000000000000000000000000000000000000000000000000000000000000000000000000000000000000000000000000000002C
:0200000490303A
:0200000020BD21
:0200000490402A
:200000000000000000000000000000000000000000000000000000000000000000000000E0
:0200000490501A
:0C00000000020A48119A00000A4E325714
:0200000490600A
:0100000001FE
:00000001FF