:400000000008002011000000290C0000290C000010B500F077FF00F00FFEC04670B572B6EE220024264B12021A60264B264A1C60972326491360264A264D1160264A18207A
:400040001360FF22254B1A609022254B12011A60F322244B1A600123234A1360234A13600722234B1A60234BB032FF321A6011232B6000F053FE204B204A1C60204B21493F
:400080001A60FE2212020A601F4919601F490A601F4A1A601F4A14601F4A1A6004221F4B1A601F4B3E321A601E4B023A1A601E4B01321A601D4B02321A602C6070BDC0466A
:4000C000000102400003024000000440000C1B00080004403000104018000440000104400801044018010440000204401802044000030440080304400803014042FF0080AF
:40010000000001400003014040FF00800403014041FF00800C03014043FF0080280003400C01014008010140040101400001014010B5064C2378002B07D1054B002B02D0D4
:40014000044800E000BF0123237010BD10020020000000000C2A0000084B10B5002B03D00749084800E000BF07480368002B00D110BD064B002BFBD09847F9E700000000CA
:40018000140200200C2A0000680000200000000010B5022002F048F80122264B26491A705A688A4201D801325A601A7A012A3CD0DA6822498A4214D9197C0022012916D059
:4001C000197E5A610022012918D05A831A7F012A1BD000225A779A7F012A1ED000221A8410BD197C0132DA6000220129E8D15A69197E01325A6100220129E6D15A8B0132D1
:4002000092B25A831A7F012AE3D15A7F7C2AE2D801325A779A7F012AE0D197211A8C89008A42DDD801321A84DAE70022DA601A72C2E7C0462C020020D9070000B904000077
:4002400010B500F08BFE01F09FFC00F06FFE044B1B889A00D318DB00181800F05BFE10BD3A030020F8B55F4656464D464446464BF0B49946454B464F464E00259A469B46A4
:400280000DE0E0000A2102F00DFA404522D801239C46013502370436E1440B2D4BD034683B886000001980000A21984602F0FAF98045E6D9280001F0ADF85B465B5D9842EC
:4002C0003FD034683B88E0000A21984602F0EAF94045DCD9280001F09DF853465C5D8046E00000190301181A642102F065FA8045CDD12100280001F095F84B462800197859
:4003000001F07AFA4B461C78280001F06DFA013C211A89B2280001F077FA280001F0BAF8052000F0ADFD01239C46013502370436E1440B2DB3D13CBC90469946A246AB46D6
:40034000F8BDC30018180301181A642102F034FA0100280001F066F84B461B7864219800C0180301C01802F027FA81B2280001F043FA4B461B7864219800C0180301C018FC
:4003800002F01AFA84B2BFE7FC0200202C030020940200206C00002010B50400084B1880084B198001F0E2FB074800F0B3FD200000F0C4FD00F0A0FD00F0D8FD10BDC04659
:4003C000380300203A030020FFFF000010B514210520FFF7E1FFFEE7F0B55F4656464D464446F0B487B062B60024002001F068FF002001F057FF002001F046FF002001F00D
:4004000025FC002001F030FCFF2001F013FFDB4801F01EFF01F0B8FED94B03211A001F209B4601F0EDFC01F02BFC14210120FFF7B3FF01F0AFFBD3480622D3492C3001F0AB
:40044000ABFBD24ED24D200000F0E4FF3055200001F0C2F9285501340B2CF4D1142000F00FFD142000F00CFD00F0A8FD20230193C84B9846C84B9A46C84B994600250026BB
:40048000300000F011FF00F06DFE0028FBD143460400585B53465F19398801F0B3FAC04B38805853BF4B9C554B4601365C5302350B2EE5D1019B013BDBB20193002BDDD135
:4004C000B94F2323FC5C002C49D13B78012B00D17CE3BB7F012B00D1E8E1B44BFA689A4200D9C5E1B24A1378002B00D0F8E101F075FC0307E5D50521AD4B012219705B4659
:4005000058463A7219785B788078CB18DBB2984200D13BE32223F95C002900D0D1E15A46EB230320A34E13703378537072780240584682705C46C1700171A17120217A33E3
:40054000D318E37204202323E17105312172203961723C316071A172FC5C002CB5D000F0FDFC2323FB5C002BB3D0934B924A1C881B78924813806423914A0125138001F092
:40058000DBFA00F0D3FC8E4B1B889A00D318DB00181800F0BFFCE0B200F0D0FC00F0ACFC00F0E4FC00F046FF00F08EFC00F062FF25230022FA54834B7E4E9A460A2000F0EE
:4005C00073FE00F0CFFD0028FBD10A3000F0C6FF0A2001F027F9534600241870200000F063FE00F0BFFD0028FBD1200000F0B6FF2000013401F016F90A2CEFD171783278B7
:400600008B082B40154201D00133DBB2900701D50133DBB2012B00D81CE12223FD54002A00D021E1002900D01EE100222223FA5453461B78002B3BD05F4B5F4A1C881B7879
:40064000138001F093FA604800F064FCE0B200F075FC002400F050FC00F088FC01F010FB23230020FC54FC60BD7701F0E1FAFF2001F0E0FD414801F0EBFD01F085FD962024
:40068000800000F0FDFB24230020FC542434052101F0C2F8385D0130C0B238550A28F6D90721022001F0B8F80721032001F0B4F82522BB5C0133DBB2BB54022B00D87DE7C2
:4006C00043461A88414BCD3A92B29A4200D945E200223A7642465288CD3A92B29A4200D93CE242469288CD3A92B29A4200D935E24246D288CD3A92B29A4200D92EE2424697
:400700001289CD3A92B29A4200D927E242465289CD3A92B29A4200D920E242469289CD3A92B29A4200D919E24246D289CD3A92B29A4200D912E24346E6221B8AD200673B91
:400740009BB2934200D909E243465B8A673B9BB2934200D902E243469B8A1C4ACD3B9BB2934200D9FAE10023FB844A46184B11881A88914200D9FEE12CE0C04691010000B3
:400780000C0300206C000020C03F00002C030020FC020020680200205C030020B802002094020020AC0200202C020020AF04000008030020DC0200203803002041020000E3
:4007C0003A03002007030020FFFF0000640E0000400100204A4651885A88914200D9CAE14A4691889A88914200D9C4E14A46D188DA88914200D9BEE14A4611891A899142AD
:4008000000D9B8E14A4651895A89914200D9B2E14A4691899A89914200D9ACE14A46D189DA89914200D9A6E14A46118A1A8A914200D9A0E14A46518A5A8A914200D99AE1C2
:400840004A469B8A928A9A4200D994E10023BB623B7436E6002A02D1002900D1E5E62223FB5C002B00D1E3E60023524613701FE7012223230024FA54013BFC54BC7701F080
:4008800017FA012001F0D4F90A20062100F0C4FF24230020FC542434032100F0BDFF385D0130C0B238550928F6D920E696233A8C9B009A4200D810E60023BB7700F010FE83
:4008C0000BE6EB235A4659461370C24A584613784B70032152780A4059468A70002129E6013B137000F0EEFC00F03CFC0028FBD1FFF7B8FC00F0BAFE01F004F84B461E881B
:40090000C82E04D90121B44A13788B4313704B465D88C82D04D90221AF4A13788B4313704B469C88C82C04D90421AB4A13788B4313704B46D888C82804D90821A64A1378CA
:400940008B4313704B461B890193C82B04D91021A14A13788B4313704B465A89C82A06D99D4B20219C461B788B4361460B704B469B890293C82B06D9974B40219C461B78EE
:400980008B4361460B704B46DB890393C82B06D9914B7F219C461B780B4061460B704B461B8A0493C82B06D98B4B01219C465B788B4361464B704B465B8A0593C82B06D930
:4009C000854B02219C465B788B4361464B704B469B8A9A46C82B06D97F4B04219C465B788B4361464B707D4B1988B14200D219E15E88AE4200D215E19D88A54200D211E14D
:400A0000DC88844200D20DE118890199884200D208E15989914200D204E19A8902998A4200D2FFE0DA8903998A4200D2FAE01A8A04998A4200D2F5E05A8A05998A4200D21A
:400A4000F0E09B8A53459B415B423B747A69644B9A4200D98DE043461A88624BCD3A92B29A4200D9C9E000223A7642465288CD3A92B29A4200D9C0E042469288CD3A92B2CB
:400A80009A4200D9B9E04246D288CD3A92B29A4200D9B2E042461289CD3A92B29A4200D9ABE042465289CD3A92B29A4200D9A4E042469289CD3A92B29A4200D99DE0424637
:400AC000D289CD3A92B29A4200D996E04346E6221B8AD200673B9BB2934200D98DE043465B8A673B9BB2934200D986E043469B8A3C4ACD3B9BB2934200D97EE0384B7A8B85
:400B00009A4236D80424344E71780C4023005A1E93413278DBB2D00701D50133DBB2900701D50133DBB2012B6AD922230120F854213B002A08D100296ED100202223F85411
:400B4000244B1A70597000237A7F4F2A4CD8002C5FD0002B5DD101333B77C8E401232C223B76FB8CFF3201339BB2FB84934200D8FBE5FFF72BFC01223A742C22BB6AFF32BA
:400B80000133BB62934200D89BE4F2E70A4200D1C0E423230024FA54013BFC54BC7701F087F8012001F044F80A20062100F034FE24230020FC542434032100F02DFE385D93
:400BC0000130C0B238550928F6D9A3E400F0C6F93C70C6E4F8020020DC020020400100206F300000640E0000772A17D9002C15D1012001F01DF83C7779E401233B767DE79C
:400C0000002A01D1002998D02223FB5C002B9BD196E700233B776AE4012395E7002001F007F864E4012310E710B501F0B1FE03680C2B00D0FEE7FEE7F8B5104E002E18D07F
:400C400000200F4DA9682C686A68002905D00023E758043380C29942FAD1E9680023002903D0D05004339942FBD1013E1035002EE8D101F093FEFFF7AFFBFEE70100000021
:400C8000D02A00000121104A70B513680F4C8B4313600F48002200230E4D04E00133A1500432192B08D00100032BF7D851590133A1500432192BF6D1FFF7B0F90123024A13
:400CC00011680B43136070BD0000104000000020290C0000000000008021034A090613680B4313607047C04630000340024A13685B005B08136070473000034010B5040094
:400D000001F0F8FA032304490A689A43234013430B6001F0F3FA10BD28000340F8B50400182806D0102302009A43202A01D001BEF8BD072601F0DEFA1B4D1C4A2B6807000E
:400D4000B3432B601A4B1B48E3181B78DBB21360194A1368B3431360184B0168E3181A787F23994313400B430360322001F0B8FA182C03D8380001F0C1FAD9E723002A680D
:400D80001C3B9B08B243334013432B60322001F0A7FA183C2B68A4083440B3431C432C60380001F0ABFAC3E7080F03400C0F0340CDF1FF0F180F0340100F0340B4F1FF0FA9
:400DC00010B5040001F096FAA3000C24044923400A68A24313430B6001F090FA10BDC04628000340082800D901BE034B8000C318186819607047C04640000020F8B504001D
:400E00000E00032900D901BE082C00D901BE032701F070FA3D00094B25409C46A408A40064442168ED000B0031000635AF40A940BB431943216001F061FAF8BD00E400E05A
:400E40001F2318401E3B8340014A13607047C04600E100E01F2318401E3B8340014A13607047C04680E100E01F2318401E3B8340014A13607047C04680E200E001BE704725
:400E8000F8B5802507002D02A84214D904000B4E706801F025FA0A4B9C466444AC42F7D8084BFB18DB0BDB036744FF1AB068784301F016FAF8BD014EF8E7C046A000002087
:400EC0000080FFFFFF7FFFFF10B501F013FA074B074A1B889BB213600423064A11680B43136030BF01F00AFA10BDC04652F1FF0F0400034010ED00E00022014B1A607047B3
:400F000038000340014A024B1A6070476588EDAC38000340044A00041368000C1B0C1B04184310607047C04640000340024B18680004000C7047C04640000340F02110B54F
:400F4000044C0204044B206809030A4003401A43226010BD40000340FFFFF0FF0123024A11680B4313607047440003400123024A11680B43136070474C00034010B500F002
:400F800095FD00F0BDFD0021002000F0C5FD0021002000F097FDFF2000F0A4FD402000F077FD044A0449136807200B431360FFF747FF10BD0400084000100880F8B55F468C
:400FC00056464D464446F0B44C4B1B78002B24D000F06CFD00F094FD0021002000F09CFD0021002000F06EFD454CFF2000F07AFD402000F04DFD2368424A07201343236043
:40100000FFF71EFF80222368D203134323603CBC90469946A246AB46F8BD3B4B0B22002118009B4601F0E9FC0F203849384B0A68384C1A702378324D03401A002378364C9D
:40104000834313430B60354A354B08381A60354B00262B602268344B1340C022D20213432360FFF7F7FE31490720FFF7BBFE03210720FFF7C3FE2B6821002B602C4B994642
:401080002C4B98462C4B9A4620E001F033F907224346A2401B68013693431F4343461F6001F02CF9012211004B46A9401B688B4349460B600B2E1DD053460C33F35C9B00E2
:4010C00053449A6A99699B6B9046994653460F279D5D5B46AA00D2B29740985D0B686C00BB4306272C19E4B20B60A7400128CCD10027CAE7014B1A706AE7C04664020020AC
:4011000004000840001008804403002000FF08403C03002062F1FF0F000002400002000108000840C008A001FFFFF0FF111A00000000044008000440102A000070B5012136
:401140000724074D0130C0B20B2807D022000E0002409640C308EB5C1E42F3D070BDC046B40000200120024B5B7818407047C04664020020434BF0B54546984648234E4648
:40118000814657469A46C14452464B469B5C3E4C9B00E0B4E31807005E6800F087FC00F0AFFC3023E419E05C0021013880B200F0B3FC3C23E05C0021013880B200F082FCEB
:4011C000FF2000F08FFC402000F062FC0720FFF741FE40232D4D07202A6813432B60FFF72FFE0720FFF736FE29482A4B026813405246A15C0B431A00274BDB191B7F1B04A1
:40120000134303602C68254B07201C40244B1C43FFF716FE4B461B7B99464346DF5D01F069F882460F204B46B900C9B288409B0043449A699B6A94461268984682430420B0
:40124000884019687B00FB180727DBB29F40B9430B0041460B60634602431A60504601F04DF801F047F807002C60002001F038F80C4B38001E6001F041F81CBC9046994608
:40128000A246F0BD102A0000B4000020040008400800084000FF80FF64020020FF1FDFFF200020000C000840002210B5044BC1B25A70273299545A325A70FFF75BFF10BD2F
:4012C00064020020F8B50023FF2207240120104E104D73702733F254F35CDBB20133DBB20B2B07D02100070019408F40DA08AA5C1742F3D02722B354B35C0A2B07D8012358
:4013000071780B437370B05CC0B2FFF733FFF8BD64020020B4000020F0B54746264B27491A684300CB1880B49A800F22244F3E5C3B181C7B234BB1001B5CC9B28A409C46F0
:40134000A4003B199869750003687519934303606346EDB2012B2BD00623AB40984600F0C9FF0722AA403C19A16A0B689343424613430B6000F0C2FF0122B240A16B0720B6
:401380000B6893430B60FFF765FD0F4A0F4B116807200B40A02109020B4313600C4A0D4B11680B401360FFF74BFD04BC9046F0BD00239846D3E7C0460C00084064020020F5
:4013C000102A00004403002004000840FF1FDFFF0800084000FF80FF02000720CB08014006388840D35C1840431E98417047C046072310B5CC081940063B8B400419DBB2A3
:40140000002A03D122789A43227010BD227813432370FAE7024B18184823C05C7047C046B4000020024B18184823C1547047C046B40000200C4B10B51B68002B02DA012288
:401440000A4B1A700720FFF705FD074A084B11680B40136013685B005B08136000F026FB00F04EFB10BDC0460400084090020020FFEFF7FF10B5FF2000F00AFBFF2000F000
:4014800031FB034B1B78002B01D0FFF777FD10BD9002002070B50400FFF706FFFFF762FE0028FBD1094B62001D5D094BD15A094B1C1920769C18A0840748D152445D3C20B7
:4014C0005B191C54054BD15270BDC046582A00006802002094020020340100205C030020F8B55F4656464D464446174BF0B49B46164B00259A46164B00249946154B3C274D
:401500009846154E2000FFF7CFFEFFF72BFE0028FBD131001831605431005B462431685248461A5D5346B118825C5B5BCA55424601347353535302350B2CE3D13CBC904632
:401540009946A246AB46F8BD582A000068020020340100205C03002094020020F0B54D465F46444656463B4BF0B41B5C3A4D99465B009B46EB189B8941009C46374B5B5AA1
:4015800098462223EA5C4346002A08D04246344C635AD2185B009B189B089BB26352314A575A9F4223D80024A04646462E4C26540126B046DC1BA4B2A44537D31518A946CA
:4015C0002D7E3E023543ED1B5B191D0A55524D462B760025244B1D54A44533D30025521895843CBC90469946A246AB46F0BD5E46AE19FC1AB68CA4B2A64220D23C261A4C80
:401600002F18235CBF5D9F4221D843465352002317189C463B764B464F46ED5C4346D719BD550F4D6B5263462354D7E75D44AD8CA54207D946462500002ED0D1BEE70026FE
:40164000B046B9E74346002BC8D02500C7E701332354C3E7582A000034010020680200205C0300209402002050030020F0B54D4644465F465646F0B4504B85B09946504B66
:40168000504E00250024504F984604E00134023501360B2C57D021003800FFF79DFE0028F4D04A4B1B5D9A465B000193019A4B46944663449B894A460393454B5B5B9C4610
:4016C0002223D25C6346002A09D06046414AAA181388C0185B001B189B089BB213804246505B98423FD8002232701A1A92B20292012292460299039A8A4208D2019A4A445E
:40170000918C029A914225D95246002A25D1182242449446A25C010211434246081A1B18190A51536246A3540023029A3370039B93420FD34346002224330134EA520136D4
:4017400002350B2CA7D105B03CBC90469946A246AB46F0BD5346002BECD06A46434612892433EA5292E7C21A92B211000292019A9346CB445A46928C93468B4518D24A4612
:401780003C323378A25C9A4215D8434662465A53424600231832A35450464A464146105C3C225144885461460A4A33705153C1E7002292469FE701333370BBE7340100205F
:4017C0009402002050030020B4000020582A0000680200205C030020024B400018184823C05A704734010020024B400018186023C05A704734010020024B40001818482385
:40180000C152704734010020024B4000181881817047C04634010020014B19547047C04634010020F0B544465F4656464D46314AF0B42432904648222F4B83B01C5C1818E0
:40184000037B94461B19009363009844002301932A4B47469A46274B6344994610E04246961BB34232DB21004846FFF7B5FD002801D001230193009B01340237A34231D94E
:4018800048221F4B21001D5D48466B0053449A5A904660229E5A53465B5D9B46FFF79CFD3B880028DBD14644B34214DB114B3C229C466544AB5C013BDBB2AB54002BD2D13D
:4018C0003B3A21004846FFF793FDCCE7002221004846FFF78DFD074B5A469C463C236544EA54C0E7019803B03CBC90469946A246AB46F0BD94020020902A00003401002035
:40190000582A0000F0B55F4656464D4644460023F0B485B003930293354B9B463549029A0B000C338C5CD35C334A1B19904648220093630098440023944601932F4B4746C4
:401940006344994610E04246961BB34232DB21004846FFF741FD002801D001230193009B01340237A34231D94822254B21001D5D48466B005B449A5A904660229E5A5B4638
:401980005B5D9A46FFF728FD3B880028DBD14644B34214DB194B3C229C466544AB5C013BDBB2AB54002BD2D13B3A21004846FFF71FFDCCE7002221004846FFF719FD0F4B65
:4019C00052469C463C236544EA54C0E7019B002B01D001230393029B013302930B2B9DD1039805B03CBC90469946A246AB46F0BD34010020902A0000B80200209402002002
:401A0000582A00004B0018184118890888B2704770B501260720FFF71DFA174B174D1E602878C0B2FFF778FC154C23785BB2002B19DB2878C0B2FFF781FB28702B780A2B72
:401A400015D92378B343237023785B0607D502220C490D4800F0C8FF02220C4B1A700720FFF7EEF970BD2378B3432370F7E72878C0B2FFF77FFBF2E7140008408B0200205B
:401A80006502002040030020B4000020DE020020044A1368002BFCDB034B00021843014B186070470000014041000080034A1368002BFCDB024A014B1A60704700000140A1
:401AC0004100004010B5FF24C9002140000208430721034A13680B401843106010BDC04604030140044A1368002BFCDB034B00021843014B186070470000014040000080F3
:401B0000034A1368002BFCDB024A014B1A607047000001404000004010B5FF24C9002140000208430721034A13680B401843106010BDC0460003014010B51024074B1C600E
:401B4000074B186500F0D6FBC023064A11680B43136000F0D3FB044B1C6010BD80E100E00000002004E400E000E100E01022034B1A60034A034B1A657047C04680E100E016
:401B8000290C0000000000201022014B1A60704780E200E07047C046F0B55F464D46444656468023F0B490468A18814691B00F00DB0101209A4231D88B041B0E9A46434646
:401BC0008C0B24025444A401002B2ED06B46EB4600251E1B2200403208E0A84508D94B465B5D013533550134944207D0A742F4D92378DBB2335501349442F7D150465946E1
:401C000000F080FB01239C46E244454502D2403E0028DFD0012801D90120404211B03CBC90469946A246AB46F0BD0020F6E7C0460300042004499B000A688243D2B218409B
:401C4000104308607047C046000304400300022004495B000A688243D2B21840104308607047C046000304400121044A084013688B43DBB2184310607047C04600030440A9
:401C800010B5094C2378002B03D100F045F8012323708021054A0906136805200B431360FFF7CEF810BDC046E00200200000064010B50520FFF7CEF800F08AF8054A0520C9
:401CC00013685B005B0813600022034B1A60FFF7CBF810BD00000640880F064080220A4B5200196811420AD008490968490406D4186807490140196019680A431A600222CF
:401D0000044B1A607047C0460000064060000640FFFEFFFF6C00064010B50024184B194A1C60194B19491A60194B1A4A05201360194A1460194A1160194A1360194B1C6058
:401D4000FFF788F803210520FFF758F816490520FFF748F85222154BFF321C60144B1A600022144B1C60144B1C60144B1C60144B1C70144B1C70144B1C80144B1A7010BD10
:401D80000000064000080040600006409E00FE00070100800003064004030640100306400002064004020640311E0000880E0640480F0640080F0640C80F0640880F064029
:401DC000780300207C03002076030020740300200022014B1A7070477803002010B50520FFF738F81F21054B05201C781A78E4B28A431A70FFF724F8200010BD7C030020B9
:401E000070B506000D00141E0BD00520FFF722F8044B05201C60044B1E80044B1D80FFF70FF870BD80030020840300207A030020F8B54F464646B54BC0B41B68002B00D08E
:401E40009847B34BB34D1E68B34B2C881F680223FF3333402DD02021B04A13685B005B081360AF4B1A788A431A70102219780A431A70AC4A1268D20600D48DE0022219785D
:401E80000A431A70A84AA94B11680B40136000238021A74A09061360A24A1360A54A13709E4A13680B4313602C800CBC90469946F8BDFA0601D5A04A13600A233B424CD12A
:401EC00002231F40002F1AD0F30614D50023984A1360944A1360994B1A780A23944200D1F8E08F4A334011780B4320218B4313700022904B1A70730658D4854B1E60864B78
:401F00001B685B07D0D58E4B8E4E98461A888E4BFF271B688D489C4600230F2199460DE063461B191B78013ADBB23360012399460368013492B20B40082B06D0002AEFD19A
:401F4000376003680B40082BF8D14B46002B00D0D9E010227E4B1A60A6E77E4B1B685B074FD57D4B73491A680B78002B00D191E0012B7BD1724988460988002900D1ABE0F2
:401F80007648D2B20360704B01391B681B191A704346013419806CE0684A1278A24200D170E7082219780A431A706BE720235C4A11780B431370614B1C78694B1A6810238B
:401FC00013424FD08020674A5D4912884002121B0A80654A1168014311601068634901401160504A13600122614B62491A60484B196010236049086803430B60574B1A600A
:402000007BE7494A13689B0400D459E702231F4033D14B4B1988083989B2198008295ED800296ED000239846474B4B489C466118634602681B68D2B21B1901341A708C427F
:40204000F6D14346002B09D18020374A000213680C00034313600022354B1A600C22474B1A602FE70422324B1A60BCE70020FEF705FF0422414B1A6022E70F21404B1B68F0
:4020800010681940294B03401360012398460029CAD1E3E73348008882421DD201242F4804603848008882421DD2801A244C80B22080072819D908281AD080201A49800189
:4020C0000B6803430B600821194B19601B4B14001A70CEE7083B04E7FFF700FEC9E7012308219846A0E71648038001230B70EDE7A0240D4824020168214301600C490B60F8
:40210000E4E72100A0E743461A8022E7E4020020400F064076030020000E0640000006407C030020880F064060000640FF5FFFFFC80F064078030020880E06407403002089
:40214000E8020020400206408003002008020640800F0640CC0F0640400306406C000640640006408403002004020640FFFFFEFF800E0640FF0F0000480F0640C00F06407D
:40218000080306407A03002010B51B4A1378002B1DD1C0210C20194B890019601849086018490A3808601848184908601B689B039B0F012B1DD0591E8B4115498C466344F5
:4021C00014490B600021144B19600123137000F091F80123114A11680B43136000F08EF800F088F880220E4B52041A6000F086F810BD0C4BE4E7C046EA02002000010540DF
:402200002401054038010540A60E000014010540A50E00000C010540080105400000054008000540A70E0000014B18607047C04630010540044A1368002BFCDB034B0002FC
:402240001843014B18607047000001404200008010B58024084B64001C60084B186600F049F8C023064A11680B43136000F046F8044B1C6010BDC04680E100E0000000204D
:4022800008E400E000E100E00300402004499B010A688243D2B21840104308607047C046000004400300202004495B010A688243D2B21840104308607047C04600000440BB
:4022C000030008200449DB000A688243D2B21840104308607047C04600000440000000000230800804D0C0460138FDD1C046C046C0467047EFF3108072B6704780F31088FC
:402300007047C046F0B556465F464D4644460023F0B495B0009306000193FF2800D9EDE0002900D1EAE0402202AD04A800F05CFBA9680B000F005A1E9341EA685B00174391
:40234000002A00D0E4E01C000A000F003B0029690B43002902D004241F0052183B0069690B43002900D0F7E039000800AF6913003843002F02D006240100D3190F00E86919
:402380000743002800D0E4E01A000F003800296A0843002900D0D8E01300390008006F6A1A003843002F02D009240100DA190F00A86A0743002800D0C4E013000F003800E2
:4023C000E96A0843002900D0B8E01A00390008002F6B13003843002F02D00C240100D3190F00686B0743002800D0A4E01A000F003800A96B0843002900D098E013003900E8
:402400000800EA6B1043002A00D08CE01A0008002B6C1843002B00D081E013006A6C10000843002A01D011240100D318002B00D071E0002900D16FE0A200AF58AB50012359
:4024400098468C4B8C4902933F238C4A6B608C4B1D601160C0461A68120F0F2A04D01A68120F0A2A00D17BE0FF221B6813400093009B9946002B43D1FFF73CFF814B8346B3
:402480001A68814B9A4651461A60804B1B68DB0FDB074B607E4B1B689B0018338B60494601910199002900D1C0E0009B002B17D1784A31040292029A77480A4302926F4979
:4024C0006F4A15600860C0461168090F0F2903D01168090F0A2902D01368FF2213400093009B9946002B02D14346002B58D1019B002B37D05846FFF701FF01E0042300933A
:40250000009815B03CBC90469946A246AB46F0BD03248A181AE700239846002791E71024D31801007AE70F249A1801006FE753180E24010064E70D241A1859E75A180B24B7
:40254000010044E70A24131839E753180824010024E707241A1819E752180524190004E7002384E753469868302855D0FEF7D6FB534603201B681840FEF7C0FB5246414B4A
:4025800012681A6053465B68002B01D1FEF7AEFB00230193019B002BACD0019B0093A9E74022002104A800F028FA324BA4002F5102933F2330496B60304A314B1D60116076
:4025C000C0461A68120F0F2A03D01A68120F0A2A03D0FF221B681A4091464B460093009B002B00D083E72D4A36040292029A2C4816432249224A029615600860C04611680A
:40260000090F0F2903D01168090F0A2902D01368FF22134000936AE7032210001B681840AAD11B091340012BA6D1B1E7302B06D12D3B134203D112091A40012A16D0022066
:40264000FEF7BEFB53469B68302B02D03020FEF765FBFEF741FB0020FEF750FB302209490B6893431A00102313430B60002300931BE7C046B6D7000004000080040010408F
:402680000800104028000340EC02002030000340080F0340B6D8000005000080B6D9000006000080002243088B4274D303098B425FD3030A8B4244D3030B8B4228D3030CF2
:4026C0008B420DD3FF22090212BA030C8B4202D31212090265D0030B8B4219D300E0090AC30B8B4201D3CB03C01A5241830B8B4201D38B03C01A5241430B8B4201D34B0355
:40270000C01A5241030B8B4201D30B03C01A5241C30A8B4201D3CB02C01A5241830A8B4201D38B02C01A5241430A8B4201D34B02C01A5241030A8B4201D30B02C01A524162
:40274000CDD2C3098B4201D3CB01C01A524183098B4201D38B01C01A524143098B4201D34B01C01A524103098B4201D30B01C01A5241C3088B4201D3CB00C01A52418308F3
:402780008B4201D38B00C01A524143088B4201D34B00C01A5241411A00D20146524110467047FFE701B5002000F0F0F802BDC0460029F7D076E7704703460B437FD400225F
:4027C00043088B4274D303098B425FD3030A8B4244D3030B8B4228D3030C8B420DD3FF22090212BA030C8B4202D31212090265D0030B8B4219D300E0090AC30B8B4201D3B6
:40280000CB03C01A5241830B8B4201D38B03C01A5241430B8B4201D34B03C01A5241030B8B4201D30B03C01A5241C30A8B4201D3CB02C01A5241830A8B4201D38B02C01A22
:402840005241430A8B4201D34B02C01A5241030A8B4201D30B02C01A5241CDD2C3098B4201D3CB01C01A524183098B4201D38B01C01A524143098B4201D34B01C01A5241E4
:4028800003098B4201D30B01C01A5241C3088B4201D3CB00C01A524183088B4201D38B00C01A524143088B4201D34B00C01A5241411A00D201465241104670475DE0CA0F5C
:4028C00000D04942031000D34042534000229C4603098B422DD3030A8B4212D3FC22890112BA030A8B420CD3890192118B4208D3890192118B4204D389013AD0921100E0FC
:402900008909C3098B4201D3CB01C01A524183098B4201D38B01C01A524143098B4201D34B01C01A524103098B4201D30B01C01A5241C3088B4201D3CB00C01A524183083E
:402940008B4201D38B00C01A5241D9D243088B4201D34B00C01A5241411A00D20146634652415B10104601D34042002B00D54942704763465B1000D3404201B5002000F037
:4029800005F802BD0029F8D016E770477047C046014B18687047C0460C0200200E4B70B500251E000D4CE41AA410A54204D0AB00F35898470135F8E700F078F8084B0025F9
:4029C0001E00084CE41AA410A54204D0AB00F35898470135F8E770BDB82A0000B82A0000B82A0000C02A0000002310B59A4203D0CC5CC4540133F9E710BD03008218934227
:402A000002D019700133FAE770470000000000000200070001040506000701000000000101010101020100000000024000010240000202400003024008000440080104409F
:402A4000080204400803044000000440000104400002044000030440000102030405060708090A0004000000010000008000000001000000020000001000000020000000B4
:402A800040000000010000008000000002000000000102030405060708090A0001010101010101010101014300000000F8B5C046F8BC08BC9E46704759010000850C00001D
:402AC000F8B5C046F8BC08BC9E46704731010000E02A000068000020A80100007801000000000000920900007409000074090000BA09000088090000A6090000A6090000E3
:402B0000A6090000E2040000E204000060090000EB042025054100000100000000007017E02E00000C000000001BB700FF0700000000FF0F0000FF0F0000FF0F0000FF0F85
:402B40000000FF0F0000FF0F0000FF0F0000FF0F0000FF070000FF070000FF0F0202020202020202020202000404040404040404040404001C22131415181616110F1F00C4
:402B80000800044008000440080004400801044008010440080104400801044008010440080204400801044008000440050507070505050505050500290020002F002F00E7
:402BC0002B0029002C002E001A001B00200001001E001E001E001E001E001E001E001E001E001E001E0000003232323232323232323232003A002E00430043003E003B00FA
:402C00003F004100250027002D0000000500050005000500050005000500050005000500050000000000000000000000000000000000000000000000000000000000000064
:402C400000000000A72A0000000000000000000000000000000000000000000000000000000000000000000000000000000000000000000000000000000000000000000083
:402C800000000000AC010020000000000000000000000000000000000000000000000000000000000000000000000000000000000000000000000000000000000000000047
:402CC00000000000000000000000000000000000000000000000000000000000000000000000000000000000000000000000000000000000000000000000000000000000D4
:402D00000000000000000000000000000000000000000000000000000000000000000000000000000000000000000000000000000000000000000000000000000000000093
:402D40000000000000000000000000000000000000000000000000000000000000000000000000000000000000000000000000000000000000000000000000000000000053
:402D80000000000000000000000000000000000000000000000000000000000000000000000000000000000000000000000000000000000000000000000000000000000013
:403FC000EB04202505410000000000000000000000000000000000000000000000000000000000000000000000000000000000000000000000000000000000000000000047
:0200000490303A
:020000006A751F
:0200000490402A
:200000000000000000000000000000000000000000000000000000000000000000000000E0
:0200000490501A
:0C00000000020A48119A00000A567C0F0A
:0200000490600A
:0100000001FE
:00000001FF