:400000000008002011000000810700008107000010B500F0D7FC00F0BBFBC04670B572B6EE220024264B12021A60264BD8211C609F23254A49031360244A254D1160254A2D
:4000400018201360BF22244B1A60244A244B1A60B322244B1A600123234A1360234A13600722234B1A60234BB032FF321A6011232B6000F0DDFB204B204A1C60204B214959
:400080001A60FE2212020A601F4919601F490A601F4A1A601F4A14601F4A1A6004221F4B1A601F4B3E321A601E4B023A1A601E4B01321A601D4B02321A602C6070BDC0466A
:4000C00000010240000302400000044008000440300010401800044000010440000918000801044018010440000204401802044000030440080304400803014042FF0080B5
:40010000000001400003014040FF00800403014041FF00800C03014043FF0080280003400C01014008010140040101400001014010B5064C2378002B07D1054B002B02D0D4
:40014000044800E000BF0123237010BDB001002000000000201A0000084B10B5002B03D00749084800E000BF07480368002B00D110BD064B002BFBD09847F9E70000000027
:40018000B4010020201A0000680000200000000010B5022001F098FB0122264B26491A705A688A4201D801325A601A7A012A3CD0DA6822498A4214D9197C0022012916D064
:4001C000197E5A610022012918D05A831A7F012A1BD000225A779A7F012A1ED000221A8410BD197C0132DA6000220129E8D15A69197E01325A6100220129E6D15A8B0132D1
:4002000092B25A831A7F012AE3D15A7F7C2AE2D801325A779A7F012AE0D197211A8C89008A42DDD801321A84DAE70022DA601A72C2E7C046CC010020D9070000B9040000D8
:4002400010B50400084B1880084B198001F044F8074800F0BFFB200000F0C8FB00F0ACFB00F0DCFB10BDC046BC020020BE020020FFFF000010B514210520FFF7E1FFFEE71E
:40028000F0B55F4656464D464446F0B487B062B60024002001F064FB002001F053FB002001F042FBFF2001F015FBD14801F020FB01F0BAFACF4A03211F2001F0F1F801F0D6
:4002C0002FF814210120FFF7BBFFCB4ECB4D200000F0D8FD3055200000F0D8FE285501340B2CF4D1142000F043FB142000F040FB00F09CFB20230193C14B9B46C14B9A46AA
:40030000C14B9946C14B984600260025280000F003FD00F05FFC0028FBD15B460400985B53469F19398800F03DFF4B469853B84B38805C5543465C55013502360B2DE5D1F2
:40034000019B013BDBB20193002BDDD1B14EB24F2323F45C002C00D0B9E13378012B00D1DEE100F0D5FFB37F012B00D1B7E100F0E1FC00F02FFC0028FBD100F0C9FD00F00B
:4003800093FE43461978C82905D90122A34B1B789343A24A137043465A78C82A05D902209E4B1B7883439D48037043469B78C82B05D9042499480078A043984C2070404628
:4003C000C0780190C82804D90825944C2078A8432070404600790290C82804D910258F4C2078A8432070404640790390C82804D920258A4C2078A8432070404680798146B3
:40040000C82804D94025854C2078A84320704046C0798246C82804D97F25804C2078284020704046007A0490C82804D901247B4D6878A04368704046407AC82806D9774C97
:400440006578A4460224A543644665704546AC7A0594C82C07D90425704C6478AC43A44665466E4C65703C788C4200D22DE17978914200D229E1BA789A4200D225E1FB78DB
:40048000019A934200D220E13B79029A934200D21BE17B79039A934200D216E1BB794B4500D212E1FB79534500D20EE13B7A049A934200D209E17B7A834200D205E1BB7AF6
:4004C000059A9342AD416D42554B726935749A4200D9F8E05B461A88E623673A92B2DB009A4200D9E8E0002232765A465288673A92B29A4200D9DFE05A469288673A92B275
:400500009A4200D9D8E05A46D288673A92B29A4200D9D1E05A461289673A92B29A4200D9CAE05A465289673A92B29A4200D9C3E05A469289673A92B29A4200D9BCE05A4641
:40054000D289673A92B29A4200D9B5E05A46128A673A92B29A4200D9AEE05B46E6225B8AD200673B9BB2934200D9A5E05B469B8A673B9BB2934200D99EE0294B728B9A42DD
:4005800000D9A0E00424254D6A7814402300591E8B412978DBB2C80701D50133DBB2880701D50133DBB2480701D50133DBB2080701D50133DBB2C80601D50133DBB2012BD5
:4005C00000D897E001202223F054002909D1002A00D0A3E000202223F0540020114B19705A70737F4F2B5ED8042A00D191E01BE09101000090020020B00200208002002045
:4006000008020020E0020020300200205402002048020020CC0100200C0100206C0200206F3000007C020020002333772423F45C002C00D08CE600F021FF030700D487E64A
:400640000123052233729946494B4A491A70494B89781A785B78D318DBB2994272D02223F35C002B60D1434AEB3313702B7853706A78510701D503210A403E493D488A7063
:400680000021C170017101203A4C203BA1712031E171033121724D316172D3182F396071A172E37254E6772B2FD9002C2DD1012000F020FE3477B9E70123728B33762E4B50
:4006C0009A4200D85EE7FFF7D5FD0125FCE600F09DF900F01DFEB37F012B00D047E69623328C9B009A4200D841E60023B37700F0D1FB3CE6002902D1002A00D16AE72223A0
:40070000F05C002800D168E76BE7002000F0F2FD8CE7002888D10123337787E7012060E700F074F934701CE6EB23124A11491370124A13784B706978490716D55178032246
:400740000A409AE74B461A4289D04A462233F254013BF454B47700F0FBFD484600F0CAFD06210A2000F09AFC79E7527885E7C0468C020020900200206F3000007C02002051
:4007800010B501F00FF903680C2B00D0FEE7FEE7F8B5104E002E18D000200F4DA9682C686A68002905D00023E758043380C29942FAD1E9680023002903D0D050043399420A
:4007C000FBD1013E1035002EE8D101F0F1F8FFF757FDFEE701000000E41A00000121104A70B513680F4C8B4313600F48002200230E4D04E00133A1500432192B08D00100AF
:40080000032BF7D851590133A1500432192BF6D1FFF704FC0123024A11680B43136070BD00001040000000208107000000000000F8B50400182806D0102302009A43202AC3
:4008400001D001BEF8BD072601F0A4F81B4D1C4A2B680700B3432B601A4B1B48E3181B78DBB21360194A1368B3431360184B0168E3181A787F23994313400B4303603220C6
:4008800001F07EF8182C03D8380001F087F8D9E723002A681C3B9B08B243334013432B60322001F06DF8183C2B68A4083440B3431C432C60380001F071F8C3E7080F03402C
:4008C0000C0F0340CDF1FF0F180F0340100F0340B4F1FF0F082800D901BE034B8000C318186819607047C04640000020F8B504000E00032900D901BE082C00D901BE03274F
:4009000001F048F83D00094B25409C46A408A40064442168ED000B0031000635AF40A940BB431943216001F039F8F8BD00E400E01F2318401E3B8340014A13607047C0464A
:4009400000E100E01F2318401E3B8340014A13607047C04680E100E01F2318401E3B8340014A13607047C04680E200E001BE7047F8B5802507002D02A84214D904000B4E9F
:40098000706800F0FDFF0A4B9C466444AC42F7D8084BFB18DB0BDB036744FF1AB068784300F0EEFFF8BD014EF8E7C0466C0000200080FFFFFF7FFFFF0022014B1A6070472B
:4009C00038000340014A024B1A6070476588EDAC38000340044A00041368000C1B0C1B04184310607047C04640000340F02110B5044C0204044B206809030A4003401A438F
:400A0000226010BD40000340FFFFF0FF0123024A11680B4313607047440003400123024A11680B43136070474C000340F8B55F4656464D464446F0B44C4B1B78002B24D027
:400A400000F004FC00F02CFC0021002000F034FC0021002000F006FC454CFF2000F012FC402000F0E5FB2368424A072013432360FFF75EFF80222368D203134323603CBCBF
:400A800090469946A246AB46F8BD3B4B0B22002118009B4600F0BBFF0F203849384B0A68384C1A702378324D03401A002378364C834313430B60354A354B08381A60354B75
:400AC00000262B602268344B1340C022D20213432360FFF737FF31490720FFF7FBFE03210720FFF703FF2B6821002B602C4B99462C4B98462C4B9A4620E000F04BFF0722B7
:400B00004346A2401B68013693431F4343461F6000F044FF012211004B46A9401B688B4349460B600B2E1DD053460C33F35C9B0053449A6A99699B6B9046994653460F2715
:400B40009D5D5B46AA00D2B29740985D0B686C00BB4306272C19E4B20B60A7400128CCD10027CAE7014B1A706AE7C046040200200400084000100880C802002000FF0840A3
:400B8000C002002062F1FF0F000002400002000108000840C008A001FFFFF0FFB11100000000044008000440241A000070B501210724074D0130C0B20B2807D022000E00D4
:400BC00002409640C308EB5C1E42F3D070BDC046800000200120024B5B7818407047C04604020020434BF0B54546984648234E46814657469A46C14452464B469B5C3E4CCB
:400C00009B00E0B4E31807005E6800F01FFB00F047FB3023E419E05C0021013880B200F04BFB3C23E05C0021013880B200F01AFBFF2000F027FB402000F0FAFA0720FFF775
:400C400081FE40232D4D07202A6813432B60FFF76FFE0720FFF776FE29482A4B026813405246A15C0B431A00274BDB191B7F1B04134303602C68254B07201C40244B1C43BD
:400C8000FFF756FE4B461B7B99464346DF5D00F081FE82460F204B46B900C9B288409B0043449A699B6A94461268984682430420884019687B00FB180727DBB29F40B9437A
:400CC0000B0041460B60634602431A60504600F065FE00F05FFE07002C60002000F050FE0C4B38001E6000F059FE1CBC90469946A246F0BD241A00008000002004000840C8
:400D00000800084000FF80FF04020020FF1FDFFF200020000C000840002210B5044BC1B25A70273299545A325A70FFF75BFF10BD04020020F8B50023FF2207240120104E42
:400D4000104D73702733F254F35CDBB20133DBB20B2B07D02100070019408F40DA08AA5C1742F3D02722B354B35C0A2B07D8012371780B437370B05CC0B2FFF733FFF8BD89
:400D80000402002080000020F0B54746264B27491A684300CB1880B49A800F22244F3E5C3B181C7B234BB1001B5CC9B28A409C46A4003B19986975000368751993430360DF
:400DC0006346EDB2012B2BD00623AB40984600F0E1FD0722AA403C19A16A0B689343424613430B6000F0DAFD0122B240A16B07200B6893430B60FFF7A5FD0F4A0F4B116838
:400E000007200B40A02109020B4313600C4A0D4B11680B401360FFF78BFD04BC9046F0BD00239846D3E7C0460C00084004020020241A0000C802002004000840FF1FDFFF62
:400E40000800084000FF80FF02000720CB08014006388840D35C1840431E98417047C046072310B5CC081940063B8B400419DBB2002A03D122789A43227010BD227813434D
:400E80002370FAE7024B18184823C05C7047C04680000020F8B55F4656464D464446174BF0B49B46164B00259A46164B00249946154B30279846154E2000FFF72DFFFFF771
:400EC00089FE0028FBD131001831605431005B462431605448461A5D5346B118825C5B5BCA55424601347353535302350B2CE3D13CBC90469946A246AB46F8BD6C1A000048
:400F00000802002000010020E002002030020020F0B55F46444656464D46F0B4544B85B09846544B544E554D554F00249B4605E001340136023502370B2C58D02100404666
:400F4000FFF782FF0028F3D04E4B1B5D0193019A5B46944663441B7B4B4A9C466300D35A99465B46DA7D4B46002A07D04A463B88D2185B009B189B089BB23B802888984227
:400F800047D8002232701A1A92B2029201229246624602A9CA80CA889446029A944508D2019A5A44117E029A914227D95246002A27D1324A11001822914649448946625C86
:400FC000010211434A46081A1B18190AA35400233370029B29809C4510D30022274B01362433E2540134023502370B2CA6D105B03CBC90469946A246AB46F0BD5346002B74
:40100000EBD0029BFF2B2DD9FF221C4B2433E2548EE7C21A92B20292019A9246DA445246127E9246029A924516D25A4624323378A25C9A4213D84B462B8000230F4A019946
:401040001832A3540D4A337050185A46515C302281544A463A80C0E70022924698E701333370BAE7054B02AA12782433E2545FE78000002000010020D40200203002002015
:40108000E00200206C1A000008020020024B18183023C05C7047C04600010020014B19547047C04600010020F0B55F4656464D4644460023F0B487B005930493354B99468E
:4010C000354B9A4630239B463449049A0B000C338C5CD35C1B190293002303933C33534498460EE0BE1BB34236DB21004046FFF7ABFE002801D001230393029B0134A342FD
:4011000035D9274B5A461D5D4B465B199F5C3C229E5C4B465B5D210040460193FFF794FE53462433E35C0028DCD1BE195544B3420DDB5B465A46EB5C013BDBB2AB54002BE5
:40114000D3D1012221004046FFF78AFECDE76A465B461279EA54C8E7002221004046FFF77FFE6A465B4612795544EA54BDE7039B002B01D001230593049B013304930B2B7D
:40118000A2D1059807B03CBC90469946A246AB46F0BDC0460001002030020020A41A00006C1A00004B0018184118890888B2704770B501260720FFF7C5FB174B174D1E60B5
:4011C0002878C0B2FFF7E0FD154C23785BB2002B19DB2878C0B2FFF7E9FC28702B780A2B15D92378B343237023785B0607D502220C490D4800F002FC02220C4B1A700720B3
:40120000FFF796FB70BD2378B3432370F7E72878C0B2FFF7E7FCF2E7140008402B02002005020020C4020020800000206E020020044A1368002BFCDB034B00021843014B8C
:40124000186070470000014041000080034A1368002BFCDB024A014B1A607047000001404100004010B5FF24C9002140000208430721034A13680B401843106010BDC046B0
:4012800004030140044A1368002BFCDB034B00021843014B186070470000014040000080034A1368002BFCDB024A014B1A607047000001404000004010B5FF24C90021408E
:4012C000000208430721034A13680B401843106010BDC046000301401022034B1A60034A034B1A657047C04680E100E081070000000000200300042004499B000A68824384
:40130000D2B21840104308607047C046000304400120024B1B6818407047C0460403044010B5094C2378002B03D100F045F8012323708021054A0906136805200B431360C9
:40134000FFF7F6FA10BDC046700200200000064010B50520FFF7F6FA00F08AF8054A052013685B005B0813600022034B1A60FFF7F3FA10BD00000640880F064080220A4BC6
:401380005200196811420AD008490968490406D4186807490140196019680A431A600222044B1A607047C0460000064060000640FFFEFFFF6C00064010B50024184B194A80
:4013C0001C60194B19491A60194B1A4A05201360194A1460194A1160194A1360194B1C60FFF7B0FA03210520FFF780FA16490520FFF770FA5222154BFF321C60144B1A60D9
:401400000022144B1C60144B1C60144B1C60144B1C70144B1C70144B1C80144B1A7010BD0000064000080040600006409E00FE00070100800003064004030640100306402B
:401440000002064004020640D1140000880E0640480F0640080F0640C80F0640880F0640FC02002000030020FA020020F80200200022014B1A707047FC02002010B50520F5
:40148000FFF760FA1F21054B05201C781A78E4B28A431A70FFF74CFA200010BD0003002070B506000D00141E0BD00520FFF74AFA044B05201C60044B1E80044B1D80FFF765
:4014C00037FA70BD0403002008030020FE020020F8B54F464646B54BC0B41B68002B00D09847B34BB34D1E68B34B2C881F680223FF3333402DD02021B04A13685B005B0885
:401500001360AF4B1A788A431A70102219780A431A70AC4A1268D20600D48DE0022219780A431A70A84AA94B11680B40136000238021A74A09061360A24A1360A54A137081
:401540009E4A13680B4313602C800CBC90469946F8BDFA0601D5A04A13600A233B424CD102231F40002F1AD0F30614D50023984A1360944A1360994B1A780A23944200D1DD
:40158000F8E08F4A334011780B4320218B4313700022904B1A70730658D4854B1E60864B1B685B07D0D58E4B8E4E98461A888E4BFF271B688D489C4600230F2199460DE03C
:4015C00063461B191B78013ADBB23360012399460368013492B20B40082B06D0002AEFD1376003680B40082BF8D14B46002B00D0D9E010227E4B1A60A6E77E4B1B685B07BD
:401600004FD57D4B73491A680B78002B00D191E0012B7BD1724988460988002900D1ABE07648D2B20360704B01391B681B191A704346013419806CE0684A1278A24200D10A
:4016400070E7082219780A431A706BE720235C4A11780B431370614B1C78694B1A68102313424FD08020674A5D4912884002121B0A80654A11680143116010686349014003
:401680001160504A13600122614B62491A60484B196010236049086803430B60574B1A607BE7494A13689B0400D459E702231F4033D14B4B1988083989B2198008295ED835
:4016C00000296ED000239846474B4B489C466118634602681B68D2B21B1901341A708C42F6D14346002B09D18020374A000213680C00034313600022354B1A600C22474B93
:401700001A602FE70422324B1A60BCE70020FFF72DF90422414B1A6022E70F21404B1B6810681940294B03401360012398460029CAD1E3E73348008882421DD201242F48CD
:4017400004603848008882421DD2801A244C80B22080072819D908281AD080201A4980010B6803430B600821194B19601B4B14001A70CEE7083B04E7FFF700FEC9E70123D6
:4017800008219846A0E71648038001230B70EDE7A0240D4824020168214301600C490B60E4E72100A0E743461A8022E774020020400F0640FA020020000E0640000006409A
:4017C00000030020880F064060000640FF5FFFFFC80F0640FC020020880E0640F802002078020020400206400403002008020640800F0640CC0F0640400306406C000640EC
:40180000640006400803002004020640FFFFFEFF800E0640FF0F0000480F0640C00F064008030640FE02002010B51B4A1378002B1DD1C0210C20194B89001960184908607D
:4018400018490A3808601848184908601B689B039B0F012B1DD0591E8B4115498C46634414490B600021144B19600123137000F091F80123114A11680B43136000F08EF826
:4018800000F088F880220E4B52041A6000F086F810BD0C4BE4E7C0467A020020000105402401054038010540A60E000014010540A50E00000C01054008010540000005401A
:4018C00008000540A70E0000014B18607047C04630010540044A1368002BFCDB034B00021843014B18607047000001404200008010B58024084B64001C60084B186600F09E
:4019000049F8C023064A11680B43136000F046F8044B1C6010BDC04680E100E00000002008E400E000E100E00300402004499B010A688243D2B21840104308607047C04668
:40194000000104400300402004499B010A688243D2B21840104308607047C046000004400300202004495B010A688243D2B21840104308607047C04600000440000000004C
:401980000230800804D0C0460138FDD1C046C046C0467047EFF3108072B6704780F310887047C046014B18687047C046A80100200E4B70B500251E000D4CE41AA410A542A5
:4019C00004D0AB00F35898470135F8E700F078F8084B00251E00084CE41AA410A54204D0AB00F35898470135F8E770BDCC1A0000CC1A0000CC1A0000D41A0000002310B5D3
:401A00009A4203D0CC5CC4540133F9E710BD03008218934202D019700133FAE7704700000000000002010307000104050007000000000000010101010201000000000240D6
:401A40000001024000020240000302400800044008010440080204400803044000000440000104400002044000030440000102030405060708090A00040000000200000011
:401A8000080000008000000001000000020000001000000020000000010000008000000001000000000102030405060708090A000101010101010101010101430000000064
:401AC000F8B5C046F8BC08BC9E46704759010000DD070000F8B5C046F8BC08BC9E46704731010000F81A0000680000204801000060010000000000000000000001000000A5
:401B000000007017E02E00000C000000001BB700FF0700000000FF070000FF070000FF070000FF070000FF070000FF070000FF070000FF070000FF070000FF070000FF07EA
:401B40000202020202020202020202000404040404040404040404001C1E16161415171512111E000800044008000440080004400800044008010440080104400801044010
:401B800008010440080204400801044008000440030303030303030303030300121212122115151515150E011E1E1E1E1E1E1E1E1E1E1E003232323232323232323232007F
:401BC00019191919281E1E1E1E1E14000505050505050505050505000000000000000000000000000000000000000000000000000000000000000000BB1A000000000000A3
:401C0000000000000000000000000000000000000000000000000000000000000000000000000000000000000000000000000000000000000000000048010020000000003B
:401C40000000000000000000000000000000000000000000000000000000000000000000000000000000000000000000000000000000000000000000000000000000000064
:401C80000000000000000000000000000000000000000000000000000000000000000000000000000000000000000000000000000000000000000000000000000000000024
:401CC00000000000000000000000000000000000000000000000000000000000000000000000000000000000000000000000000000000000000000000000000000000000E4
:401D000000000000000000000000000000000000000000000000000000000000000000000000000000000000000000000000000000000000000000000000000000000000A3
:0200000490303A
:02000000CB2F04
:0200000490402A
:2000000000000000000000000000000000000000FFFFFFFFFFFFFFFFFFFFFFFFFFFFFFFFF0
:0200000490501A
:0C00000000020A48119A00000A50DCC9F6
:0200000490600A
:0100000001FE
:00000001FF