:4000000000080020110000007D0A00007D0A000010B500F06DFE00F039FDC04670B572B6EE220024264B12021A60264BD8211C609F23254A49031360244A254D1160254A17
:4000400018201360BF22244B1A60244A244B1A60B322244B1A600123234A1360234A13600722234B1A60234BB032FF321A6011232B6000F05BFD204B204A1C60204B2149D9
:400080001A60FE2212020A601F4919601F490A601F4A1A601F4A14601F4A1A6004221F4B1A601F4B3E321A601E4B023A1A601E4B01321A601D4B02321A602C6070BDC0466A
:4000C00000010240000302400000044008000440300010401800044000010440000918000801044018010440000204401802044000030440080304400803014042FF0080B5
:40010000000001400003014040FF00800403014041FF00800C03014043FF0080280003400C01014008010140040101400001014010B5064C2378002B07D1054B002B02D0D4
:40014000044800E000BF0123237010BDB00100200000000050200000084B10B5002B03D00749084800E000BF07480368002B00D110BD064B002BFBD09847F9E700000000F1
:40018000B401002050200000680000200000000010B5022001F0B0FE0122264B26491A705A688A4201D801325A601A7A012A3CD0DA6822498A4214D9197C0022012916D013
:4001C000197E5A610022012918D05A831A7F012A1BD000225A779A7F012A1ED000221A8410BD197C0132DA6000220129E8D15A69197E01325A6100220129E6D15A8B0132D1
:4002000092B25A831A7F012AE3D15A7F7C2AE2D801325A779A7F012AE0D197211A8C89008A42DDD801321A84DAE70022DA601A72C2E7C046CC010020D9070000B9040000D8
:4002400010B500F081FD01F067FB00F065FD044B1B889A00D318DB00181800F051FD10BDC202002010B50400084B1880084B198001F044FB074800F043FD200000F054FD85
:4002800000F030FD00F068FD10BDC046C0020020C2020020FFFF000010B514210520FFF7E1FFFEE7F0B55F4656464D464446F0B487B062B60024002001F06AFE002001F0B7
:4002C00059FE002001F048FEFF2001F01BFED54801F026FE01F0C0FDD34A03211F2001F0F7FB01F035FB14210120FFF7BBFFCF4ECF4D200000F084FF3055200001F050F912
:40030000285501340B2CF4D1142000F0AFFC142000F0ACFC00F048FD20230093C54B9B46C54B9A46C54B9946C54B984600260025280000F0AFFE00F00BFE0028FBD15B460D
:400340000400985B53469F19398801F023FA4B469853BC4B38805C5543465C55013502360B2DE5D1009B013BDBB20093002BDDD123339946B44F4B46FC5C002C58D13B78EB
:40038000012B00D12DE301F0DBFA4B46FC5C002C56D1BB7F012B00D198E1AC4BFA689A4200D9A1E1AA4A1378002B00D0BAE12423FC5C002CDFD101F079FB0307DBD5052119
:4003C0000122A34B3A721970974B974819785B788078CB18DBB2984200D122E32223FB5C002B00D004E3904AEB331370994A8E4913784B705278510701D503210A408A4948
:4004000089488A700021C17001710120864C203BA1712031E171D31870216071E37248464B4661722F392072A172FC5C002CA6D000F08AFC01F084FA4B46FC5C002CA8D01D
:40044000854B854A1C881B78844813806423844A138001F039FA00F05FFC814B1B889A00D318DB00181800F04BFCE0B200F05CFC00F038FC00F070FC00F0CAFE00F01AFCA2
:4004800000F0E6FE25230022FA54033B9A46754E0A2000F0FFFD00F05BFD0028FBD10A3000F024FF0A2001F089F800253070280000F0F0FD00F04CFD0028FBD10400280071
:4004C00000F014FF2800013501F078F80A2DEED15346FD5C002D00D1C8E034702522BB5C0133DBB2BB54022BD2D95B461A88E623673A92B2DB009A4200D906E100223A7688
:400500005A465288673A92B29A4200D9FDE05A469288673A92B29A4200D9F6E05A46D288673A92B29A4200D9EFE05A461289673A92B29A4200D9E8E05A465289673A92B240
:400540009A4200D9E1E05A469289673A92B29A4200D9DAE05A46D289673A92B29A4200D9D3E05A46128A673A92B29A4200D9CCE05B46E6225B8AD200673B9BB2934200D92F
:40058000C3E05B469B8A673B9BB2934200D9BCE00023FB844246344B11781A78914200D914E2424651785A78914200D90EE2424691789A78914200D908E24246D178DA7818
:4005C000914200D902E2424611791A79914200D9FCE1424651795A79914200D9F6E1424691799A79914200D9F0E14246D179DA79914200D9EAE14246117A1A7A914200D984
:40060000E4E14246517A5A7A914200D9DEE142469B7A927A9A4200D9D8E10023BB623B74A9E6C0469101000094020020B40200208402002008020020E4020020340200207E
:40064000580200204C020020CC010020AF0400009002002070020020C002002041020000C20200208F0200200C0100203378002B00D133E7CD4BCD4A1C881B78138001F01C
:400680003DF9CB4800F03CFBE0B200F04DFB00F029FB00F061FB01F05BF94B46FD5401230020BB77FD6001F03DF9FF2001F02AFCC04801F035FC01F0CFFB9620800000F03E
:4006C000D5FA03210A2000F073FF07E796233A8C9B009A4200D860E6BC7700F0C9FDB64BFA689A4200D85DE64A460123BB5400232222BB77BB5401F043F9012001F012F981
:4007000006210A2000F054FF51E601232C223B76FB8CFF3201339BB2FB84934200D839E7FFF7BAFD013B137000F0C2FC00F010FC0028FBD100F076FE00F0AEFF43461E781C
:40074000C82E04D901219D4A13788B43137043465D78C82D04D90221984A13788B43137043469878C82804D90421944A13788B4313704346DB780093C82B04D908218F4A2A
:4007800013788B43137043461A79C82A06D98B4B10219C461B788B4361460B7043465B790193C82B06D9854B20219C461B788B4361460B7043469B790293C82B06D97F4BFD
:4007C00040219C461B788B4361460B704346DB790393C82B06D9794B7F219C461B780B4061460B7043461B7A0493C82B06D9734B01219C465B788B4361464B7043465B7AFE
:400800000593C82B06D96D4B02219C465B788B4361464B7043469B7A9A46C82B06D9674B04219C465B788B4361464B70644B1978B14200D21AE15E78AE4200D216E19D78DE
:40084000854200D212E1D8780099884200D20DE11979914200D209E15A7901998A4200D204E19A7902998A4200D2FFE0DA7903998A4200D2FAE01A7A04998A4200D2F5E032
:400880005A7A05998A4200D2F0E09B7A53459B415B423B747A694B4B9A4200D940E75B461A88E623673A92B2DB009A4200D99CE000223A765A465288673A92B29A4200D90B
:4008C00093E05A469288673A92B29A4200D98CE05A46D288673A92B29A4200D985E05A461289673A92B29A4200D97EE05A465289673A92B29A4200D977E05A469289673AD1
:4009000092B29A4271D85A46D289673A92B29A426BD85A46128A673A92B29A4265D85B46E6225B8AD200673B9BB293425DD85B469B8A673B9BB2934257D8224B7A8B9A42B5
:4009400000D9EDE604251D4A517812780D402B00581E8341DBB2D00701D50133DBB2900701D50133DBB2500701D50133DBB2100701D50133DBB2D00601D50133DBB2012BD8
:4009800066D901202223F854002A48D1002946D100202223F8540C4B1A7059707B7F4F2B34D804294FD000233B7700E5C0020020FFFF000091010000AF040000700200202B
:4009C0000C0100206F3000008002002001223A742C22BB6AFF320133BB62934200D8CAE49EE600F0B1F93C70CDE401233B76A4E7EB231F4A1E4913701E4A13784B701E4917
:400A000052784978490700D4F9E4F6E4772B29D9002D27D1012000F085FF3D77C7E40124BCE70A4200D1D9E44B46FA542223BC77FC5400F0A5FF012000F074FF06210A20E1
:400A400000F0B6FDCAE4002CADD101233B77AEE4002A01D100299BD02223FB5C002B9AD01C009BE7002000F05DFFA0E4012310E794020020800200207002002010B501F009
:400A8000A9FA03680C2B00D0FEE7FEE7F8B5104E002E18D000200F4DA9682C686A68002905D00023E758043380C29942FAD1E9680023002903D0D05004339942FBD1013E17
:400AC0001035002EE8D101F08BFAFFF7EBFBFEE701000000142100000121104A70B513680F4C8B4313600F48002200230E4D04E00133A1500432192B08D00100032BF7D855
:400B000051590133A1500432192BF6D1FFF786FA0123024A11680B43136070BD00001040000000207D0A000000000000F8B50400182806D0102302009A43202A01D001BEAE
:400B4000F8BD072601F03EFA1B4D1C4A2B680700B3432B601A4B1B48E3181B78DBB21360194A1368B3431360184B0168E3181A787F23994313400B430360322001F018FAB4
:400B8000182C03D8380001F021FAD9E723002A681C3B9B08B243334013432B60322001F007FA183C2B68A4083440B3431C432C60380001F00BFAC3E7080F03400C0F03405E
:400BC000CDF1FF0F180F0340100F0340B4F1FF0F082800D901BE034B8000C318186819607047C04640000020F8B504000E00032900D901BE082C00D901BE032701F0E2F9DE
:400C00003D00094B25409C46A408A40064442168ED000B0031000635AF40A940BB431943216001F0D3F9F8BD00E400E01F2318401E3B8340014A13607047C04600E100E01C
:400C40001F2318401E3B8340014A13607047C04680E100E01F2318401E3B8340014A13607047C04680E200E001BE7047F8B5802507002D02A84214D904000B4E706801F094
:400C800097F90A4B9C466444AC42F7D8084BFB18DB0BDB036744FF1AB068784301F088F9F8BD014EF8E7C0466C0000200080FFFFFF7FFFFF10B501F085F9074B074A1B88EC
:400CC0009BB213600423064A11680B43136030BF01F07CF910BDC04652F1FF0F0400034010ED00E00022014B1A60704738000340014A024B1A6070476588EDAC3800034002
:400D0000044A00041368000C1B0C1B04184310607047C04640000340024B18680004000C7047C04640000340F02110B5044C0204044B206809030A4003401A43226010BD24
:400D400040000340FFFFF0FF0123024A11680B4313607047440003400123024A11680B43136070474C00034010B500F067FD00F08FFD0021002000F097FD0021002000F0A0
:400D800069FDFF2000F076FD402000F049FD044A0449136807200B431360FFF747FF10BD0400084000100880F8B55F4656464D464446F0B44C4B1B78002B24D000F03EFDA7
:400DC00000F066FD0021002000F06EFD0021002000F040FD454CFF2000F04CFD402000F01FFD2368424A072013432360FFF71EFF80222368D203134323603CBC904699468F
:400E0000A246AB46F8BD3B4B0B22002118009B4601F015F90F203849384B0A68384C1A702378324D03401A002378364C834313430B60354A354B08381A60354B00262B60A0
:400E40002268344B1340C022D20213432360FFF7F7FE31490720FFF7BBFE03210720FFF7C3FE2B6821002B602C4B99462C4B98462C4B9A4620E001F0A5F807224346A240E7
:400E80001B68013693431F4343461F6001F09EF8012211004B46A9401B688B4349460B600B2E1DD053460C33F35C9B0053449A6A99699B6B9046994653460F279D5D5B460E
:400EC000AA00D2B29740985D0B686C00BB4306272C19E4B20B60A7400128CCD10027CAE7014B1A706AE7C046040200200400084000100880CC02002000FF0840C4020020D1
:400F000062F1FF0F000002400002000108000840C008A001FFFFF0FFA117000000000440080004405420000070B501210724074D0130C0B20B2807D022000E0002409640EE
:400F4000C308EB5C1E42F3D070BDC046800000200120024B5B7818407047C04604020020434BF0B54546984648234E46814657469A46C14452464B469B5C3E4C9B00E0B430
:400F8000E31807005E6800F059FC00F081FC3023E419E05C0021013880B200F085FC3C23E05C0021013880B200F054FCFF2000F061FC402000F034FC0720FFF741FE40231C
:400FC0002D4D07202A6813432B60FFF72FFE0720FFF736FE29482A4B026813405246A15C0B431A00274BDB191B7F1B04134303602C68254B07201C40244B1C43FFF716FE92
:401000004B461B7B99464346DF5D00F0DBFF82460F204B46B900C9B288409B0043449A699B6A94461268984682430420884019687B00FB180727DBB29F40B9430B00414653
:401040000B60634602431A60504600F0BFFF00F0B9FF07002C60002000F0AAFF0C4B38001E6000F0B3FF1CBC90469946A246F0BD54200000800000200400084008000840E4
:4010800000FF80FF04020020FF1FDFFF200020000C000840002210B5044BC1B25A70273299545A325A70FFF75BFF10BD04020020F8B50023FF2207240120104E104D7370CF
:4010C0002733F254F35CDBB20133DBB20B2B07D02100070019408F40DA08AA5C1742F3D02722B354B35C0A2B07D8012371780B437370B05CC0B2FFF733FFF8BD0402002020
:4011000080000020F0B54746264B27491A684300CB1880B49A800F22244F3E5C3B181C7B234BB1001B5CC9B28A409C46A4003B199869750003687519934303606346EDB239
:40114000012B2BD00623AB40984600F03BFF0722AA403C19A16A0B689343424613430B6000F034FF0122B240A16B07200B6893430B60FFF765FD0F4A0F4B116807200B4012
:40118000A02109020B4313600C4A0D4B11680B401360FFF74BFD04BC9046F0BD00239846D3E7C0460C0008400402002054200000CC02002004000840FF1FDFFF0800084007
:4011C00000FF80FF02000720CB08014006388840D35C1840431E98417047C046072310B5CC081940063B8B400419DBB2002A03D122789A43227010BD227813432370FAE7A6
:40120000024B18184823C05C7047C046800000200C4B10B51B68002B02DA01220A4B1A700720FFF70DFD074A084B11680B40136013685B005B08136000F000FB00F028FBF9
:4012400010BDC0460400084030020020FFEFF7FF10B5FF2000F0E4FAFF2000F00BFB034B1B78002B01D0FFF77FFD10BD30020020F8B55F4656464D464446174BF0B49B46F2
:40128000164B00259A46164B00249946154B30279846154E2000FFF7FDFEFFF759FE0028FBD131001831605431005B462431605448461A5D5346B118825C5B5BCA5542466F
:4012C00001347353535302350B2CE3D13CBC90469946A246AB46F8BD9C2000000802002000010020E402002034020020474BF0B51B5C56469A4644465F464D46444BF0B46E
:401300009B4653465B441B7B44009C46414B83B01B5B98465B46DA7D4346002A08D042463D490B5BD2185B009B189B089BB20B533A490F5B9F422AD8002290464646384AB2
:4013400016540126B046DA1B92B266466D46EE80EE88B44696423BD30D18A9462D7E3E023543ED1B5B191D0A0D534C46237600242B4B1C5494453DD3002224230818C25453
:4013800003B03CBC90469946A246AB46F0BD56465E44FA1A367E92B2964228D25D4624271F4A2E18135CF75D9F422CD8434600270B530B181F765346CB189C46534666467D
:4013C000ED5C3023F5544546134B17541D53D3E75D4655442D7E95420CD94546002DBBD0FF2A0CD9FF2224230818C254C8E70026B046AAE74346002BBED0FF2AF2D8242320
:401400000818C254BCE701331354B5E79C2000000001002008020020E402002034020020D8020020F0B55F46444656464D46F0B4544B85B09846544B544E554D554F00243B
:401440009B4605E001340136023502370B2C58D021004046FFF7B6FE0028F3D04E4B1B5D0193019A5B46944663441B7B4B4A9C466300D35A99465B46DA7D4B46002A07D0C7
:401480004A463B88D2185B009B189B089BB23B802888984247D8002232701A1A92B2029201229246624602A9CA80CA889446029A944508D2019A5A44117E029A914227D973
:4014C0005246002A27D1324A11001822914649448946625C010211434A46081A1B18190AA35400233370029B29809C4510D30022274B01362433E2540134023502370B2C20
:40150000A6D105B03CBC90469946A246AB46F0BD5346002BEBD0029BFF2B2DD9FF221C4B2433E2548EE7C21A92B20292019A9246DA445246127E9246029A924516D25A4636
:4015400024323378A25C9A4213D84B462B8000230F4A01991832A3540D4A337050185A46515C302281544A463A80C0E70022924698E701333370BAE7054B02AA127824337D
:40158000E2545FE78000002000010020D802002034020020E40200209C20000008020020024B18183023C05C7047C04600010020014B19547047C04600010020F0B5444622
:4015C0005F4656464D46304BF0B41C5C1818037B85B01B190293002303932C4B99462C4B9B4630239A460C335B4498460EE0BE1BB34236DB21004046FFF7E4FD002801D03A
:4016000001230393029B0134A34235D9214B52461D5D4B465B199F5C3C229E5C4B465B5D210040460193FFF7CDFD5B462433E35C0028DCD1BE195D44B3420DDB534652467F
:40164000EB5C013BDBB2AB54002BD3D1012221004046FFF7C3FDCDE76A4653461279EA54C8E7002221004046FFF7B8FD6A46534612795D44EA54BDE7039805B03CBC9046AE
:401680009946A246AB46F0BDD420000000010020340200209C200000F0B55F4656464D4644460023F0B487B005930493354B9946354B9A4630239B463449049A0B000C3316
:4016C0008C5CD35C1B190293002303933C33534498460EE0BE1BB34236DB21004046FFF771FD002801D001230393029B0134A34235D9274B5A461D5D4B465B199F5C3C2233
:401700009E5C4B465B5D210040460193FFF75AFD53462433E35C0028DCD1BE195544B3420DDB5B465A46EB5C013BDBB2AB54002BD3D1012221004046FFF750FDCDE76A46FD
:401740005B461279EA54C8E7002221004046FFF745FD6A465B4612795544EA54BDE7039B002B01D001230593049B013304930B2BA2D1059807B03CBC90469946A246AB46B5
:40178000F0BDC0460001002034020020D42000009C2000004B0018184118890888B2704770B501260720FFF74BFA174B174D1E602878C0B2FFF7A6FC154C23785BB2002B29
:4017C00019DB2878C0B2FFF7AFFB28702B780A2B15D92378B343237023785B0607D502220C490D4800F022FC02220C4B1A700720FFF71CFA70BD2378B3432370F7E7287806
:40180000C0B2FFF7ADFBF2E7140008402B02002005020020C80200208000002072020020044A1368002BFCDB034B00021843014B186070470000014041000080034A136816
:40184000002BFCDB024A014B1A607047000001404100004010B5FF24C9002140000208430721034A13680B401843106010BDC04604030140044A1368002BFCDB034B000240
:401880001843014B186070470000014040000080034A1368002BFCDB024A014B1A607047000001404000004010B5FF24C9002140000208430721034A13680B401843106098
:4018C00010BDC0460003014010B51024074B1C60074B186500F076FBC023064A11680B43136000F073FB044B1C6010BD80E100E00000002004E400E000E100E01022034B0D
:401900001A60034A034B1A657047C04680E100E07D0A0000000000201022014B1A60704780E200E00300042004499B000A688243D2B21840104308607047C046000304409C
:401940000120024B1B6818407047C0460403044010B5094C2378002B03D100F045F8012323708021054A0906136805200B431360FFF75CF910BDC046740200200000064024
:4019800010B50520FFF75CF900F08AF8054A052013685B005B0813600022034B1A60FFF759F910BD00000640880F064080220A4B5200196811420AD008490968490406D45E
:4019C000186807490140196019680A431A600222044B1A607047C0460000064060000640FFFEFFFF6C00064010B50024184B194A1C60194B19491A60194B1A4A0520136007
:401A0000194A1460194A1160194A1360194B1C60FFF716F903210520FFF7E6F816490520FFF7D6F85222154BFF321C60144B1A600022144B1C60144B1C60144B1C60144B6F
:401A40001C70144B1C70144B1C80144B1A7010BD0000064000080040600006409E00FE00070100800003064004030640100306400002064004020640011B0000880E06406B
:401A8000480F0640080F0640C80F0640880F06400003002004030020FE020020FC0200200022014B1A7070470003002010B50520FFF7C6F81F21054B05201C781A78E4B2C9
:401AC0008A431A70FFF7B2F8200010BD0403002070B506000D00141E0BD00520FFF7B0F8044B05201C60044B1E80044B1D80FFF79DF870BD080300200C03002002030020D3
:401B0000F8B54F464646B54BC0B41B68002B00D09847B34BB34D1E68B34B2C881F680223FF3333402DD02021B04A13685B005B081360AF4B1A788A431A70102219780A43A8
:401B40001A70AC4A1268D20600D48DE0022219780A431A70A84AA94B11680B40136000238021A74A09061360A24A1360A54A13709E4A13680B4313602C800CBC9046994654
:401B8000F8BDFA0601D5A04A13600A233B424CD102231F40002F1AD0F30614D50023984A1360944A1360994B1A780A23944200D1F8E08F4A334011780B4320218B43137057
:401BC0000022904B1A70730658D4854B1E60864B1B685B07D0D58E4B8E4E98461A888E4BFF271B688D489C4600230F2199460DE063461B191B78013ADBB2336001239946B5
:401C00000368013492B20B40082B06D0002AEFD1376003680B40082BF8D14B46002B00D0D9E010227E4B1A60A6E77E4B1B685B074FD57D4B73491A680B78002B00D191E02A
:401C4000012B7BD1724988460988002900D1ABE07648D2B20360704B01391B681B191A704346013419806CE0684A1278A24200D170E7082219780A431A706BE720235C4ABA
:401C800011780B431370614B1C78694B1A68102313424FD08020674A5D4912884002121B0A80654A1168014311601068634901401160504A13600122614B62491A60484BDC
:401CC000196010236049086803430B60574B1A607BE7494A13689B0400D459E702231F4033D14B4B1988083989B2198008295ED800296ED000239846474B4B489C4661180C
:401D0000634602681B68D2B21B1901341A708C42F6D14346002B09D18020374A000213680C00034313600022354B1A600C22474B1A602FE70422324B1A60BCE70020FEF7CF
:401D400093FF0422414B1A6022E70F21404B1B6810681940294B03401360012398460029CAD1E3E73348008882421DD201242F4804603848008882421DD2801A244C80B226
:401D80002080072819D908281AD080201A4980010B6803430B600821194B19601B4B14001A70CEE7083B04E7FFF700FEC9E7012308219846A0E71648038001230B70EDE709
:401DC000A0240D4824020168214301600C490B60E4E72100A0E743461A8022E778020020400F0640FE020020000E06400000064004030020880F064060000640FF5FFFFF28
:401E0000C80F064000030020880E0640FC0200207C020020400206400803002008020640800F0640CC0F0640400306406C000640640006400C03002004020640FFFFFEFF76
:401E4000800E0640FF0F0000480F0640C00F0640080306400203002010B51B4A1378002B1DD1C0210C20194B890019601849086018490A3808601848184908601B689B03F9
:401E80009B0F012B1DD0591E8B4115498C46634414490B600021144B19600123137000F091F80123114A11680B43136000F08EF800F088F880220E4B52041A6000F086F88C
:401EC00010BD0C4BE4E7C0467E020020000105402401054038010540A60E000014010540A50E00000C010540080105400000054008000540A70E0000014B18607047C046F6
:401F000030010540044A1368002BFCDB034B00021843014B18607047000001404200008010B58024084B64001C60084B186600F049F8C023064A11680B43136000F046F8FE
:401F4000044B1C6010BDC04680E100E00000002008E400E000E100E00300402004499B010A688243D2B21840104308607047C046000104400300402004499B010A68824336
:401F8000D2B21840104308607047C046000004400300202004495B010A688243D2B21840104308607047C04600000440000000000230800804D0C0460138FDD1C046C04627
:401FC000C0467047EFF3108072B6704780F310887047C046014B18687047C046A80100200E4B70B500251E000D4CE41AA410A54204D0AB00F35898470135F8E700F078F8E8
:40200000084B00251E00084CE41AA410A54204D0AB00F35898470135F8E770BDFC200000FC200000FC20000004210000002310B59A4203D0CC5CC4540133F9E710BD0300FE
:402040008218934202D019700133FAE7704700000000000002010307000104050007000000000000010101010201000000000240000102400002024000030240080004404B
:4020800008010440080204400803044000000440000104400002044000030440000102030405060708090A0004000000020000000800000080000000010000000200000058
:4020C0001000000020000000010000008000000001000000000102030405060708090A0001010101010101010101014300000000F8B5C046F8BC08BC9E4670475901000089
:40210000D90A0000F8B5C046F8BC08BC9E467047310100002821000068000020480100006001000000000000000000000100000000007017E02E00000C000000001BB700D5
:40214000FF0700000000FF070000FF070000FF070000FF070000FF070000FF070000FF070000FF070000FF070000FF070000FF0702020202020202020202020004040404F1
:4021800004040404040404001C1E16161415171512111E000800044008000440080004400800044008010440080104400801044008010440080204400801044008000440BC
:4021C000030303030303030303030300121212122115151515150E011E1E1E1E1E1E1E1E1E1E1E0032323232323232323232320019191919281E1E1E1E1E14000505050523
:4022000005050505050505000000000000000000000000000000000000000000000000000000000000000000EB200000000000000000000000000000000000000000000070
:4022400000000000000000000000000000000000000000000000000000000000000000000000000000000000480100200000000000000000000000000000000000000000F5
:40228000000000000000000000000000000000000000000000000000000000000000000000000000000000000000000000000000000000000000000000000000000000001E
:4022C00000000000000000000000000000000000000000000000000000000000000000000000000000000000000000000000000000000000000000000000000000000000DE
:40230000000000000000000000000000000000000000000000000000000000000000000000000000000000000000000000000000000000000000000000000000000000009D
:40234000000000000000000000000000000000000000000000000000000000000000000000000000000000000000000000000000000000000000000000000000000000005D
:0200000490303A
:0200000037B017
:0200000490402A
:2000000000000000000000000000000000000000FFFFFFFFFFFFFFFFFFFFFFFFFFFFFFFFF0
:0200000490501A
:0C00000000020A48119A00000A53494A05
:0200000490600A
:0100000001FE
:00000001FF