:400000000008002011000000550C0000550C000010B500F059FF00F025FEC04670B572B6EE220024264B12021A60264BD8211C609F23254A49031360244A254D1160254A89
:4000400018201360FF22244B1A609022234B12011A60F322224B1A600123224A1360224A13600722214B1A60214BB032FF321A6011232B6000F046FE1E4B1F4A1C601F4B8D
:400080001F491A60FE2212020A601E4919601E490A601E4A1A601E4A14601E4A1A6004221D4B1A601D4B3E321A601D4B023A1A601C4B01321A601C4B02321A602C6070BD15
:4000C000000102400003024000000440080004403000104018000440000104400801044018010440000204401802044000030440080304400803014042FF00800000014095
:400100000003014040FF00800403014041FF00800C03014043FF0080280003400C01014008010140040101400001014010B5064C2378002B07D1054B002B02D0044800E0E9
:4001400000BF0123237010BDE8010020000000005C250000084B10B5002B03D00749084800E000BF07480368002B00D110BD064B002BFBD09847F9E700000000EC010020C7
:400180005C250000680000200000000010B5022001F0D2FF0122264B26491A705A688A4201D801325A601A7A012A3CD0DA6822498A4214D9197C0022012916D0197E5A6162
:4001C0000022012918D05A831A7F012A1BD000225A779A7F012A1ED000221A8410BD197C0132DA6000220129E8D15A69197E01325A6100220129E6D15A8B013292B25A8302
:400200001A7F012AE3D15A7F7C2AE2D801325A779A7F012AE0D197211A8C89008A42DDD801321A84DAE70022DA601A72C2E7C04604020020D9070000B904000010B500F00B
:400240006FFE01F091FC00F053FE044B1B889A00D318DB00181800F03FFE10BDFE020020F8B55F4656464D464446464BF0B49946454B464F464E00259A469B460DE0E0002B
:400280000A2101F0B7FF404522D801239C46013502370436E1440C2D4BD034683B886000001980000A21984601F0A4FF8045E6D9280001F091F85B465B5D98423FD03468CC
:4002C0003B88E0000A21984601F094FF4045DCD9280001F081F853465C5D8046E00000190301181A642102F00FF88045CDD12100280001F079F84B462800197801F07AFA80
:400300004B461C78280001F06DFA013C211AC9B2280001F077FA280001F09EF8052000F091FD01239C46013502370436E1440C2DB3D13CBC90469946A246AB46F8BDC300BA
:4003400018180301181A642101F0DEFF0100280001F04AF84B461B7864219800C0180301C01801F0D1FFC1B2280001F043FA4B461B7864219800C0180301C01801F0C4FF40
:40038000C4B2BFE7C0020020F00200206C0200206C00002010B50400084B1880084B198001F0D4FB074800F097FD200000F0A8FD00F084FD00F0BCFD10BDC046FC02002020
:4003C000FE020020FFFF000010B514210520FFF7E1FFFEE7F0B55F4656464D464446F0B487B062B60024002001F0E4FE002001F0D3FEFF2001F0A6FED84801F0B1FE01F0B1
:400400004BFED74A03211F2001F082FC01F0C0FB14210120FFF7BEFFD24ED34D200000F0DBFF3055200001F0D5F9285501340C2CF4D1142000F006FD142000F003FD00F053
:400440009FFD20230093C94B9946C94B9A46C94B9846C94B9B4600260025280000F006FF00F062FE0028FBD14B460400985B53469F19398801F0B6FAC04B3880985343461E
:400480005C555B465C55013502360C2DE5D1009B013BDBB20093002BDDD1B94BB94F98462323FC5C002C53D13B78012B00D189E3BB7F012B00D1EFE1B34BFA689A4200D9FC
:4004C000D9E1B24A1378002B00D005E201F00EFC0307E5D505210122AC4B3A721970A04B9F4819785B788078CB18DBB2984200D155E32223FA5C002A00D0D8E103249849CE
:40050000A34EC9330B70964B3178597073781C40934B9C709F48DA701A710378904D9C466B71AA7146788E4BEE71827861442A72C57815395D72711800795218AA1898721F
:400540008318874AE318D3722323FC5C002CABD000F0E6FC2323FB5C002BA9D0434642461C881B788C48138064238C4A0125138001F0D2FA00F0BCFC884B1B889A00D31852
:40058000DB00181800F0A8FCE0B200F0B9FC00F095FC00F0CDFC00F02FFF00F077FC00F04BFF24230022FA547D4B794E9A460B2000F05CFE00F0B8FD0028FBD10B3000F011
:4005C000AFFF0B2001F02AF9534600241870200000F04CFE00F0A8FD0028FBD1200000F09FFF2000013401F019F90B2CEFD17278D3082B40510701D50133DBB231780D42D2
:4006000001D00133DBB2880701D50133DBB2480701D50133DBB2080701D50133DBB2C80601D50133DBB2012B00D816E12223FD54002900D01BE1002A00D018E10022222331
:40064000FA5453461B78002B2AD0434642461C881B78138001F07AFA524800F03DFCE0B200F04EFC00F02AFC00F062FC01F090FA002323220020BB54FB60BD7701F07AFAA2
:40068000FF2001F05FFD354801F06AFD01F004FD9620800000F0D6FB03210B2001F0B8F82422BB5C0133DBB2BB54022B00D87EE74B461B883C49CD3B9BB28B4200D991E262
:4006C00000233B764B465B88CD3B9BB28B4200D988E24B469B88CD3B9BB28B4200D981E24B46DA88E623673A92B2DB009A4200D978E24A461289CD3A92B28A4200D971E202
:400700004A465289673A92B29A4200D96AE24A469289673A92B29A4200D963E24A46D289673A92B29A4200D95CE24A46128A673A92B29A4200D955E24B46E6225B8AD200CE
:40074000673B9BB2934200D94CE24B469B8A673B9BB2934200D945E228E0C0468D010000D0020020F0020020C0020020400200202003002084020020900200206C02002027
:40078000FC02002004020020AF040000CD020020AC020020C03F00003D020000FE020020CC020020FFFF0000640E00004B46DB8A454ACD3B9BB2934200D913E20023FB84AA
:4007C0005A46424B11781A78914200D9FEE15A4651785A78914200D9F8E15A4691789A78914200D9F2E15A46D178DA78914200D9ECE15A4611791A79914200D9E6E15A46A8
:4008000051795A79914200D9E0E15A4691799A79914200D9DAE15A46D179DA79914200D9D4E15A46117A1A7A914200D9CEE15A46517A5A7A914200D9C8E15A46917A9A7A7F
:40084000914200D9C2E15A46DB7AD27A9A4200D9BCE10023BB623B7422E6002902D1002A00D1EBE62223FB5C002B00D1E9E600235246137014E701222323FA54002321320A
:40088000BB54BB7701F09CF9012001F073F906210B2000F0BDFF19E696233A8C9B009A4200D809E60023BB7700F0FCFD04E6EB230324074A1370074B197851705B781C4035
:4008C00094701300002225E6640E000044010020D0020020BC020020013B137000F0D4FC00F022FC0028FBD1FFF7BAFC00F0B4FE00F0FEFF5B461E78C82E04D90121C54A16
:4009000013788B4313705B465D78C82D04D90221C04A13788B4313705B469C78C82C04D90421BC4A13788B4313705B46D878C82804D90821B74A13788B4313705B461B7904
:400940000093C82B04D91021B24A13788B4313705B465A79C82A06D9AE4B20219C461B788B4361460B705B469B790193C82B06D9A84B40219C461B788B4361460B705B46B2
:40098000DB790293C82B06D9A24B7F219C461B780B4061460B705B461B7A0393C82B06D99C4B01219C465B788B4361464B705B465B7A0493C82B06D9964B02219C465B78E9
:4009C0008B4361464B705B469B7A0593C82B06D9904B04219C465B788B4361464B705B46DB7A9A46C82B06D98A4B08219C465B788B4361464B70884B1978B14200D227E106
:400A00005E78AE4200D223E19D78A54200D21FE1DC78844200D21BE118790099884200D216E15979914200D212E19A7901998A4200D20DE1DA7902998A4200D208E11A7AFB
:400A400003998A4200D203E15A7A04998A4200D2FEE09A7A05998A4200D2F9E0DB7A53459B415B423B747A696C4B9A4200D9B7E04B461B886A49CD3B9BB28B4200D9C6E0BF
:400A800000233B764B465B88CD3B9BB28B4200D9BDE04B469B88CD3B9BB28B4200D9B6E04B46DA88E623673A92B2DB009A4200D9ADE04A461289CD3A92B28A4200D9A6E072
:400AC0004A465289673A92B29A4200D99FE04A469289673A92B29A4200D998E04A46D289673A92B29A4200D991E04A46128A673A92B29A4200D98AE04B46E6225B8AD2003F
:400B0000673B9BB2934200D981E04B469B8A673B9BB293427BD84B46DB8ACD3B9BB28B4275D83E4B7A8B9A425AD80824394E727814402300591E8B41DBB2510701D50133A3
:400B4000DBB23178C80701D50133DBB2880701D50133DBB2480701D50133DBB2080701D50133DBB2C80601D50133DBB2012B5BD922230120F854213B002908D1002A61D1F6
:400B800000202223F854274B19705A700023797F4F2933D8082A50D000233B7796E40A4200D1A6E42323FA5400232132BB54BB7701F006F8012000F0DDFF06210B2000F070
:400BC00027FE96E400F0ACF93C70C3E401223A742C22BB6AFF320133BB62934200D85FE4FFF7F2FB01232C223B76FB8CFF3201339BB2FB84934200D8E2E5F1E7772923D912
:400C0000002C21D1012000F0B5FF3C775EE401233B7686E7AC020020440100206F300000640E0000BC020020002901D1002AA7D02223FB5C002BA6D0A9E7002BACD1013333
:400C40003B7743E40123A2E7002000F093FF3DE4012307E710B501F043FC03680C2B00D0FEE7FEE7F8B5104E002E18D000200F4DA9682C686A68002905D00023E75804333D
:400C800080C29942FAD1E9680023002903D0D05004339942FBD1013E1035002EE8D101F025FCFFF797FBFEE701000000242600000121104A70B513680F4C8B4313600F489A
:400CC000002200230E4D04E00133A1500432192B08D00100032BF7D851590133A1500432192BF6D1FFF79AF90123024A11680B43136070BD0000104000000020550C0000BA
:400D000000000000F8B50400182806D0102302009A43202A01D001BEF8BD072601F062FA1B4D1C4A2B680700B3432B601A4B1B48E3181B78DBB21360194A1368B34313604B
:400D4000184B0168E3181A787F23994313400B430360322001F03CFA182C03D8380001F045FAD9E723002A681C3B9B08B243334013432B60322001F02BFA183C2B68A408E5
:400D80003440B3431C432C60380001F02FFAC3E7080F03400C0F0340CDF1FF0F180F0340100F0340B4F1FF0F082800D901BE034B8000C318186819607047C0464000002058
:400DC000F8B504000E00032900D901BE082C00D901BE032701F006FA3D00094B25409C46A408A40064442168ED000B0031000635AF40A940BB431943216001F0F7F9F8BD83
:400E000000E400E01F2318401E3B8340014A13607047C04600E100E01F2318401E3B8340014A13607047C04680E100E01F2318401E3B8340014A13607047C04680E200E017
:400E400001BE7047F8B5802507002D02A84214D904000B4E706801F0BBF90A4B9C466444AC42F7D8084BFB18DB0BDB036744FF1AB068784301F0ACF9F8BD014EF8E7C046E7
:400E80009C0000200080FFFFFF7FFFFF10B501F0A9F9074B074A1B889BB213600423064A11680B43136030BF01F0A0F910BDC04652F1FF0F0400034010ED00E00022014B3E
:400EC0001A60704738000340014A024B1A6070476588EDAC38000340044A00041368000C1B0C1B04184310607047C04640000340024B18680004000C7047C0464000034035
:400F0000F02110B5044C0204044B206809030A4003401A43226010BD40000340FFFFF0FF0123024A11680B4313607047440003400123024A11680B43136070474C00034021
:400F400010B500F0A3FD00F0CBFD0021002000F0D3FD0021002000F0A5FDFF2000F0B2FD402000F085FD044A0449136807200B431360FFF747FF10BD040008400010088015
:400F8000F8B55F4656464D464446F0B44C4B1B78002B24D000F07AFD00F0A2FD0021002000F0AAFD0021002000F07CFD454CFF2000F088FD402000F05BFD2368424A0720B6
:400FC00013432360FFF71EFF80222368D203134323603CBC90469946A246AB46F8BD3B4B0C22002118009B4601F0AFFA0F203849384B0A68384C1A702378324D03401A005D
:401000002378364C834313430B60354A354B08381A60354B00262B602268344B1340C022D20213432360FFF7F7FE31490720FFF7BBFE03210720FFF7C3FE2B6821002B60BB
:401040002C4B99462C4B98462C4B9A4620E001F0C9F807224346A2401B68013693431F4343461F6001F0C2F8012211004B46A9401B688B4349460B600C2E1DD053460C338B
:40108000F35C9B0053449A6A99699B6B9046994653460F279D5D5B46AA00D2B29740985D0B686C00BB4306272C19E4B20B60A7400128CCD10027CAE7014B1A706AE7C04688
:4010C0003C02002004000840001008800803002000FF08400003002062F1FF0F000002400002000108000840C008A001FFFFF0FFF1190000000004400800044060250000AE
:4011000070B501210724074D0130C0B20C2807D022000E0002409640C308EB5C1E42F3D070BDC046B00000200120024B5B7818407047C0463C020020434BF0B54E464546B5
:4011400081469846C1444A4648235746D35C3F4C9B00E0B4E31807005E6800F097FC00F0BFFC3423E419E05C0021013880B200F0C3FC40239A46E05C0021013880B200F088
:4011800091FCFF2000F09EFC402000F071FC0720FFF742FE52462E4D07202B6813432B60FFF730FE0720FFF737FE2A482A4B026813404C22A15C0B431A00284BDB191B7F43
:4011C0001B04134303602C68254B07201C40254B1C43FFF717FE4B461B7B99464346DF5D01F000F882460F204B46B900C9B288409B0043449A699B6A94461268984682435D
:401200000420884019687B00FB180727DBB29F40B9430B0041460B60634602431A60504600F0E4FF00F0DEFF07002C60002000F0CFFF0D4B38001E6000F0D8FF1CBC90468E
:401240009946A246F0BDC04660250000B0000020040008400800084000FF80FF3C020020FF1FDFFF200020000C000840002210B5044BC1B25A702832995459325A70FFF792
:401280005BFF10BD3C020020F8B50023FF2207240120104E104D73702833F254F35CDBB20133DBB20C2B07D02100070019408F40DA08AA5C1742F3D02822B354B35C0B2B98
:4012C00007D8012371780B437370B05CC0B2FFF733FFF8BD3C020020B0000020F0B54746264B27491A684300CB1880B49A800F22244F3E5C3B181C7B234BB1001B5CC9B206
:401300008A409C46A4003B199869750003687519934303606346EDB2012B2BD00623AB40984600F05FFF0722AA403C19A16A0B689343424613430B6000F058FF0122B24051
:40134000A16B07200B6893430B60FFF765FD0F4A0F4B116807200B40A02109020B4313600C4A0D4B11680B401360FFF74BFD04BC9046F0BD00239846D3E7C0460C00084088
:401380003C020020602500000803002004000840FF1FDFFF0800084000FF80FF02000720CB08014006388840D35C1840431E98417047C046072310B5CC081940063B8B4020
:4013C0000419DBB2002A03D122789A43227010BD227813432370FAE7024B18184C23C05C7047C046B0000020024B18184C23C1547047C046B00000200C4B10B51B68002B1E
:4014000002DA01220A4B1A700720FFF705FD074A084B11680B40136013685B005B08136000F034FB00F05CFB10BDC0460400084068020020FFEFF7FF10B5FF2000F018FB4E
:40144000FF2000F03FFB034B1B78002B01D0FFF777FD10BD6802002070B50400FFF706FFFFF762FE0028FBD12426094B62001D5D084BD15A084B1C19A05520760748D1529A
:40148000445D30205B191C54054BD15270BDC046A8250000400200206C0200203801002020030020F8B55F4656464D464446174BF0B49B46164B00259A46164B002499469C
:4014C000154B30279846154E2000FFF7CFFEFFF72BFE0028FBD131001831605431005B462431605448461A5D5346B118825C5B5BCA55424601347353535302350C2CE3D18F
:401500003CBC90469946A246AB46F8BDA82500004002002038010020200300206C020020474BF0B51B5C56469A4644465F464D46444BF0B49B4653465B441B7B44009C4623
:40154000414B83B01B5B98465B461A7E4346002A08D042463D490B5BD2185B009B189B089BB20B533A490F5B9F422AD8002290464646384A16540126B046DA1B92B2664698
:401580006D46EE80EE88B44696423BD30D18A9462D7E3E023543ED1B5B191D0A0D534C46237600242B4B1C5494453DD3002224230818C25403B03CBC90469946A246AB4644
:4015C000F0BD56465E44FA1A367F92B2964228D25D4628271F4A2E18135CF75D9F422CD8434600270B530B181F765346CB189C4653466646ED5C3023F5544546134B175436
:401600001D53D3E75D4655442D7F95420CD94546002DBBD0FF2A0CD9FF2224230818C254C8E70026B046AAE74346002BBED0FF2AF2D824230818C254BCE701331354B5E705
:40164000A82500003801002040020020200300206C02002014030020F0B55F46444656464D46F0B4544B85B09846544B544E554D554F00249B4605E0013401360235023734
:401680000C2C58D021004046FFF788FE0028F3D04E4B1B5D0193019A5B46944663441B7B4B4A9C466300D35A99465B461A7E4B46002A07D04A463B88D2185B009B189B0825
:4016C0009BB23B802888984247D8002232701A1A92B2029201229246624602A9CA80CA889446029A944508D2019A5A44117F029A914227D95246002A27D1324A110018229D
:40170000914649448946625C010211434A46081A1B18190AA35400233370029B29809C4510D30022274B01362433E2540134023502370C2CA6D105B03CBC90469946A2469C
:40174000AB46F0BD5346002BEBD0029BFF2B2DD9FF221C4B2433E2548EE7C21A92B20292019A9246DA445246127F9246029A924516D25A4628323378A25C9A4213D84B4659
:401780002B8000230F4A01991832A3540D4A337050185A46515C302281544A463A80C0E70022924698E701333370BAE7054B02AA12782433E2545FE7B000002038010020ED
:4017C000140300206C02002020030020A825000040020020024B18183423C05C7047C04638010020024B18184023C05C7047C04638010020024B18183423C1547047C046F4
:4018000038010020014B18180173704738010020014B19547047C04638010020F0B5444656464D465F462E4BF0B41C5C1818037B83B01B190093002301932A4B99462A4BC0
:401840009A464023534498460EE0BE1BB34235DB21004046FFF7A2FD002801D001230193009B0134A34233D9204B34221D5D4B465B199F5C0C329E5C4B465B5D21004046D3
:401880009B46FFF78BFD53462433E35C0028DCD1BE19B3420DDB30225544AB5C013BDBB2AB54002BD4D12F3A21004046FFF782FDCEE730235A465544EA54C9E70022210090
:4018C0004046FFF777FD30235A465544EA54BFE7019803B03CBC90469946A246AB46F0BDE4250000380100206C020020A8250000F0B55F4656464D4644460023F0B485B04D
:4019000003930293334B9A46334B9B463349029A0B000C338C5CD35C1B1900930023019340335B4498460EE0BE1BB34235DB21004046FFF733FD002801D001230193009BF3
:401940000134A34233D9264B34221D5D53465B199F5C0C329E5C53465B5D210040469946FFF71CFD5B462433E35C0028DCD1BE19B3420DDB30225D44AB5C013BDBB2AB5458
:40198000002BD4D12F3A21004046FFF713FDCEE730234A465D44EA54C9E7002221004046FFF708FD30234A465D44EA54BFE7019B002B01D001230393029B013302930C2BFF
:4019C000A4D1039805B03CBC90469946A246AB46F0BDC046380100206C020020E4250000A82500004B0018184118890888B2704770B501260720FFF70FFA174B174D1E6020
:401A00002878C0B2FFF76AFC154C23785BB2002B19DB2878C0B2FFF773FB28702B780B2B15D92378B343237023785B0607D502220C490D4800F080FD02220C4B1A700720D8
:401A4000FFF7E0F970BD2378B3432370F7E72878C0B2FFF771FBF2E714000840640200203D02002004030020B0000020AE020020044A1368002BFCDB034B00021843014B51
:401A8000186070470000014041000080034A1368002BFCDB024A014B1A607047000001404100004010B5FF24C9002140000208430721034A13680B401843106010BDC04668
:401AC00004030140044A1368002BFCDB034B00021843014B186070470000014040000080034A1368002BFCDB024A014B1A607047000001404000004010B5FF24C900214046
:401B0000000208430721034A13680B401843106010BDC0460003014010B51024074B1C60074B186500F05EFBC023064A11680B43136000F05BFB044B1C6010BD80E100E0D0
:401B40000000002004E400E000E100E01022034B1A60034A034B1A657047C04680E100E0550C0000000000201022014B1A60704780E200E00300042004499B000A688243F2
:401B8000D2B21840104308607047C0460003044010B5094C2378002B03D100F045F8012323708021054A0906136805200B431360FFF728F910BDC046B00200200000064090
:401BC00010B50520FFF728F900F08AF8054A052013685B005B0813600022034B1A60FFF725F910BD00000640880F064080220A4B5200196811420AD008490968490406D484
:401C0000186807490140196019680A431A600222044B1A607047C0460000064060000640FFFEFFFF6C00064010B50024184B194A1C60194B19491A60194B1A4A05201360C4
:401C4000194A1460194A1160194A1360194B1C60FFF7E2F803210520FFF7B2F816490520FFF7A2F85222154BFF321C60144B1A600022144B1C60144B1C60144B1C60144BCA
:401C80001C70144B1C70144B1C80144B1A7010BD0000064000080040600006409E00FE00070100800003064004030640100306400002064004020640411D0000880E0640E7
:401CC000480F0640080F0640C80F0640880F06403C030020400300203A030020380300200022014B1A7070473C03002010B50520FFF792F81F21054B05201C781A78E4B28D
:401D00008A431A70FFF77EF8200010BD4003002070B506000D00141E0BD00520FFF77CF8044B05201C60044B1E80044B1D80FFF769F870BD44030020480300203E0300203C
:401D4000F8B54F464646B54BC0B41B68002B00D09847B34BB34D1E68B34B2C881F680223FF3333402DD02021B04A13685B005B081360AF4B1A788A431A70102219780A4366
:401D80001A70AC4A1268D20600D48DE0022219780A431A70A84AA94B11680B40136000238021A74A09061360A24A1360A54A13709E4A13680B4313602C800CBC9046994612
:401DC000F8BDFA0601D5A04A13600A233B424CD102231F40002F1AD0F30614D50023984A1360944A1360994B1A780A23944200D1F8E08F4A334011780B4320218B43137015
:401E00000022904B1A70730658D4854B1E60864B1B685B07D0D58E4B8E4E98461A888E4BFF271B688D489C4600230F2199460DE063461B191B78013ADBB233600123994672
:401E40000368013492B20B40082B06D0002AEFD1376003680B40082BF8D14B46002B00D0D9E010227E4B1A60A6E77E4B1B685B074FD57D4B73491A680B78002B00D191E0E8
:401E8000012B7BD1724988460988002900D1ABE07648D2B20360704B01391B681B191A704346013419806CE0684A1278A24200D170E7082219780A431A706BE720235C4A78
:401EC00011780B431370614B1C78694B1A68102313424FD08020674A5D4912884002121B0A80654A1168014311601068634901401160504A13600122614B62491A60484B9A
:401F0000196010236049086803430B60574B1A607BE7494A13689B0400D459E702231F4033D14B4B1988083989B2198008295ED800296ED000239846474B4B489C466118C9
:401F4000634602681B68D2B21B1901341A708C42F6D14346002B09D18020374A000213680C00034313600022354B1A600C22474B1A602FE70422324B1A60BCE70020FEF78D
:401F80005FFF0422414B1A6022E70F21404B1B6810681940294B03401360012398460029CAD1E3E73348008882421DD201242F4804603848008882421DD2801A244C80B218
:401FC0002080072819D908281AD080201A4980010B6803430B600821194B19601B4B14001A70CEE7083B04E7FFF700FEC9E7012308219846A0E71648038001230B70EDE7C7
:40200000A0240D4824020168214301600C490B60E4E72100A0E743461A8022E7B4020020400F06403A030020000E06400000064040030020880F064060000640FF5FFFFF30
:40204000C80F06403C030020880E064038030020B8020020400206404403002008020640800F0640CC0F0640400306406C000640640006404803002004020640FFFFFEFF07
:40208000800E0640FF0F0000480F0640C00F0640080306403E03002010B51B4A1378002B1DD1C0210C20194B890019601849086018490A3808601848184908601B689B037B
:4020C0009B0F012B1DD0591E8B4115498C46634414490B600021144B19600123137000F081F80123114A11680B43136000F07EF800F078F880220E4B52041A6000F076F88A
:4021000010BD0C4BE4E7C046BA020020000105402401054038010540A60E000014010540A50E00000C010540080105400000054008000540A70E0000014B18607047C04677
:4021400030010540044A1368002BFCDB034B00021843014B18607047000001404200008010B58024084B64001C60084B186600F039F8C023064A11680B43136000F036F8DC
:40218000044B1C6010BDC04680E100E00000002008E400E000E100E00300402004499B010A688243D2B21840104308607047C046000004400300202004495B010A68824355
:4021C000D2B21840104308607047C046000004400230800804D0C0460138FDD1C046C046C0467047EFF3108072B6704780F310887047C046002243088B4274D303098B4270
:402200005FD3030A8B4244D3030B8B4228D3030C8B420DD3FF22090212BA030C8B4202D31212090265D0030B8B4219D300E0090AC30B8B4201D3CB03C01A5241830B8B421D
:4022400001D38B03C01A5241430B8B4201D34B03C01A5241030B8B4201D30B03C01A5241C30A8B4201D3CB02C01A5241830A8B4201D38B02C01A5241430A8B4201D34B02B0
:40228000C01A5241030A8B4201D30B02C01A5241CDD2C3098B4201D3CB01C01A524183098B4201D38B01C01A524143098B4201D34B01C01A524103098B4201D30B01C01AE5
:4022C0005241C3088B4201D3CB00C01A524183088B4201D38B00C01A524143088B4201D34B00C01A5241411A00D20146524110467047FFE701B5002000F0F0F802BDC04672
:402300000029F7D076E7704703460B437FD4002243088B4274D303098B425FD3030A8B4244D3030B8B4228D3030C8B420DD3FF22090212BA030C8B4202D31212090265D093
:40234000030B8B4219D300E0090AC30B8B4201D3CB03C01A5241830B8B4201D38B03C01A5241430B8B4201D34B03C01A5241030B8B4201D30B03C01A5241C30A8B4201D38D
:40238000CB02C01A5241830A8B4201D38B02C01A5241430A8B4201D34B02C01A5241030A8B4201D30B02C01A5241CDD2C3098B4201D3CB01C01A524183098B4201D38B01ED
:4023C000C01A524143098B4201D34B01C01A524103098B4201D30B01C01A5241C3088B4201D3CB00C01A524183088B4201D38B00C01A524143088B4201D34B00C01A524138
:40240000411A00D201465241104670475DE0CA0F00D04942031000D34042534000229C4603098B422DD3030A8B4212D3FC22890112BA030A8B420CD3890192118B4208D37E
:40244000890192118B4204D389013AD0921100E08909C3098B4201D3CB01C01A524183098B4201D38B01C01A524143098B4201D34B01C01A524103098B4201D30B01C01ADD
:402480005241C3088B4201D3CB00C01A524183088B4201D38B00C01A5241D9D243088B4201D34B00C01A5241411A00D20146634652415B10104601D34042002B00D5494220
:4024C000704763465B1000D3404201B5002000F005F802BD0029F8D016E770477047C046014B18687047C046E40100200E4B70B500251E000D4CE41AA410A54204D0AB0018
:40250000F35898470135F8E700F07AF8084B00251E00084CE41AA410A54204D0AB00F35898470135F8E770BD0C2600000C2600000C26000014260000002310B59A4203D025
:40254000CC5CC4540133F9E710BD03008218934202D019700133FAE770470000000000000200070007010405060003010000000101010101010200000000024000010240F0
:4025800000020240000302400800044008010440080204400803044000000440000104400002044000030440000102030405060708090A0B0400000001000000800000007F
:4025C000010000008000000002000000100000002000000040000000010000000800000002000000000102030405060708090A0B010101010101010101010101430000004C
:40260000F8B5C046F8BC08BC9E46704755010000B10C0000F8B5C046F8BC08BC9E4670472D0100003826000068000020800100006801000000000000000000006009000094
:402640006009000060090000B004000060090000B0040000B0040000B0040000B0040000B0040000B0040000600900000100000000007017E02E00000C000000001BB70056
:40268000FF0F00000000FF0F0000FF0F0000FF0F0000FF070000FF0F0000FF070000FF070000FF070000FF070000FF070000FF070000FF0F02020202020202020202020284
:4026C0000404040404040404040404041F21141518131614130F1E1E080004400800044008000440080104400801044008010440080104400801044008010440080204408E
:40270000080004400800044003030303030303030303020322202B14231915171B1A101E010000001E1E1E1E1E1E1E1E1E1E1E1E323232323232323232323232302D3E1D19
:4027400032231E212625172B0505050505050505050505050000000000000000000000000000000000000000000000000000000000000000FC2500000000000000000000DB
:402780000000000000000000000000000000000000000000000000000000000000000000000000000000000000000000000000000000000084010020000000000000000074
:4027C00000000000000000000000000000000000000000000000000000000000000000000000000000000000000000000000000000000000000000000000000000000000D9
:402800000000000000000000000000000000000000000000000000000000000000000000000000000000000000000000000000000000000000000000000000000000000098
:402840000000000000000000000000000000000000000000000000000000000000000000000000000000000000000000000000000000000000000000000000000000000058
:402880000000000000000000000000000000000000000000000000000000000000000000000000000000000000000000000000000000000000000000000000000000000018
:403FC00001202370410000000000000000000000000000000000000000000000000000000000000000000000000000000000000000000000000000000000000000000000CC
:0200000490303A
:020000000D6889
:0200000490402A
:2000000000000000000000000000000000000000FFFFFFFFFFFFFFFFFFFFFFFFFFFFFFFFF0
:0200000490501A
:0C00000000020A48119A00000A551F0275
:0200000490600A
:0100000001FE
:00000001FF