:400000000008002011000000A10C0000A10C000010B500F0B1FF00F04BFEC04670B572B6EE220024264B12021A60264B264A1C60972326491360264A264D1160264A182014
:400040001360FF22254B1A609022254B12011A60F322244B1A600123234A1360234A13600722234B1A60234BB032FF321A6011232B6000F08FFE204B204A1C60204B214903
:400080001A60FE2212020A601F4919601F490A601F4A1A601F4A14601F4A1A6004221F4B1A601F4B3E321A601E4B023A1A601E4B01321A601D4B02321A602C6070BDC0466A
:4000C000000102400003024000000440000C1B00080004403000104018000440000104400801044018010440000204401802044000030440080304400803014042FF0080AF
:40010000000001400003014040FF00800403014041FF00800C03014043FF0080280003400C01014008010140040101400001014010B5064C2378002B07D1054B002B02D0D4
:40014000044800E000BF0123237010BD1802002000000000E82B0000084B10B5002B03D00749084800E000BF07480368002B00D110BD064B002BFBD09847F9E700000000E5
:400180001C020020E82B0000680000200000000010B5022001F062FF0122264B26491A705A688A4201D801325A601A7A012A3CD0DA6822498A4214D9197C0022012916D054
:4001C000197E5A610022012918D05A831A7F012A1BD000225A779A7F012A1ED000221A8410BD197C0132DA6000220129E8D15A69197E01325A6100220129E6D15A8B0132D1
:4002000092B25A831A7F012AE3D15A7F7C2AE2D801325A779A7F012AE0D197211A8C89008A42DDD801321A84DAE70022DA601A72C2E7C04634020020D9070000B90400006F
:4002400010B500F0C5FE01F0D9FC00F0A9FE044B1B889A00D318DB00181800F095FE10BD36030020F8B55F4656464D464446464BF0B49946454B464F464E00259A469B46C0
:400280000DE0E0000A2102F0FBFA404522D801239C46013502370436E1440B2D4BD034683B886000001980000A21984602F0E8FA8045E6D9280001F0E7F85B465B5D9842D5
:4002C0003FD034683B88E0000A21984602F0D8FA4045DCD9280001F0D7F853465C5D8046E00000190301181A642102F053FB8045CDD12100280001F0CFF84B462800197807
:4003000001F0B4FA4B461C78280001F0A7FA013C211A89B2280001F0B1FA280001F0F4F8052000F0E7FD01239C46013502370436E1440B2DB3D13CBC90469946A246AB46B4
:40034000F8BDC30018180301181A642102F022FB0100280001F0A0F84B461B7864219800C0180301C01802F015FB81B2280001F07DFA4B461B7864219800C0180301C018AA
:4003800002F008FB84B2BFE71003002020030020A00200206C000020F8B500250024084F084E200000F0BAFF00F016FF0028FBD1735B01347B5302350B2CF2D1F8BDC04686
:4003C000580300207402002010B50400084B1880084B198001F004FC074800F0D5FD200000F0E6FD00F0C2FD00F0FAFD10BDC0463403002036030020FFFF000010B5142146
:400400000520FFF7E1FFFEE7F0B55F4656464D464446F0B483B062B60024002001F06AFE002001F059FE002001F048FE002001F0ABFD002001F0B6FDFF2001F015FED148D5
:4004400001F020FE01F0BAFDCF4F0821380001F043FD0721CD4801F05DFD01F023FC14210120FFF7B1FF01F0CFFBC94806222C30C84901F0CBFBC84EC84D200001F004F831
:400480003055200001F0E2F9285501340B2CF4D1142000F02FFD142000F02CFD00F0C8FDFFF77AFF10230193BD4B9B46BD4B9946BD4B9A4600250026300000F02FFF00F054
:4004C0008BFE0028FBD15B460400585BB74B9846A8444346198801F0CFFA43461880B44B58534B469C55534601365C5302350B2EE2D1019B013BDBB20193002BDAD1AD4DBF
:400500002323EC5C002C49D12B78012B00D11DE3AB7F012B00D1C5E1A74BEA689A4200D994E1A64A1378002B00D01EE201F0A6FCC30600D5ACE101F0A1FC01230342DFD032
:4005400004242B729D4B1C7001F004FD01F09CFC2522AB5C022B00D15AE3042B00D181E32223EB5C002B00D0F7E2954EEB333B7033787B707278144201D003210A40513B2D
:40058000D318FB712323C2200021EC5C3871C038BA70F9707871B971002CB5D000F018FD2323EB5C002BB3D0864B864A1C881B78854813806423854A138001F0F7FA00F028
:4005C000EFFC824B1B889A00D318DB00181800F0DBFCE0B200F0ECFC00F0C8FC00F000FD00F062FF00F0AAFC00F07EFF26230022EA54774B724E9946012398460A2000F0C4
:400600008DFE00F0E9FD0028FBD10A3000F0E0FF0A2001F041F94B4600241870200000F07DFE00F0D9FD0028FBD1200000F0D0FF2000013401F030F90A2CEFD14246404633
:4006400071788B0813403278104201D00133DBB20220104201D00133DBB2012B00D8E7E022234046E854002A00D0EBE0002900D0E8E000232222AB544B461B78002B00D03A
:400680001BE12622AB5C0133DBB2AB54022BB5D95B461B884F4A9B3BFF3B9BB2934200D948E200232B765B465B889B3BFF3B9BB2934200D93EE25B469A88474BCD3A92B24F
:4006C0009A4200D936E25A46D288CD3A92B29A4200D92FE25A461289CD3A92B29A4200D928E25A465289CD3A92B29A4200D921E25A469289CD3A92B29A4200D91AE25A4608
:40070000D289CD3A92B29A4200D913E25A46128ACD3A92B29A4200D90CE25B46E6225B8AD200673B9BB2934200D903E25B469B8A284A9B3BFF3B9BB2934200D9FAE100231C
:400740002B855246254B11881A88914200D9E5E1524651885A88914200D9DFE1524691889A88914200D9D9E15246D188DA88914200D9D3E1524611891A89914200D9CDE13A
:400780002EE0C046910100002C030020040300206C000020C03F0000200300201003002074020020B8020020C402002058030020A002002034020020AF0400001C03002041
:4007C000E80200203403002041020000360300201B030020CA1C0000640E000044010020524651895A89914200D997E1524691899A89914200D991E15246D189DA8991426D
:4008000000D98BE15246118A1A8A914200D985E15246518A5A8A914200D97FE152469B8A928A9A4200D979E10023EB622B7467E6002A02D1002900D11BE72223EB5C002B33
:4008400000D119E700234A4613701AE7012223230024EA54013BEC54AC7701F03BFA012001F084FB0A20062101F010F824230020EC542434032101F009F8285D0130C0B2C8
:4008800028550928F6D901F0F9FAC30600D452E601F05AFB072800D16FE101F061FB01F007FB48E696232A8C9B009A4200D833E60023AB7700F04EFE2EE6CB4BCA4A1C88C4
:4008C0001B78138001F08CF9C84800F05DFBE0B200F06EFB00F04AFB00F082FB01F0E2F923220023AB54EB600133AB772B7700207C336B7701F03AFBFF2001F0B5FBBC4866
:4009000001F0C0FB01F05AFB9620800000F0F2FA0821002000F0BAFF0821012000F0B6FF1421022000F0B2FF1421032000F0AEFF0821042000F0AAFF0821052000F0A6FF1C
:400940000821062000F0A2FF0821072000F09EFF0821082000F09AFF0821092000F096FF08210A2000F092FF92E6013B137000F0E3FC00F031FC0028FBD1FFF773FC00F0C9
:40098000AFFE00F0F9FF52469A4B11881A88914200D980E1524651885A88914200D97AE1524691889A88914200D974E15246D188DA88914200D96EE1524611891A899142B9
:4009C00000D968E1524651895A89914200D962E1524691899A89914200D95CE15246D189DA89914200D956E15246118A1A8A914200D950E15246518A5A8A914200D94AE1B9
:400A000052469B8A928A93429B415B422B746A69794B9A4200D98BE05B461B88774A9B3BFF3B9BB2934200D994E000232B765B465B889B3BFF3B9BB2934200D98AE05B4657
:400A40009A886F4BCD3A92B29A4200D982E05A46D288CD3A92B29A4200D97BE05A461289CD3A92B29A4275D85A465289CD3A92B29A426FD85A469289CD3A92B29A4269D828
:400A80005A46D289CD3A92B29A4263D85A46128ACD3A92B29A425DD85B46E6225B8AD200673B9BB2934255D85B469B8A534A9B3BFF3B9BB293424DD84F4B6A8B9A4237D8BC
:400AC0000424504E71780C4023005A1E93413278DBB2D00701D50133DBB2900701D50133DBB2012B00D8A2E001202223E854002A07D1002905D100202223E854424B1A70D8
:400B000059706B7F4F2B00D89FE0772B31D9002C2FD1012001F02AFA2C7707E501222A742C22EB6AFF320133EB62934200D8E7E4FFF764FC01232C222B762B8DFF32013380
:400B40009BB22B85934200D8FBE5F1E700F040FA2C7025E501232B76AEE7EB232A4A3B701378284E7B70717852780C4200D106E503E5002001F0FAF9D8E4244B5A79197898
:400B80005B78C918214B9B78C918204BDB78C9181E4B1B79CB181D49D3188979DBB2994200D07AE62523EA54012A00D075E60024023BEA54013BEC54AC7701F08BF8012008
:400BC00001F0D4F90A20062100F060FE24230020EC542434032100F059FE285D0130C0B228550928F6D958E634030020FFFF000091010000440100206F300000CA1C00007A
:400C0000640E0000E80200200C03002004030020E9333B70CB3B7B701B3BFB70FA333B717B71B73BBB713333BA70FB7168E4002A02D1002900D15EE72223EB5C002B00D17A
:400C40005CE76B7F4F2B00D95FE7012001F08EF973785B071BD52223EB5C002B17D101332B7763E4E7330D4A3B70B73BD05C343278705378BB709178EE22C3184B3BCB1841
:400C8000F9703A717A71BA71FB71FFF739FC00232B77FFF74BFC0123B8E6C0466C00002010B501F063FF03680C2B00D0FEE7FEE7F8B5104E002E18D000200F4DA9682C6887
:400CC0006A68002905D00023E758043380C29942FAD1E9680023002903D0D05004339942FBD1013E1035002EE8D101F045FFFFF78BFBFEE701000000AC2C00000121104ADF
:400D000070B513680F4C8B4313600F48002200230E4D04E00133A1500432192B08D00100032BF7D851590133A1500432192BF6D1FFF774F90123024A11680B43136070BDDD
:400D40000000104000000020A10C0000000000008021034A090613680B4313607047C04630000340024A13685B005B08136070473000034010B5040001F0D4F903230449D1
:400D80000A689A43234013430B6001F0CFF910BD28000340F8B50400182806D0102302009A43202A01D001BEF8BD072601F0BAF91B4D1C4A2B680700B3432B601A4B1B48E5
:400DC000E3181B78DBB21360194A1368B3431360184B0168E3181A787F23994313400B430360322001F094F9182C03D8380001F09DF9D9E723002A681C3B9B08B2433340BE
:400E000013432B60322001F083F9183C2B68A4083440B3431C432C60380001F087F9C3E7080F03400C0F0340CDF1FF0F180F0340100F0340B4F1FF0F10B5040001F072F9AF
:400E4000A3000C24044923400A68A24313430B6001F06CF910BDC04628000340082800D901BE034B8000C318186819607047C04640000020F8B504000E00032900D901BE39
:400E8000082C00D901BE032701F04CF93D00094B25409C46A408A40064442168ED000B0031000635AF40A940BB431943216001F03DF9F8BD00E400E01F2318401E3B834040
:400EC000014A13607047C04600E100E01F2318401E3B8340014A13607047C04680E100E01F2318401E3B8340014A13607047C04680E200E0F8B5802507002D02A84214D972
:400F000004000B4E706801F003F90A4B9C466444AC42F7D8084BFB18DB0BDB036744FF1AB068784301F0F4F8F8BD014EF8E7C046A40000200080FFFFFF7FFFFF10B501F0F8
:400F4000F1F8074B074A1B889BB213600423064A11680B43136030BF01F0E8F810BDC04652F1FF0F0400034010ED00E00022014B1A60704738000340014A024B1A607047E6
:400F80006588EDAC38000340044A00041368000C1B0C1B04184310607047C04640000340024B18680004000C7047C04640000340F02110B5044C0204044B206809030A4090
:400FC00003401A43226010BD40000340FFFFF0FF0123024A11680B4313607047440003400123024A11680B43136070474C00034010B500F095FD00F0BDFD0021002000F098
:40100000C5FD0021002000F097FDFF2000F0A4FD402000F077FD044A0449136807200B431360FFF749FF10BD0400084000100880F8B55F4656464D464446F0B44C4B1B78EF
:40104000002B24D000F06CFD00F094FD0021002000F09CFD0021002000F06EFD454CFF2000F07AFD402000F04DFD2368424A072013432360FFF720FF80222368D2031343DC
:4010800023603CBC90469946A246AB46F8BD3B4B0B22002118009B4601F09DFD0F203849384B0A68384C1A702378324D03401A002378364C834313430B60354A354B08380D
:4010C0001A60354B00262B602268344B1340C022D20213432360FFF7F9FE31490720FFF7BDFE03210720FFF7C5FE2B6821002B602C4B99462C4B98462C4B9A4620E001F0E5
:4011000011F807224346A2401B68013693431F4343461F6001F00AF8012211004B46A9401B688B4349460B600B2E1DD053460C33F35C9B0053449A6A99699B6B90469946EC
:4011400053460F279D5D5B46AA00D2B29740985D0B686C00BB4306272C19E4B20B60A7400128CCD10027CAE7014B1A706AE7C0467002002004000840001008804003002030
:4011800000FF08403803002062F1FF0F000002400002000108000840C008A001FFFFF0FF851A00000000044008000440EC2B000070B501210724074D0130C0B20B2807D088
:4011C00022000E0002409640C308EB5C1E42F3D070BDC046B80000200120024B5B7818407047C04670020020434BF0B54546984648234E46814657469A46C14452464B4672
:401200009B5C3E4C9B00E0B4E31807005E6800F087FC00F0AFFC3023E419E05C0021013880B200F0B3FC3C23E05C0021013880B200F082FCFF2000F08FFC402000F062FC94
:401240000720FFF743FE40232D4D07202A6813432B60FFF731FE0720FFF738FE29482A4B026813405246A15C0B431A00274BDB191B7F1B04134303602C68254B07201C4022
:40128000244B1C43FFF718FE4B461B7B99464346DF5D00F047FF82460F204B46B900C9B288409B0043449A699B6A94461268984682430420884019687B00FB180727DBB2F8
:4012C0009F40B9430B0041460B60634602431A60504600F02BFF00F025FF07002C60002000F016FF0C4B38001E6000F01FFF1CBC90469946A246F0BDEC2B0000B800002006
:40130000040008400800084000FF80FF70020020FF1FDFFF200020000C000840002210B5044BC1B25A70273299545A325A70FFF75BFF10BD70020020F8B50023FF22072497
:401340000120104E104D73702733F254F35CDBB20133DBB20B2B07D02100070019408F40DA08AA5C1742F3D02722B354B35C0A2B07D8012371780B437370B05CC0B2FFF7EB
:4013800033FFF8BD70020020B8000020F0B54746264B27491A684300CB1880B49A800F22244F3E5C3B181C7B234BB1001B5CC9B28A409C46A4003B19986975000368751987
:4013C000934303606346EDB2012B2BD00623AB40984600F0A7FE0722AA403C19A16A0B689343424613430B6000F0A0FE0122B240A16B07200B6893430B60FFF767FD0F4A7C
:401400000F4B116807200B40A02109020B4313600C4A0D4B11680B401360FFF74DFD04BC9046F0BD00239846D3E7C0460C00084070020020EC2B0000400300200400084005
:40144000FF1FDFFF0800084000FF80FF02000720CB08014006388840D35C1840431E98417047C046072310B5CC081940063B8B400419DBB2002A03D122789A43227010BD3B
:40148000227813432370FAE7024B18184823C05C7047C046B8000020024B18184823C1547047C046B80000200C4B10B51B68002B02DA01220A4B1A700720FFF707FD074A83
:4014C000084B11680B40136013685B005B08136000F026FB00F04EFB10BDC046040008409C020020FFEFF7FF10B5FF2000F00AFBFF2000F031FB034B1B78002B01D0FFF7C4
:4015000077FD10BD9C02002070B50400FFF706FFFFF762FE0028FBD1094B62001D5D094BD15A094B1C1920769C18A0840748D152445D3C205B191C54054BD15270BDC0469F
:40154000342C000074020020A00200203801002058030020F8B55F4656464D464446174BF0B49B46164B00259A46164B00249946154B3C279846154E2000FFF7CFFEFFF746
:401580002BFE0028FBD131001831605431005B462431685248461A5D5346B118825C5B5BCA55424601347353535302350B2CE3D13CBC90469946A246AB46F8BD342C0000FF
:4015C000740200203801002058030020A0020020F0B54D465F46444656463B4BF0B41B5C3A4D99465B009B46EB189B8941009C46374B5B5A98462223EA5C4346002A08D004
:401600004246344C635AD2185B009B189B089BB26352314A575A9F4223D80024A04646462E4C26540126B046DC1BA4B2A44537D31518A9462D7E3E023543ED1B5B191D0A37
:4016400055524D462B760025244B1D54A44533D30025521895843CBC90469946A246AB46F0BD5E46AE19FC1AB68CA4B2A64220D23C261A4C2F18235CBF5D9F4221D84346C0
:401680005352002317189C463B764B464F46ED5C4346D719BD550F4D6B5263462354D7E75D44AD8CA54207D946462500002ED0D1BEE70026B046B9E74346002BC8D02500BC
:4016C000C7E701332354C3E7342C0000380100207402002058030020A00200204C030020F0B54D4644465F465646F0B4504B85B09946504B504E00250024504F984604E0B3
:401700000134023501360B2C57D021003800FFF79DFE0028F4D04A4B1B5D9A465B000193019A4B46944663449B894A460393454B5B5B9C462223D25C6346002A09D0604612
:40174000414AAA181388C0185B001B189B089BB213804246505B98423FD8002232701A1A92B20292012292460299039A8A4208D2019A4A44918C029A914225D95246002A56
:4017800025D1182242449446A25C010211434246081A1B18190A51536246A3540023029A3370039B93420FD34346002224330134EA52013602350B2CA7D105B03CBC904637
:4017C0009946A246AB46F0BD5346002BECD06A46434612892433EA5292E7C21A92B211000292019A9346CB445A46928C93468B4518D24A463C323378A25C9A4215D8434692
:4018000062465A53424600231832A35450464A464146105C3C225144885461460A4A33705153C1E7002292469FE701333370BBE738010020A00200204C030020B80000203A
:40184000342C00007402002058030020024B400018184823C05A704738010020024B400018186023C05A704738010020024B400018184823C152704738010020024B400063
:40188000181881817047C04638010020014B19547047C04638010020F0B544465F4656464D46314AF0B42432904648222F4B83B01C5C1818037B94461B19009363009844A6
:4018C000002301932A4B47469A46274B6344994610E04246961BB34232DB21004846FFF7B5FD002801D001230193009B01340237A34231D948221F4B21001D5D48466B00C4
:4019000053449A5A904660229E5A53465B5D9B46FFF79CFD3B880028DBD14644B34214DB114B3C229C466544AB5C013BDBB2AB54002BD2D13B3A21004846FFF793FDCCE7C7
:40194000002221004846FFF78DFD074B5A469C463C236544EA54C0E7019803B03CBC90469946A246AB46F0BDA00200206C2C000038010020342C0000F0B55F4656464D464A
:4019800044460023F0B485B003930293354B9B463549029A0B000C338C5CD35C334A1B19904648220093630098440023944601932F4B47466344994610E04246961BB3429B
:4019C00032DB21004846FFF741FD002801D001230193009B01340237A34231D94822254B21001D5D48466B005B449A5A904660229E5A5B465B5D9A46FFF728FD3B880028BE
:401A0000DBD14644B34214DB194B3C229C466544AB5C013BDBB2AB54002BD2D13B3A21004846FFF71FFDCCE7002221004846FFF719FD0F4B52469C463C236544EA54C0E71B
:401A4000019B002B01D001230393029B013302930B2B9DD1039805B03CBC90469946A246AB46F0BD380100206C2C0000C4020020A0020020342C00004B0018184118890829
:401A800088B2704770B501260720FFF71FFA174B174D1E602878C0B2FFF778FC154C23785BB2002B19DB2878C0B2FFF781FB28702B780A2B15D92378B343237023785B06C9
:401AC00007D502220C490D4801F07CF802220C4B1A700720FFF7F0F970BD2378B3432370F7E72878C0B2FFF77FFBF2E71400084097020020710200203C030020B800002063
:401B0000EA020020044A1368002BFCDB034B00021843014B186070470000014041000080034A1368002BFCDB024A014B1A607047000001404100004010B5FF24C90021403F
:401B4000000208430721034A13680B401843106010BDC04604030140044A1368002BFCDB034B00021843014B186070470000014040000080034A1368002BFCDB024A014BA3
:401B80001A607047000001404000004010B5FF24C9002140000208430721034A13680B401843106010BDC0460003014010B51024074B1C60074B186500F0B4FAC023064A50
:401BC00011680B43136000F0B1FA044B1C6010BD80E100E00000002004E400E000E100E01022034B1A60034A034B1A657047C04680E100E0A10C0000000000201022014B31
:401C00001A60704780E200E07047C046F0B55F464D46444656468023F0B490468A18814691B00F00DB0101209A4231D88B041B0E9A4643468C0B24025444A401002B2ED075
:401C40006B46EB4600251E1B2200403208E0A84508D94B465B5D013533550134944207D0A742F4D92378DBB2335501349442F7D15046594600F05EFA01239C46E244454585
:401C800002D2403E0028DFD0012801D90120404211B03CBC90469946A246AB46F0BD0020F6E7C04610B5094C2378002B03D100F045F8012323708021054A09061368052027
:401CC0000B431360FFF7F8F810BDC046EC0200200000064010B50520FFF7F8F800F090F8054A052013685B005B0813600022034B1A60FFF7F5F810BD00000640880F0640F1
:401D000080220A4B5200196811420AD008490968490406D4186807490140196019680A431A600222044B1A607047C0460000064060000640FFFEFFFF6C00064010B50024C5
:401D40001A4B1B4A1C601B4B1B491A601B4B1C4A052013601B4A14601B4A11601B4A13601B4B1C60FFF7B2F803210520FFF782F818490520FFF772F84C22174BFF321C6050
:401D8000164B1A60164B3C3A1C60164BFF3A1C60154B1C60154B1A70154B1C70154B1C60154B1C60154B1C7010BDC04600000640FD080040600006409E00FE000701008061
:401DC0000003064004030640100306400002064004020640D5240000880E0640480F0640080F0640C80F0640880F06406E0300208403002070030020740300209003002082
:401E00000023044A1360044A13601022034B1A707047C046680006406C0006406E0300200E4A10B513680E495B005B08136000230B600C490C480B6004680C492140016000
:401E40000B490B600B490B6010210B4B19708021136809060B43136010BDC04600000640680006406C00064060000640FF5CFFFF880F0640C80F06406E030020014B187809
:401E8000C0B270478403002010B50520FFF71EF80D21064B05201C781A78E4B28A431A70FFF70AF80F20204010BDC0468403002010B50520FFF70AF82F21064B05201C7868
:401EC0001A78E4B20A401A70FEF7F6FF0F232000984310BD8403002070B504000D0000280ED00520FEF7F2FF064B074A1C60074B05201D6000231360054A1360FEF7DCFFDA
:401F000070BDC04680030020700300207C0300208803002070B504000D0000280CD00520FEF7D4FF0022054B05201C60044B1D60044B1A60FEF7C0FF70BDC0468C03002089
:401F40007803002074030020014B18687047C046740300200022014B1A607047700300200022014B1A607047740300200300042004499B000A688243D2B2184010430860CA
:401F80007047C046000304400300022004495B000A688243D2B21840104308607047C046000304400121044A084013688B43DBB2184310607047C0460003044010B51B4AF7
:401FC0001378002B1DD1C0210C20194B890019601849086018490A3808601848184908601B689B039B0F012B1DD0591E8B4115498C46634414490B600021144B19600123EA
:40200000137000F08FF80123114A11680B43136000F08CF800F086F880220E4B52041A6000F084F810BD0C4BE4E7C046F4020020000105402401054038010540A60E0000E7
:4020400014010540A50E00000C010540080105400000054008000540A70E0000014B18607047C04630010540044A1368002BFCDB034B00021843014B186070470000014043
:402080004200008010B58024084B64001C60084B186600F047F8C023064A11680B43136000F044F8044B1C6010BDC04680E100E00000002008E400E000E100E0030040203A
:4020C00004499B010A688243D2B21840104308607047C046000004400300202004495B010A688243D2B21840104308607047C04600000440030008200449DB000A688243E3
:40210000D2B21840104308607047C046000004400230800804D0C0460138FDD1C046C046C0467047EFF3108072B6704780F310887047C046F0B556465F464D464446002364
:40214000F0B495B0009306000193FF2800D9EDE0002900D1EAE0402202AD04A800F032FDA9680B000F005A1E9341EA685B001743002A00D0E4E01C000A000F003B0029699E
:402180000B43002902D004241F0052183B0069690B43002900D0F7E039000800AF6913003843002F02D006240100D3190F00E8690743002800D0E4E01A000F003800296AA1
:4021C0000843002900D0D8E01300390008006F6A1A003843002F02D009240100DA190F00A86A0743002800D0C4E013000F003800E96A0843002900D0B8E01A003900080014
:402200002F6B13003843002F02D00C240100D3190F00686B0743002800D0A4E01A000F003800A96B0843002900D098E0130039000800EA6B1043002A00D08CE01A000800FB
:402240002B6C1843002B00D081E013006A6C10000843002A01D011240100D318002B00D071E0002900D16FE0A200AF58AB50012398468C4B8C4902933F238C4A6B608C4B5A
:402280001D601160C0461A68120F0F2A04D01A68120F0A2A00D17BE0FF221B6813400093009B9946002B43D1FFF73CFF814B83461A68814B9A4651461A60804B1B68DB0FF7
:4022C000DB074B607E4B1B689B0018338B60494601910199002900D1C0E0009B002B17D1784A31040292029A77480A4302926F496F4A15600860C0461168090F0F2903D07A
:402300001168090F0A2902D01368FF2213400093009B9946002B02D14346002B58D1019B002B37D05846FFF701FF01E004230093009815B03CBC90469946A246AB46F0BDA3
:4023400003248A181AE700239846002791E71024D31801007AE70F249A1801006FE753180E24010064E70D241A1859E75A180B24010044E70A24131839E7531808240100CC
:4023800024E707241A1819E752180524190004E7002384E753469868302855D0FEF7FAFC534603201B681840FEF7E4FC5246414B12681A6053465B68002B01D1FEF7D2FCEF
:4023C00000230193019B002BACD0019B0093A9E74022002104A800F0FEFB324BA4002F5102933F2330496B60304A314B1D601160C0461A68120F0F2A03D01A68120F0A2AC0
:4024000003D0FF221B681A4091464B460093009B002B00D083E72D4A36040292029A2C4816432249224A029615600860C0461168090F0F2903D01168090F0A2902D0136823
:40244000FF22134000936AE7032210001B681840AAD11B091340012BA6D1B1E7302B06D12D3B134203D112091A40012A16D00220FEF7E2FC53469B68302B02D03020FEF77B
:4024800089FCFEF765FC0020FEF774FC302209490B6893431A00102313430B60002300931BE7C046B6D7000004000080040010400800104028000340F8020020300003404E
:4024C000080F0340B6D8000005000080B6D9000006000080F0B54746C64B80B41B68002B00D09847C44B1B68DB0702D50022C34B1A602021C24A1378194206D1C14B1868FB
:402500000223FF33184200D0F5E013789B0600D5EEE01378DB0600D420E1BA4B196802230B4230D0B8490B60B84B19681B681B04D80F0F230B40B649C3180878834200D256
:4025400019E1B4480D7804685B1BE31A0360B24B0468B24804600020B14C206080240870B04964020868204308600C68AE482040086002201978814319700121187801435C
:402580001970102313709F4B196808230B4239D09D490B60A54B1B689B0419D5A44D2B681B0710D00F27A34BA34CA44E20681968844630686144C0B20870196801311960EE
:4025C00029680F42F2D199499D4B086803400B609C4B1B689B0600D4E5E040218E4B18780143197000209849086098489549086020201978814319701021187801431970D8
:40260000102313707F4B1B685B0625D50121904B1960904B196810230B4200D0B5E08E4B84491B6809685B1A072B00D9C7E00421854B196020237849087803430B701123DD
:402640001370864A704B1A600823854A11680B4313600122834B1A60834B1A68120758D57D4B1A68734B083A1868101A082800D988E00126002800D197E06F4C6F4D2168A1
:402680001A688C4629686244C9B211701A68013801321A600028F2D1002E00D085E00822684B1A60714B1B68DB0621D5704B0F211B6856489C46FF239846564A6D4D6E4C6E
:4026C000534E03680B40082B0FD017682B689F423AD2136863441B78DBB2236013680133136003680B40082BEFD11022634B1A6004BC9046F0BD1378DB0732D4464B1878B1
:4027000088439021187018780143197000231370FBE61B685B07C5D5484B4F491A68454B1868096888425CD201204E49D2B2086041481968006841180A701A6801321A60F4
:402740000422404B1A60ADE74346236033780A2BB7D833780133DBB23370B2E7FFF760FBC6E702202C4B1978814319700921187801431970CAE70420274B1C7820431870B5
:402780002448E5E60026082077E725490B60234B1968204B196002231F49087803430B70122313704DE71C4B1CE780211F4A090213680B4313600022234B1A606FE71B4951
:4027C000082B08D080200B68800103430B6008211D4B19602EE7A0200B68000203430B6028E7FFF78DFA40230B4A11780B431370A6E7C046F00200208C0E0640880E064085
:402800006E0300204C0F0640400F06400802064090030020880300208403002070030020880F064004020640FFFFFEFF6000064008030640740300208C03002040030640FF
:40284000FF5FFFFFC00F0640C80F0640ED0F0000800E06406400064078030020FF0F0000480F06406C000640CC0F06408C0F0640800300207C03002040020640800F0640B7
:40288000002243088B4274D303098B425FD3030A8B4244D3030B8B4228D3030C8B420DD3FF22090212BA030C8B4202D31212090265D0030B8B4219D300E0090AC30B8B42A7
:4028C00001D3CB03C01A5241830B8B4201D38B03C01A5241430B8B4201D34B03C01A5241030B8B4201D30B03C01A5241C30A8B4201D3CB02C01A5241830A8B4201D38B0268
:40290000C01A5241430A8B4201D34B02C01A5241030A8B4201D30B02C01A5241CDD2C3098B4201D3CB01C01A524183098B4201D38B01C01A524143098B4201D34B01C01ADC
:40294000524103098B4201D30B01C01A5241C3088B4201D3CB00C01A524183088B4201D38B00C01A524143088B4201D34B00C01A5241411A00D20146524110467047FFE738
:4029800001B5002000F0F0F802BDC0460029F7D076E7704703460B437FD4002243088B4274D303098B425FD3030A8B4244D3030B8B4228D3030C8B420DD3FF22090212BAAF
:4029C000030C8B4202D31212090265D0030B8B4219D300E0090AC30B8B4201D3CB03C01A5241830B8B4201D38B03C01A5241430B8B4201D34B03C01A5241030B8B4201D3DB
:402A00000B03C01A5241C30A8B4201D3CB02C01A5241830A8B4201D38B02C01A5241430A8B4201D34B02C01A5241030A8B4201D30B02C01A5241CDD2C3098B4201D3CB01A3
:402A4000C01A524183098B4201D38B01C01A524143098B4201D34B01C01A524103098B4201D30B01C01A5241C3088B4201D3CB00C01A524183088B4201D38B00C01A52412F
:402A800043088B4201D34B00C01A5241411A00D201465241104670475DE0CA0F00D04942031000D34042534000229C4603098B422DD3030A8B4212D3FC22890112BA030AD5
:402AC0008B420CD3890192118B4208D3890192118B4204D389013AD0921100E08909C3098B4201D3CB01C01A524183098B4201D38B01C01A524143098B4201D34B01C01AFC
:402B0000524103098B4201D30B01C01A5241C3088B4201D3CB00C01A524183088B4201D38B00C01A5241D9D243088B4201D34B00C01A5241411A00D20146634652415B10AA
:402B4000104601D34042002B00D54942704763465B1000D3404201B5002000F005F802BD0029F8D016E770477047C046014B18687047C046100200200E4B70B500251E009E
:402B80000D4CE41AA410A54204D0AB00F35898470135F8E700F078F8084B00251E00084CE41AA410A54204D0AB00F35898470135F8E770BD942C0000942C0000942C000057
:402BC0009C2C0000002310B59A4203D0CC5CC4540133F9E710BD03008218934202D019700133FAE77047000000000000020007000104050600070100000000010101010196
:402C000002010000000002400001024000020240000302400800044008010440080204400803044000000440000104400002044000030440000102030405060708090A0000
:402C40000400000001000000800000000100000002000000100000002000000040000000010000008000000002000000000102030405060708090A0001010101010101019A
:402C80000101014300000000F8B5C046F8BC08BC9E46704759010000FD0C0000F8B5C046F8BC08BC9E46704731010000C02C000068000020B0010000800100000000000007
:402CC000000000001A13000010130000880900007E0900008809000088090000740900007E090000B0090000B004000024130000C202202505480000200812000100000011
:402D000000007017E02E00000C000000001BB700FF0700000000FF1F0000FF1F0000FF0F0000FF0F0000FF0F0000FF0F0000FF0F0000FF0F0000FF0F0000FF070000FF1F58
:402D40000202020202020202020202000202020202020202020202003A463637332A262119153F000800044008000440080004400801044008010440080104400801044011
:402D8000080104400802044008010440080004400808141408080808080808004D004000220024002B00350038003E004E0029003F0001001E001E001E001E001E001E005B
:402DC0001E001E001E001E001E0000003232323232323232323232006E005C00310034003D004B005000580070003A005A000000050005000500050005000500050005008C
:402E000005000500050000000000000000000000000000000000000000000000000000000000000000000000832C00000000000000000000000000000000000000000000D4
:402E400000000000000000000000000000000000000000000000000000000000000000000000000000000000B0010020000000000000000000000000000000000000000081
:402E80000000000000000000000000000000000000000000000000000000000000000000000000000000000000000000000000000000000000000000000000000000000012
:402EC00000000000000000000000000000000000000000000000000000000000000000000000000000000000000000000000000000000000000000000000000000000000D2
:402F00000000000000000000000000000000000000000000000000000000000000000000000000000000000000000000000000000000000000000000000000000000000091
:402F40000000000000000000000000000000000000000000000000000000000000000000000000000000000000000000000000000000000000000000000000000000000051
:403FC000C20220250548000000000000000000000000000000000000000000000000000000000000000000000000000000000000000000000000000000000000000000006B
:0200000490303A
:02000000189650
:0200000490402A
:200000000000000000000000000000000000000000000000000000000000000000000000E0
:0200000490501A
:0C00000000020A48119A00000A572A303A
:0200000490600A
:0100000001FE
:00000001FF