:4000000000080020110000005D0C00005D0C000010B500F091FF00F029FEC04670B572B6EE220024264B12021A60264BD8211C609F23254A49031360244A254D1160254A3D
:4000400018201360FF22244B1A609022234B12011A60F322224B1A600123224A1360224A13600722214B1A60214BB032FF321A6011232B6000F06CFE1E4B1F4A1C601F4B67
:400080001F491A60FE2212020A601E4919601E490A601E4A1A601E4A14601E4A1A6004221D4B1A601D4B3E321A601D4B023A1A601C4B01321A601C4B02321A602C6070BD15
:4000C000000102400003024000000440080004403000104018000440000104400801044018010440000204401802044000030440080304400803014042FF00800000014095
:400100000003014040FF00800403014041FF00800C03014043FF0080280003400C01014008010140040101400001014010B5064C2378002B07D1054B002B02D0044800E0E9
:4001400000BF0123237010BDF0010020000000000C2A0000084B10B5002B03D00749084800E000BF07480368002B00D110BD064B002BFBD09847F9E700000000F401002002
:400180000C2A0000680000200000000010B5022002F058F80122264B26491A705A688A4201D801325A601A7A012A3CD0DA6822498A4214D9197C0022012916D0197E5A612D
:4001C0000022012918D05A831A7F012A1BD000225A779A7F012A1ED000221A8410BD197C0132DA6000220129E8D15A69197E01325A6100220129E6D15A8B013292B25A8302
:400200001A7F012AE3D15A7F7C2AE2D801325A779A7F012AE0D197211A8C89008A42DDD801321A84DAE70022DA601A72C2E7C0460C020020D9070000B904000010B500F003
:40024000A7FE01F0C9FC00F08BFE044B1B889A00D318DB00181800F077FE10BD12030020F8B55F4656464D464446464BF0B49946454B464F464E00259A469B460DE0E00036
:400280000A2102F00FFA404522D801239C46013502370436E1440C2D4BD034683B886000001980000A21984602F0FCF98045E6D9280001F0C9F85B465B5D98423FD03468ED
:4002C0003B88E0000A21984602F0ECF94045DCD9280001F0B9F853465C5D8046E00000190301181A642102F067FA8045CDD12100280001F0B1F84B462800197801F0B2FA2B
:400300004B461C78280001F0A5FA013C211AC9B2280001F0AFFA280001F0D6F8052000F0C9FD01239C46013502370436E1440C2DB3D13CBC90469946A246AB46F8BDC300DA
:4003400018180301181A642102F036FA0100280001F082F84B461B7864219800C0180301C01802F029FAC1B2280001F07BFA4B461B7864219800C0180301C01802F01CFAD4
:40038000C4B2BFE7D402002004030020740200206C00002010B50400084B1880084B198001F00CFC074800F0CFFD200000F0E0FD00F0BCFD00F0F4FD10BDC04610030020C1
:4003C00012030020FFFF000010B514210520FFF7E1FFFEE7F0B55F4656464D464446F0B487B062B60024002001F06AFF002001F059FFFF2001F02CFFD74801F037FF01F081
:40040000D1FED64A03211F2001F008FD01F046FC14210120FFF7BEFF01F0E4FBD0480522D049303001F0E0FBCF4ED04D200001F00BF83055200001F005FA285501340C2C17
:40044000F4D1142000F036FD142000F033FD00F0CFFD20230093C64B9946C64B9A46C64B9846C64B9B4600260025280000F036FF00F092FE0028FBD14B460400985B53468B
:400480009F19398801F0E6FABD4B3880985343465C555B465C55013502360C2DE5D1009B013BDBB20093002BDDD1B64BB64F98462323FC5C002C49D13B78012B00D186E3AD
:4004C000BB7F012B00D1E7E1B04BFA689A4200D9D1E1AF4A1378002B00D0FFE101F08CFC0307E5D505210122A94B3A7219709B4B9A4819785B788078CB18DBB2984200D1EC
:4005000052E32223F95C002900D0D0E10320934AA04EC933137033785370727802408F4882708E4C1F3BD318C1700171E37202202323A1712031E171033121724D31617226
:400540002F396071A172FC5C002CB5D000F020FD2323FB5C002BB3D0434642461C881B788D48138064238D4A0125138001F00CFB00F0F6FC894B1B889A00D318DB00181826
:4005800000F0E2FCE0B200F0F3FC00F0CFFC00F007FD00F069FF00F0B1FC00F085FF24230022FA547E4B7B4E9A460B2000F096FE00F0F2FD0028FBD10B3000F0E9FF0B20FB
:4005C00001F064F9534600241870200000F086FE00F0E2FD0028FBD1200000F0D9FF2000013401F053F90B2CEFD17278D3082B40510701D50133DBB231780D4201D0013384
:40060000DBB2880701D50133DBB2480701D50133DBB2080701D50133DBB2C80601D50133DBB2012B00D818E12223FD54002900D01DE1002A00D01AE100222223FA54534649
:400640001B78002B2AD0434642461C881B78138001F0B4FA534800F077FCE0B200F088FC00F064FC00F09CFC01F018FB002323220020BB54FB60BD7701F002FBFF2001F044
:40068000E7FD354801F0F2FD01F08CFD9620800000F010FC03210B2001F0F2F82422BB5C0133DBB2BB54022B00D87EE74B461B883D49CD3B9BB28B4200D998E200233B7689
:4006C0004B465B88CD3B9BB28B4200D98FE24B469B88CD3B9BB28B4200D988E24B46DA88E623673A92B2DB009A4200D97FE24A461289CD3A92B28A4200D978E24A4652894F
:40070000673A92B29A4200D971E24A469289673A92B29A4200D96AE24A46D289673A92B29A4200D963E24A46128A673A92B29A4200D95CE24B46E6225B8AD200673B9BB22E
:40074000934200D953E24B469B8A673B9BB2934200D94CE22AE0C0468D010000E40200206C000020C03F000004030020D402002048020020340300208C02002098020020A0
:4007800074020020100300200C020020AF040000E1020020B40200203D02000012030020E0020020FFFF0000640E00004B46DB8A464ACD3B9BB2934200D918E20023FB84AB
:4007C0005A46434B11781A78914200D903E25A4651785A78914200D9FDE15A4691789A78914200D9F7E15A46D178DA78914200D9F1E15A4611791A79914200D9EBE15A468D
:4008000051795A79914200D9E5E15A4691799A79914200D9DFE15A46D179DA79914200D9D9E15A46117A1A7A914200D9D3E15A46517A5A7A914200D9CDE15A46917A9A7A66
:40084000914200D9C7E15A46DB7AD27A9A4200D9C1E10023BB623B742AE6002902D1002A00D1E9E62223FB5C002B00D1E7E600235246137012E701222323FA5400232132FE
:40088000BB54BB7701F022FA012001F0F9F906210B2000F0F5FF21E696233A8C9B009A4200D811E60023BB7700F034FE0CE6EB23084A08491370084A064813784B7003213D
:4008C00052780A4003498A7000212AE6640E00004C010020E4020020D0020020013B137000F00AFD00F058FC0028FBD1FFF7B8FC00F0EAFE01F034F85B461E78C82E04D9FF
:400900000121C74A13788B4313705B465D78C82D04D90221C24A13788B4313705B469C78C82C04D90421BE4A13788B4313705B46D878C82804D90821B94A13788B43137000
:400940005B461B790093C82B04D91021B44A13788B4313705B465A79C82A06D9B04B20219C461B788B4361460B705B469B790193C82B06D9AA4B40219C461B788B43614693
:400980000B705B46DB790293C82B06D9A44B7F219C461B780B4061460B705B461B7A0393C82B06D99E4B01219C465B788B4361464B705B465B7A0493C82B06D9984B02217C
:4009C0009C465B788B4361464B705B469B7A0593C82B06D9924B04219C465B788B4361464B705B46DB7A9A46C82B06D98C4B08219C465B788B4361464B708A4B1978B14225
:400A000000D229E15E78AE4200D225E19D78A54200D221E1DC78844200D21DE118790099884200D218E15979914200D214E19A7901998A4200D20FE1DA7902998A4200D290
:400A40000AE11A7A03998A4200D205E15A7A04998A4200D200E19A7A05998A4200D2FBE0DB7A53459B415B423B747A696E4B9A4200D9BAE04B461B886C49CD3B9BB28B42B1
:400A800000D9C9E000233B764B465B88CD3B9BB28B4200D9C0E04B469B88CD3B9BB28B4200D9B9E04B46DA88E623673A92B2DB009A4200D9B0E04A461289CD3A92B28A4246
:400AC00000D9A9E04A465289673A92B29A4200D9A2E04A469289673A92B29A4200D99BE04A46D289673A92B29A4200D994E04A46128A673A92B29A4200D98DE04B46E62288
:400B00005B8AD200673B9BB2934200D984E04B469B8A673B9BB2934200D97DE04B46DB8ACD3B9BB28B4277D83F4B7A8B9A425CD808243B4E727814402300591E8B41DBB261
:400B4000510701D50133DBB23178C80701D50133DBB2880701D50133DBB2480701D50133DBB2080701D50133DBB2C80601D50133DBB2012B5ED922230120F854213B0029C6
:400B800008D1002A62D100202223F854284B19705A7000237A7F4F2A35D8002C53D0002B51D101333B7799E40A4200D1A9E42323FA5400232132BB54BB7701F087F8012061
:400BC00001F05EF806210B2000F05AFE99E400F0DFF93C70BCE401223A742C22BB6AFF320133BB62934200D862E4FFF7EDFB01232C223B76FB8CFF3201339BB2FB8493423C
:400C000000D8DDE5F1E7772A22D9002C20D1012001F036F83C7761E401233B7684E7C046B40200204C0100206F300000640E0000D0020020002901D1002AA4D02223FB5C90
:400C4000002BA3D0A6E700233B7747E40123A1E7002001F015F841E4012305E710B501F097FE03680C2B00D0FEE7FEE7F8B5104E002E18D000200F4DA9682C686A68002986
:400C800005D00023E758043380C29942FAD1E9680023002903D0D05004339942FBD1013E1035002EE8D101F079FEFFF793FBFEE701000000D42A00000121104A70B5136819
:400CC0000F4C8B4313600F48002200230E4D04E00133A1500432192B08D00100032BF7D851590133A1500432192BF6D1FFF796F90123024A11680B43136070BD000010404C
:400D0000000000205D0C0000000000008021034A090613680B4313607047C04630000340024A13685B005B08136070473000034010B5040001F0DEFA032304490A689A434B
:400D4000234013430B6001F0D9FA10BD28000340F8B50400182806D0102302009A43202A01D001BEF8BD072601F0C4FA1B4D1C4A2B680700B3432B601A4B1B48E3181B78D0
:400D8000DBB21360194A1368B3431360184B0168E3181A787F23994313400B430360322001F09EFA182C03D8380001F0A7FAD9E723002A681C3B9B08B243334013432B6095
:400DC000322001F08DFA183C2B68A4083440B3431C432C60380001F091FAC3E7080F03400C0F0340CDF1FF0F180F0340100F0340B4F1FF0F10B5040001F07CFAA3000C24DD
:400E0000044923400A68A24313430B6001F076FA10BDC04628000340082800D901BE034B8000C318186819607047C04640000020F8B504000E00032900D901BE082C00D934
:400E400001BE032701F056FA3D00094B25409C46A408A40064442168ED000B0031000635AF40A940BB431943216001F047FAF8BD00E400E01F2318401E3B8340014A1360B9
:400E80007047C04600E100E01F2318401E3B8340014A13607047C04680E100E01F2318401E3B8340014A13607047C04680E200E001BE7047F8B5802507002D02A84214D9FA
:400EC00004000B4E706801F00BFA0A4B9C466444AC42F7D8084BFB18DB0BDB036744FF1AB068784301F0FCF9F8BD014EF8E7C046A40000200080FFFFFF7FFFFF10B501F027
:400F0000F9F9074B074A1B889BB213600423064A11680B43136030BF01F0F0F910BDC04652F1FF0F0400034010ED00E00022014B1A60704738000340014A024B1A60704714
:400F40006588EDAC38000340044A00041368000C1B0C1B04184310607047C04640000340024B18680004000C7047C04640000340F02110B5044C0204044B206809030A40D0
:400F800003401A43226010BD40000340FFFFF0FF0123024A11680B4313607047440003400123024A11680B43136070474C00034010B500F0A3FD00F0CBFD0021002000F0BC
:400FC000D3FD0021002000F0A5FDFF2000F0B2FD402000F085FD044A0449136807200B431360FFF747FF10BD0400084000100880F8B55F4656464D464446F0B44C4B1B78FA
:40100000002B24D000F07AFD00F0A2FD0021002000F0AAFD0021002000F07CFD454CFF2000F088FD402000F05BFD2368424A072013432360FFF71EFF80222368D2031343CA
:4010400023603CBC90469946A246AB46F8BD3B4B0C22002118009B4601F0CFFC0F203849384B0A68384C1A702378324D03401A002378364C834313430B60354A354B08381B
:401080001A60354B00262B602268344B1340C022D20213432360FFF7F7FE31490720FFF7BBFE03210720FFF7C3FE2B6821002B602C4B99462C4B98462C4B9A4620E001F02B
:4010C00019F907224346A2401B68013693431F4343461F6001F012F9012211004B46A9401B688B4349460B600C2E1DD053460C33F35C9B0053449A6A99699B6B904699461A
:4011000053460F279D5D5B46AA00D2B29740985D0B686C00BB4306272C19E4B20B60A7400128CCD10027CAE7014B1A706AE7C0464402002004000840001008801C030020C0
:4011400000FF08401403002062F1FF0F000002400002000108000840C008A001FFFFF0FF611A00000000044008000440102A000070B501210724074D0130C0B20C2807D0EC
:4011800022000E0002409640C308EB5C1E42F3D070BDC046B80000200120024B5B7818407047C04644020020434BF0B54E46454681469846C1444A4648235746D35C3F4C9D
:4011C0009B00E0B4E31807005E6800F097FC00F0BFFC3423E419E05C0021013880B200F0C3FC40239A46E05C0021013880B200F091FCFF2000F09EFC402000F071FC0720EA
:40120000FFF742FE52462E4D07202B6813432B60FFF730FE0720FFF737FE2A482A4B026813404C22A15C0B431A00284BDB191B7F1B04134303602C68254B07201C40254B0D
:401240001C43FFF717FE4B461B7B99464346DF5D01F050F882460F204B46B900C9B288409B0043449A699B6A94461268984682430420884019687B00FB180727DBB29F40C6
:40128000B9430B0041460B60634602431A60504601F034F801F02EF807002C60002001F01FF80D4B38001E6001F028F81CBC90469946A246F0BDC046102A0000B8000020EF
:4012C000040008400800084000FF80FF44020020FF1FDFFF200020000C000840002210B5044BC1B25A702832995459325A70FFF75BFF10BD44020020F8B50023FF22072430
:401300000120104E104D73702833F254F35CDBB20133DBB20C2B07D02100070019408F40DA08AA5C1742F3D02822B354B35C0B2B07D8012371780B437370B05CC0B2FFF727
:4013400033FFF8BD44020020B8000020F0B54746264B27491A684300CB1880B49A800F22244F3E5C3B181C7B234BB1001B5CC9B28A409C46A4003B199869750003687519F3
:40138000934303606346EDB2012B2BD00623AB40984600F0AFFF0722AA403C19A16A0B689343424613430B6000F0A8FF0122B240A16B07200B6893430B60FFF765FD0F4AAC
:4013C0000F4B116807200B40A02109020B4313600C4A0D4B11680B401360FFF74BFD04BC9046F0BD00239846D3E7C0460C00084044020020102A00001C0300200400084075
:40140000FF1FDFFF0800084000FF80FF02000720CB08014006388840D35C1840431E98417047C046072310B5CC081940063B8B400419DBB2002A03D122789A43227010BD7B
:40144000227813432370FAE7024B18184C23C05C7047C046B8000020024B18184C23C1547047C046B80000200C4B10B51B68002B02DA01220A4B1A700720FFF705FD074ABD
:40148000084B11680B40136013685B005B08136000F034FB00F05CFB10BDC0460400084070020020FFEFF7FF10B5FF2000F018FBFF2000F03FFB034B1B78002B01D0FFF7F8
:4014C00077FD10BD7002002070B50400FFF706FFFFF762FE0028FBD12426094B62001D5D084BD15A084B1C19A05520760748D152445D30205B191C54054BD15270BDC046B3
:40150000582A000048020020740200204001002034030020F8B55F4656464D464446174BF0B49B46164B00259A46164B00249946154B30279846154E2000FFF7CFFEFFF7E4
:401540002BFE0028FBD131001831605431005B462431605448461A5D5346B118825C5B5BCA55424601347353535302350C2CE3D13CBC90469946A246AB46F8BD582A000022
:4015800048020020400100203403002074020020474BF0B51B5C56469A4644465F464D46444BF0B49B4653465B441B7B44009C46414B83B01B5B98465B461A7E4346002A80
:4015C00008D042463D490B5BD2185B009B189B089BB20B533A490F5B9F422AD8002290464646384A16540126B046DA1B92B266466D46EE80EE88B44696423BD30D18A9468C
:401600002D7E3E023543ED1B5B191D0A0D534C46237600242B4B1C5494453DD3002224230818C25403B03CBC90469946A246AB46F0BD56465E44FA1A367F92B2964228D284
:401640005D4628271F4A2E18135CF75D9F422CD8434600270B530B181F765346CB189C4653466646ED5C3023F5544546134B17541D53D3E75D4655442D7F95420CD9454626
:40168000002DBBD0FF2A0CD9FF2224230818C254C8E70026B046AAE74346002BBED0FF2AF2D824230818C254BCE701331354B5E7582A00004001002048020020340300203A
:4016C0007402002028030020F0B55F46444656464D46F0B4544B85B09846544B544E554D554F00249B4605E001340136023502370C2C58D021004046FFF788FE0028F3D0F5
:401700004E4B1B5D0193019A5B46944663441B7B4B4A9C466300D35A99465B461A7E4B46002A07D04A463B88D2185B009B189B089BB23B802888984247D8002232701A1A69
:4017400092B2029201229246624602A9CA80CA889446029A944508D2019A5A44117F029A914227D95246002A27D1324A11001822914649448946625C010211434A46081ACB
:401780001B18190AA35400233370029B29809C4510D30022274B01362433E2540134023502370C2CA6D105B03CBC90469946A246AB46F0BD5346002BEBD0029BFF2B2DD92C
:4017C000FF221C4B2433E2548EE7C21A92B20292019A9246DA445246127F9246029A924516D25A4628323378A25C9A4213D84B462B8000230F4A01991832A3540D4A3370C7
:4018000050185A46515C302281544A463A80C0E70022924698E701333370BAE7054B02AA12782433E2545FE7B800002040010020280300207402002034030020582A00009E
:4018400048020020024B18183423C05C7047C04640010020024B18184023C05C7047C04640010020024B18183423C1547047C04640010020014B18180173704740010020C7
:40188000014B19547047C04640010020F0B5444656464D465F462E4BF0B41C5C1818037B83B01B190093002301932A4B99462A4B9A464023534498460EE0BE1BB34235DB0D
:4018C00021004046FFF7A2FD002801D001230193009B0134A34233D9204B34221D5D4B465B199F5C0C329E5C4B465B5D210040469B46FFF78BFD53462433E35C0028DCD174
:40190000BE19B3420DDB30225544AB5C013BDBB2AB54002BD4D12F3A21004046FFF782FDCEE730235A465544EA54C9E7002221004046FFF777FD30235A465544EA54BFE712
:40194000019803B03CBC90469946A246AB46F0BD942A00004001002074020020582A0000F0B55F4656464D4644460023F0B485B003930293334B9A46334B9B463349029AB2
:401980000B000C338C5CD35C1B1900930023019340335B4498460EE0BE1BB34235DB21004046FFF733FD002801D001230193009B0134A34233D9264B34221D5D53465B19FF
:4019C0009F5C0C329E5C53465B5D210040469946FFF71CFD5B462433E35C0028DCD1BE19B3420DDB30225D44AB5C013BDBB2AB54002BD4D12F3A21004046FFF713FDCEE7B1
:401A000030234A465D44EA54C9E7002221004046FFF708FD30234A465D44EA54BFE7019B002B01D001230393029B013302930C2BA4D1039805B03CBC90469946A246AB46CE
:401A4000F0BDC0464001002074020020942A0000582A00004B0018184118890888B2704770B501260720FFF70FFA174B174D1E602878C0B2FFF76AFC154C23785BB2002BCE
:401A800019DB2878C0B2FFF773FB28702B780B2B15D92378B343237023785B0607D502220C490D4800F0A0FF02220C4B1A700720FFF7E0F970BD2378B3432370F7E728783A
:401AC000C0B2FFF771FBF2E7140008406C0200204502002018030020B8000020B6020020044A1368002BFCDB034B00021843014B186070470000014041000080034A136842
:401B0000002BFCDB024A014B1A607047000001404100004010B5FF24C9002140000208430721034A13680B401843106010BDC04604030140044A1368002BFCDB034B00027D
:401B40001843014B186070470000014040000080034A1368002BFCDB024A014B1A607047000001404000004010B5FF24C9002140000208430721034A13680B4018431060D5
:401B800010BDC0460003014010B51024074B1C60074B186500F0AEFBC023064A11680B43136000F0ABFB044B1C6010BD80E100E00000002004E400E000E100E01022034BDA
:401BC0001A60034A034B1A657047C04680E100E05D0C0000000000201022014B1A60704780E200E07047C046F0B55F464D46444656468023F0B490468A18814691B00F0043
:401C0000DB0101209A4231D88B041B0E9A4643468C0B24025444A401002B2ED06B46EB4600251E1B2200403208E0A84508D94B465B5D013533550134944207D0A742F4D955
:401C40002378DBB2335501349442F7D15046594600F058FB01239C46E244454502D2403E0028DFD0012801D90120404211B03CBC90469946A246AB46F0BD0020F6E7C046ED
:401C80000300042004499B000A688243D2B21840104308607047C0460003044010B5094C2378002B03D100F045F8012323708021054A0906136805200B431360FFF7DAF883
:401CC00010BDC046B80200200000064010B50520FFF7DAF800F08AF8054A052013685B005B0813600022034B1A60FFF7D7F810BD00000640880F064080220A4B5200196844
:401D000011420AD008490968490406D4186807490140196019680A431A600222044B1A607047C0460000064060000640FFFEFFFF6C00064010B50024184B194A1C60194BE9
:401D400019491A60194B1A4A05201360194A1460194A1160194A1360194B1C60FFF794F803210520FFF764F816490520FFF754F85222154BFF321C60144B1A600022144B08
:401D80001C60144B1C60144B1C60144B1C70144B1C70144B1C80144B1A7010BD0000064000080040600006409E00FE000701008000030640040306401003064000020640DB
:401DC000040206404D1E0000880E0640480F0640080F0640C80F0640880F064050030020540300204E0300204C0300200022014B1A7070475003002010B50520FFF744F854
:401E00001F21054B05201C781A78E4B28A431A70FFF730F8200010BD5403002070B506000D00141E0BD00520FFF72EF8044B05201C60044B1E80044B1D80FFF71BF870BDD3
:401E4000580300205C03002052030020F8B54F464646B54BC0B41B68002B00D09847B34BB34D1E68B34B2C881F680223FF3333402DD02021B04A13685B005B081360AF4BEF
:401E80001A788A431A70102219780A431A70AC4A1268D20600D48DE0022219780A431A70A84AA94B11680B40136000238021A74A09061360A24A1360A54A13709E4A136802
:401EC0000B4313602C800CBC90469946F8BDFA0601D5A04A13600A233B424CD102231F40002F1AD0F30614D50023984A1360944A1360994B1A780A23944200D1F8E08F4A06
:401F0000334011780B4320218B4313700022904B1A70730658D4854B1E60864B1B685B07D0D58E4B8E4E98461A888E4BFF271B688D489C4600230F2199460DE063461B1986
:401F40001B78013ADBB23360012399460368013492B20B40082B06D0002AEFD1376003680B40082BF8D14B46002B00D0D9E010227E4B1A60A6E77E4B1B685B074FD57D4B24
:401F800073491A680B78002B00D191E0012B7BD1724988460988002900D1ABE07648D2B20360704B01391B681B191A704346013419806CE0684A1278A24200D170E70822EC
:401FC00019780A431A706BE720235C4A11780B431370614B1C78694B1A68102313424FD08020674A5D4912884002121B0A80654A1168014311601068634901401160504AF0
:4020000013600122614B62491A60484B196010236049086803430B60574B1A607BE7494A13689B0400D459E702231F4033D14B4B1988083989B2198008295ED800296ED04F
:4020400000239846474B4B489C466118634602681B68D2B21B1901341A708C42F6D14346002B09D18020374A000213680C00034313600022354B1A600C22474B1A602FE7E0
:402080000422324B1A60BCE70020FEF711FF0422414B1A6022E70F21404B1B6810681940294B03401360012398460029CAD1E3E73348008882421DD201242F480460384807
:4020C000008882421DD2801A244C80B22080072819D908281AD080201A4980010B6803430B600821194B19601B4B14001A70CEE7083B04E7FFF700FEC9E70123082198462A
:40210000A0E71648038001230B70EDE7A0240D4824020168214301600C490B60E4E72100A0E743461A8022E7BC020020400F06404E030020000E0640000006405403002003
:40214000880F064060000640FF5FFFFFC80F064050030020880E06404C030020C0020020400206405803002008020640800F0640CC0F0640400306406C0006406400064095
:402180005C03002004020640FFFFFEFF800E0640FF0F0000480F0640C00F0640080306405203002010B51B4A1378002B1DD1C0210C20194B890019601849086018490A3852
:4021C00008601848184908601B689B039B0F012B1DD0591E8B4115498C46634414490B600021144B19600123137000F083F80123114A11680B43136000F080F800F07AF8FA
:4022000080220E4B52041A6000F078F810BD0C4BE4E7C046C2020020000105402401054038010540A60E000014010540A50E00000C01054008010540000005400800054079
:40224000A70E0000014B18607047C04630010540044A1368002BFCDB034B00021843014B18607047000001404200008010B58024084B64001C60084B186600F03BF8C0234B
:40228000064A11680B43136000F038F8044B1C6010BDC04680E100E00000002008E400E000E100E00300402004499B010A688243D2B21840104308607047C04600000440CD
:4022C0000300202004495B010A688243D2B21840104308607047C04600000440000000000230800804D0C0460138FDD1C046C046C0467047EFF3108072B6704780F3108863
:402300007047C046F0B556465F464D4644460023F0B495B0009306000193FF2800D9EDE0002900D1EAE0402202AD04A800F05CFBA9680B000F005A1E9341EA685B00174391
:40234000002A00D0E4E01C000A000F003B0029690B43002902D004241F0052183B0069690B43002900D0F7E039000800AF6913003843002F02D006240100D3190F00E86919
:402380000743002800D0E4E01A000F003800296A0843002900D0D8E01300390008006F6A1A003843002F02D009240100DA190F00A86A0743002800D0C4E013000F003800E2
:4023C000E96A0843002900D0B8E01A00390008002F6B13003843002F02D00C240100D3190F00686B0743002800D0A4E01A000F003800A96B0843002900D098E013003900E8
:402400000800EA6B1043002A00D08CE01A0008002B6C1843002B00D081E013006A6C10000843002A01D011240100D318002B00D071E0002900D16FE0A200AF58AB50012359
:4024400098468C4B8C4902933F238C4A6B608C4B1D601160C0461A68120F0F2A04D01A68120F0A2A00D17BE0FF221B6813400093009B9946002B43D1FFF73CFF814B8346B3
:402480001A68814B9A4651461A60804B1B68DB0FDB074B607E4B1B689B0018338B60494601910199002900D1C0E0009B002B17D1784A31040292029A77480A4302926F4979
:4024C0006F4A15600860C0461168090F0F2903D01168090F0A2902D01368FF2213400093009B9946002B02D14346002B58D1019B002B37D05846FFF701FF01E0042300933A
:40250000009815B03CBC90469946A246AB46F0BD03248A181AE700239846002791E71024D31801007AE70F249A1801006FE753180E24010064E70D241A1859E75A180B24B7
:40254000010044E70A24131839E753180824010024E707241A1819E752180524190004E7002384E753469868302855D0FEF7F0FB534603201B681840FEF7DAFB5246414B16
:4025800012681A6053465B68002B01D1FEF7C8FB00230193019B002BACD0019B0093A9E74022002104A800F028FA324BA4002F5102933F2330496B60304A314B1D6011605C
:4025C000C0461A68120F0F2A03D01A68120F0A2A03D0FF221B681A4091464B460093009B002B00D083E72D4A36040292029A2C4816432249224A029615600860C04611680A
:40260000090F0F2903D01168090F0A2902D01368FF22134000936AE7032210001B681840AAD11B091340012BA6D1B1E7302B06D12D3B134203D112091A40012A16D0022066
:40264000FEF7D8FB53469B68302B02D03020FEF77FFBFEF75BFB0020FEF76AFB302209490B6893431A00102313430B60002300931BE7C046B6D70000040000800400104027
:402680000800104028000340C402002030000340080F0340B6D8000005000080B6D9000006000080002243088B4274D303098B425FD3030A8B4244D3030B8B4228D3030C1A
:4026C0008B420DD3FF22090212BA030C8B4202D31212090265D0030B8B4219D300E0090AC30B8B4201D3CB03C01A5241830B8B4201D38B03C01A5241430B8B4201D34B0355
:40270000C01A5241030B8B4201D30B03C01A5241C30A8B4201D3CB02C01A5241830A8B4201D38B02C01A5241430A8B4201D34B02C01A5241030A8B4201D30B02C01A524162
:40274000CDD2C3098B4201D3CB01C01A524183098B4201D38B01C01A524143098B4201D34B01C01A524103098B4201D30B01C01A5241C3088B4201D3CB00C01A52418308F3
:402780008B4201D38B00C01A524143088B4201D34B00C01A5241411A00D20146524110467047FFE701B5002000F0F0F802BDC0460029F7D076E7704703460B437FD400225F
:4027C00043088B4274D303098B425FD3030A8B4244D3030B8B4228D3030C8B420DD3FF22090212BA030C8B4202D31212090265D0030B8B4219D300E0090AC30B8B4201D3B6
:40280000CB03C01A5241830B8B4201D38B03C01A5241430B8B4201D34B03C01A5241030B8B4201D30B03C01A5241C30A8B4201D3CB02C01A5241830A8B4201D38B02C01A22
:402840005241430A8B4201D34B02C01A5241030A8B4201D30B02C01A5241CDD2C3098B4201D3CB01C01A524183098B4201D38B01C01A524143098B4201D34B01C01A5241E4
:4028800003098B4201D30B01C01A5241C3088B4201D3CB00C01A524183088B4201D38B00C01A524143088B4201D34B00C01A5241411A00D201465241104670475DE0CA0F5C
:4028C00000D04942031000D34042534000229C4603098B422DD3030A8B4212D3FC22890112BA030A8B420CD3890192118B4208D3890192118B4204D389013AD0921100E0FC
:402900008909C3098B4201D3CB01C01A524183098B4201D38B01C01A524143098B4201D34B01C01A524103098B4201D30B01C01A5241C3088B4201D3CB00C01A524183083E
:402940008B4201D38B00C01A5241D9D243088B4201D34B00C01A5241411A00D20146634652415B10104601D34042002B00D54942704763465B1000D3404201B5002000F037
:4029800005F802BD0029F8D016E770477047C046014B18687047C046EC0100200E4B70B500251E000D4CE41AA410A54204D0AB00F35898470135F8E700F07AF8084B002518
:4029C0001E00084CE41AA410A54204D0AB00F35898470135F8E770BDBC2A0000BC2A0000BC2A0000C42A0000002310B59A4203D0CC5CC4540133F9E710BD03008218934217
:402A000002D019700133FAE770470000000000000200070007010405060003010000000101010101010200000000024000010240000202400003024008000440080104409C
:402A4000080204400803044000000440000104400002044000030440000102030405060708090A0B0400000001000000800000000100000080000000020000001000000049
:402A80002000000040000000010000000800000002000000000102030405060708090A0B01010101010101010101010143000000F8B5C046F8BC08BC9E46704755010000FE
:402AC000B90C0000F8B5C046F8BC08BC9E4670472D010000E82A00006800002088010000700100000000000000000000600900006009000060090000B00400006009000031
:402B0000B0040000B0040000B0040000B0040000B0040000B00400006009000002202370410000000100000000007017E02E00000C000000001BB700FF0F00000000FF0F6E
:402B40000000FF0F0000FF0F0000FF070000FF0F0000FF070000FF070000FF070000FF070000FF070000FF070000FF0F0202020202020202020202020404040404040404BB
:402B8000040404041F21141518131614130F1E1E08000440080004400800044008010440080104400801044008010440080104400801044008020440080004400800044051
:402BC00003030303030303030303020322202B14231915171B1A101E010000001E1E1E1E1E1E1E1E1E1E1E1E323232323232323232323232302D3E1D32231E212625172BCC
:402C00000505050505050505050505050000000000000000000000000000000000000000000000000000000000000000AC2A00000000000000000000000000000000000082
:402C400000000000000000000000000000000000000000000000000000000000000000000000000000000000000000008C01002000000000000000000000000000000000A7
:402C80000000000000000000000000000000000000000000000000000000000000000000000000000000000000000000000000000000000000000000000000000000000014
:402CC00000000000000000000000000000000000000000000000000000000000000000000000000000000000000000000000000000000000000000000000000000000000D4
:402D00000000000000000000000000000000000000000000000000000000000000000000000000000000000000000000000000000000000000000000000000000000000093
:402D40000000000000000000000000000000000000000000000000000000000000000000000000000000000000000000000000000000000000000000000000000000000053
:403FC00002202370410000000000000000000000000000000000000000000000000000000000000000000000000000000000000000000000000000000000000000000000CB
:0200000490303A
:020000007E433D
:0200000490402A
:2000000000000000000000000000000000000000FFFFFFFFFFFFFFFFFFFFFFFFFFFFFFFFF0
:0200000490501A
:0C00000000020A48119A00000A568FDD29
:0200000490600A
:0100000001FE
:00000001FF