:400000000008002011000000ED0B0000ED0B000010B500F059FF00F0F1FDC04670B572B6EE220024264B12021A60264B264A1C60972326491360264A264D1160264A182031
:400040001360FF22254B1A609022254B12011A60F322244B1A600123234A1360234A13600722234B1A60234BB032FF321A6011232B6000F035FE204B204A1C60204B21495D
:400080001A60FE2212020A601F4919601F490A601F4A1A601F4A14601F4A1A6004221F4B1A601F4B3E321A601E4B023A1A601E4B01321A601D4B02321A602C6070BDC0466A
:4000C000000102400003024000000440000C1B00080004403000104018000440000104400801044018010440000204401802044000030440080304400803014042FF0080AF
:40010000000001400003014040FF00800403014041FF00800C03014043FF0080280003400C01014008010140040101400001014010B5064C2378002B07D1054B002B02D0D4
:40014000044800E000BF0123237010BDE001002000000000C4290000084B10B5002B03D00749084800E000BF07480368002B00D110BD064B002BFBD09847F9E70000000044
:40018000E4010020C4290000680000200000000010B5022002F026F80122264B26491A705A688A4201D801325A601A7A012A3CD0DA6822498A4214D9197C0022012916D0F5
:4001C000197E5A610022012918D05A831A7F012A1BD000225A779A7F012A1ED000221A8410BD197C0132DA6000220129E8D15A69197E01325A6100220129E6D15A8B0132D1
:4002000092B25A831A7F012AE3D15A7F7C2AE2D801325A779A7F012AE0D197211A8C89008A42DDD801321A84DAE70022DA601A72C2E7C046FC010020D9070000B9040000A8
:4002400010B500F06DFE01F097FC00F051FE044B1B889A00D318DB00181800F03DFE10BDFE020020F8B55F4656464D464446464BF0B49946454B464F464E00259A469B4643
:400280000DE0E0000A2102F0E9F9404522D801239C46013502370436E1440B2D4BD034683B886000001980000A21984602F0D6F98045E6D9280001F08FF85B465B5D984253
:4002C0003FD034683B88E0000A21984602F0C6F94045DCD9280001F07FF853465C5D8046E00000190301181A642102F041FA8045CDD12100280001F077F84B4628001978DD
:4003000001F078FA4B461C78280001F06BFA013C211AC9B2280001F075FA280001F09CF8052000F08FFD01239C46013502370436E1440B2DB3D13CBC90469946A246AB46D8
:40034000F8BDC30018180301181A642102F010FA0100280001F048F84B461B7864219800C0180301C01802F003FAC1B2280001F041FA4B461B7864219800C0180301C01824
:4003800002F0F6F9C4B2BFE7C0020020F0020020640200206C00002010B50400084B1880084B198001F0DAFB074800F095FD200000F0A6FD00F082FD00F0BAFD10BDC04667
:4003C000FC020020FE020020FFFF000010B514210520FFF7E1FFFEE7F0B55F4656464D464446F0B487B062B60024002001F046FF002001F035FF002001F024FFFF2001F0EE
:40040000F7FED74801F002FF01F09CFED54B03211A001F20984601F0D1FC01F00FFC14210120FFF7B9FF01F0ADFBCF480522CF492C3001F0A9FBCE4ECE4D200000F0CCFF00
:400440003055200001F0C6F9285501340B2CF4D1142000F0F7FC142000F0F4FC00F090FD20230193C44B9946C44B9A46C44B9B4600260025280000F0F9FE00F055FE002868
:40048000FBD14B460400985B53469F19398801F0B1FABC4B38809853BB4B02365C555B465C5501350B2DE5D1019B013BDBB20193002BDDD1B54F2323FC5C002C48D13B78BF
:4004C000012B00D163E3BB7F012B00D1D3E1B04BFA689A4200D9BDE1AE4A1378002B00D0E2E101F059FC0307E5D50521A94B01221970434640463A7219785B788078CB1813
:40050000DBB2984200D12FE32223F95C002900D0BCE14246032044469F4EC93313703378537072780240A270607140461E3BD318C3722323E170217181712031C171033152
:400540000172FC5C4D3141722F398172002CB6D000F0E6FC2323FB5C002BB4D08F4B8F4A1C881B788E48138064238E4A0125138001F0DAFA00F0BCFC8A4B1B889A00D3187F
:40058000DB00181800F0A8FCE0B200F0B9FC00F095FC00F0CDFC00F02FFF00F077FC00F04BFF24230022FA547F4B7B4E9A460A2000F05CFE00F0B8FD0028FBD10A3000F00F
:4005C000AFFF0A2001F02AF9534600241870200000F04CFE00F0A8FD0028FBD1200000F09FFF2000013401F019F90A2CEFD17278317893082B400D4201D00133DBB28807E2
:4006000001D50133DBB2480701D50133DBB2080701D50133DBB2C80601D50133DBB2012B00D809E12223FD54002900D00EE1002A00D00BE100222223FA5453461B78002BD4
:400640002AD0564B554A1C881B78138001F086FA564800F041FCE0B200F052FC00F02EFC00F066FC01F0EAFA002323220020BB54FB60BD7701F0D4FAFF2001F0B9FD3848FE
:4006800001F0C4FD01F05EFD9620800000F0DAFB03210A2001F0BCF82422BB5C0133DBB2BB54022B83D94B461A88414BCD3A92B29A4200D940E200223A764A465288CD3A74
:4006C00092B29A4200D937E24A469288CD3A92B29A4200D930E24A46D288CD3A92B29A4200D929E24A461289CD3A92B29A4200D922E24A465289CD3A92B29A4200D91BE2A0
:400700004A469289CD3A92B29A4200D914E24A46D289CD3A92B29A4200D90DE24B46E6221B8AD200673B9BB2934200D904E24B465B8A673B9BB2934200D9FDE14B469B8A04
:400740001B4ACD3B9BB2934200D9F5E10023FB845A46184B11781A78914200D9F9E12BE091010000D00200206C000020C03F0000F0020020C002002038020020200300204A
:4007800088020020640200207C020020FC010020AF040000CC020020A0020020FC02002041020000FE020020CB020020FFFF0000640E0000400100205A4651785A7891429E
:4007C00000D9C6E15A4691789A78914200D9C0E15A46D178DA78914200D9BAE15A4611791A79914200D9B4E15A4651795A79914200D9AEE15A4691799A79914200D9A8E187
:400800005A46D179DA79914200D9A2E15A46117A1A7A914200D99CE15A46517A5A7A914200D996E15A469B7A927A9A4200D990E10023BB623B743EE6002902D1002A00D111
:40084000F8E62223FB5C002B00D1F6E600235246137021E701222323FA5400232132BB54BB7701F003FA012001F0DAF906210A2000F0CEFF35E696233A8C9B009A4200D8A8
:4008800025E60023BB7700F00DFE20E6EB234246414603201370C64A444613784B70527802408A7000213FE6013B137000F0ECFC00F03AFC0028FBD1FFF7D4FC00F0CCFEB7
:4008C00001F01AF85B461E78C82E04D90121B94A13788B4313705B465D78C82D04D90221B44A13788B4313705B469C78C82C04D90421B04A13788B4313705B46D878C82843
:4009000004D90821AB4A13788B4313705B461B790193C82B04D91021A64A13788B4313705B465A79C82A06D9A24B20219C461B788B4361460B705B469B790293C82B06D956
:400940009C4B40219C461B788B4361460B705B46DB790393C82B06D9964B7F219C461B780B4061460B705B461B7A0493C82B06D9904B01219C465B788B4361464B705B46E8
:400980005B7A0593C82B06D98A4B02219C465B788B4361464B705B469B7A9A46C82B06D9844B04219C465B788B4361464B70824B1978B14200D217E15E78AE4200D213E133
:4009C0009D78A54200D20FE1DC78844200D20BE118790199884200D206E15979914200D202E19A7902998A4200D2FDE0DA7903998A4200D2F8E01A7A04998A4200D2F3E029
:400A00005A7A05998A4200D2EEE09B7A53459B415B423B747A69694B9A4200D997E04B461A88674BCD3A92B29A4200D9BCE000223A764A465288CD3A92B29A4200D9B3E0F0
:400A40004A469288CD3A92B29A4200D9ACE04A46D288CD3A92B29A4200D9A5E04A461289CD3A92B29A4200D99EE04A465289CD3A92B29A4200D997E04A469289CD3A92B250
:400A80009A4200D990E04A46D289CD3A92B29A4200D989E04B46E6221B8AD200673B9BB2934200D980E04B465B8A673B9BB293427AD84B469B8A424ACD3B9BB2934273D86D
:400AC0003E4B7A8B9A4242D804243A4E727814402300591E8B413178DBB2C80701D50133DBB2880701D50133DBB2480701D50133DBB2080701D50133DBB2C80601D50133F8
:400B0000DBB2012B5ED922230120F854213B002908D1002A62D100202223F854244B19705A7000237A7F4F2A35D8002C53D0002B51D101333B77D4E401232C223B76FB8C5F
:400B4000FF3201339BB2FB84934200D800E6FFF73DFC01223A742C22BB6AFF320133BB62934200D8A7E4F2E70A4200D1CCE42323FA5400232132BB54BB7701F077F8012012
:400B800001F04EF806210A2000F042FEBCE400F0C7F93C70DEE4772A22D9002C20D1012001F03EF83C779CE401233B7688E7C046BC020020A0020020400100206F300000A1
:400BC000640E0000002901D1002AA4D02223FB5C002BA7D1A2E700233B7782E40123A1E7002001F01DF87CE4012312E710B501F0ABFE03680C2B00D0FEE7FEE7F8B5104EF2
:400C0000002E18D000200F4DA9682C686A68002905D00023E758043380C29942FAD1E9680023002903D0D05004339942FBD1013E1035002EE8D101F08DFEFFF7CDFBFEE734
:400C400001000000882A00000121104A70B513680F4C8B4313600F48002200230E4D04E00133A1500432192B08D00100032BF7D851590133A1500432192BF6D1FFF7CEF9EC
:400C80000123024A11680B43136070BD0000104000000020ED0B0000000000008021034A090613680B4313607047C04630000340024A13685B005B0813607047300003406A
:400CC00010B5040001F0F2FA032304490A689A43234013430B6001F0EDFA10BD28000340F8B50400182806D0102302009A43202A01D001BEF8BD072601F0D8FA1B4D1C4A32
:400D00002B680700B3432B601A4B1B48E3181B78DBB21360194A1368B3431360184B0168E3181A787F23994313400B430360322001F0B2FA182C03D8380001F0BBFAD9E774
:400D400023002A681C3B9B08B243334013432B60322001F0A1FA183C2B68A4083440B3431C432C60380001F0A5FAC3E7080F03400C0F0340CDF1FF0F180F0340100F0340F3
:400D8000B4F1FF0F10B5040001F090FAA3000C24044923400A68A24313430B6001F08AFA10BDC04628000340082800D901BE034B8000C318186819607047C0464000002067
:400DC000F8B504000E00032900D901BE082C00D901BE032701F06AFA3D00094B25409C46A408A40064442168ED000B0031000635AF40A940BB431943216001F05BFAF8BDBA
:400E000000E400E01F2318401E3B8340014A13607047C04600E100E01F2318401E3B8340014A13607047C04680E100E01F2318401E3B8340014A13607047C04680E200E017
:400E400001BE7047F8B5802507002D02A84214D904000B4E706801F01FFA0A4B9C466444AC42F7D8084BFB18DB0BDB036744FF1AB068784301F010FAF8BD014EF8E7C0461D
:400E8000A00000200080FFFFFF7FFFFF10B501F00DFA074B074A1B889BB213600423064A11680B43136030BF01F004FA10BDC04652F1FF0F0400034010ED00E00022014B70
:400EC0001A60704738000340014A024B1A6070476588EDAC38000340044A00041368000C1B0C1B04184310607047C04640000340024B18680004000C7047C0464000034035
:400F0000F02110B5044C0204044B206809030A4003401A43226010BD40000340FFFFF0FF0123024A11680B4313607047440003400123024A11680B43136070474C00034021
:400F400010B500F0ABFD00F0D3FD0021002000F0DBFD0021002000F0ADFDFF2000F0BAFD402000F08DFD044A0449136807200B431360FFF747FF10BD0400084000100880E5
:400F8000F8B55F4656464D464446F0B44C4B1B78002B24D000F082FD00F0AAFD0021002000F0B2FD0021002000F084FD454CFF2000F090FD402000F063FD2368424A072086
:400FC00013432360FFF71EFF80222368D203134323603CBC90469946A246AB46F8BD3B4B0B22002118009B4601F0E3FC0F203849384B0A68384C1A702378324D03401A0028
:401000002378364C834313430B60354A354B08381A60354B00262B602268344B1340C022D20213432360FFF7F7FE31490720FFF7BBFE03210720FFF7C3FE2B6821002B60BB
:401040002C4B99462C4B98462C4B9A4620E001F02DF907224346A2401B68013693431F4343461F6001F026F9012211004B46A9401B688B4349460B600B2E1DD053460C33C2
:40108000F35C9B0053449A6A99699B6B9046994653460F279D5D5B46AA00D2B29740985D0B686C00BB4306272C19E4B20B60A7400128CCD10027CAE7014B1A706AE7C04688
:4010C0003402002004000840001008800803002000FF08400003002062F1FF0F000002400002000108000840C008A001FFFFF0FF011A00000000044008000440C829000039
:4011000070B501210724074D0130C0B20B2807D022000E0002409640C308EB5C1E42F3D070BDC046B40000200120024B5B7818407047C04634020020434BF0B54546984670
:4011400048234E46814657469A46C14452464B469B5C3E4C9B00E0B4E31807005E6800F09DFC00F0C5FC3023E419E05C0021013880B200F0C9FC3C23E05C0021013880B258
:4011800000F098FCFF2000F0A5FC402000F078FC0720FFF741FE40232D4D07202A6813432B60FFF72FFE0720FFF736FE29482A4B026813405246A15C0B431A00274BDB19EA
:4011C0001B7F1B04134303602C68254B07201C40244B1C43FFF716FE4B461B7B99464346DF5D01F063F882460F204B46B900C9B288409B0043449A699B6A94461268984627
:4012000082430420884019687B00FB180727DBB29F40B9430B0041460B60634602431A60504601F047F801F041F807002C60002001F032F80C4B38001E6001F03BF81CBC2C
:4012400090469946A246F0BDC8290000B4000020040008400800084000FF80FF34020020FF1FDFFF200020000C000840002210B5044BC1B25A70273299545A325A70FFF75A
:401280005BFF10BD34020020F8B50023FF2207240120104E104D73702733F254F35CDBB20133DBB20B2B07D02100070019408F40DA08AA5C1742F3D02722B354B35C0A2BA4
:4012C00007D8012371780B437370B05CC0B2FFF733FFF8BD34020020B4000020F0B54746264B27491A684300CB1880B49A800F22244F3E5C3B181C7B234BB1001B5CC9B20A
:401300008A409C46A4003B199869750003687519934303606346EDB2012B2BD00623AB40984600F0C3FF0722AA403C19A16A0B689343424613430B6000F0BCFF0122B24089
:40134000A16B07200B6893430B60FFF765FD0F4A0F4B116807200B40A02109020B4313600C4A0D4B11680B401360FFF74BFD04BC9046F0BD00239846D3E7C0460C00084088
:4013800034020020C82900000803002004000840FF1FDFFF0800084000FF80FF02000720CB08014006388840D35C1840431E98417047C046072310B5CC081940063B8B40BC
:4013C0000419DBB2002A03D122789A43227010BD227813432370FAE7024B18184823C05C7047C046B4000020024B18184823C1547047C046B40000200C4B10B51B68002B1E
:4014000002DA01220A4B1A700720FFF705FD074A084B11680B40136013685B005B08136000F03CFB00F064FB10BDC0460400084060020020FFEFF7FF10B5FF2000F020FB3E
:40144000FF2000F047FB034B1B78002B01D0FFF777FD10BD6002002070B50400FFF706FFFFF762FE0028FBD12426094B62001D5D084BD15A084B1C19A05520760748D1529A
:40148000445D30205B191C54054BD15270BDC046102A000038020020640200203401002020030020F8B55F4656464D464446174BF0B49B46164B00259A46164B0024994643
:4014C000154B30279846154E2000FFF7CFFEFFF72BFE0028FBD131001831605431005B462431605448461A5D5346B118825C5B5BCA55424601347353535302350B2CE3D190
:401500003CBC90469946A246AB46F8BD102A000038020020340100202003002064020020474BF0B51B5C56469A4644465F464D46444BF0B49B4653465B441B7B44009C46CA
:40154000414B83B01B5B98465B46DA7D4346002A08D042463D490B5BD2185B009B189B089BB20B533A490F5B9F422AD8002290464646384A16540126B046DA1B92B26646D9
:401580006D46EE80EE88B44696423BD30D18A9462D7E3E023543ED1B5B191D0A0D534C46237600242B4B1C5494453DD3002224230818C25403B03CBC90469946A246AB4644
:4015C000F0BD56465E44FA1A367E92B2964228D25D4624271F4A2E18135CF75D9F422CD8434600270B530B181F765346CB189C4653466646ED5C3023F5544546134B17543B
:401600001D53D3E75D4655442D7E95420CD94546002DBBD0FF2A0CD9FF2224230818C254C8E70026B046AAE74346002BBED0FF2AF2D824230818C254BCE701331354B5E706
:40164000102A00003401002038020020200300206402002014030020F0B55F46444656464D46F0B4544B85B09846544B544E554D554F00249B4605E00134013602350237DB
:401680000B2C58D021004046FFF788FE0028F3D04E4B1B5D0193019A5B46944663441B7B4B4A9C466300D35A99465B46DA7D4B46002A07D04A463B88D2185B009B189B0867
:4016C0009BB23B802888984247D8002232701A1A92B2029201229246624602A9CA80CA889446029A944508D2019A5A44117E029A914227D95246002A27D1324A110018229E
:40170000914649448946625C010211434A46081A1B18190AA35400233370029B29809C4510D30022274B01362433E2540134023502370B2CA6D105B03CBC90469946A2469D
:40174000AB46F0BD5346002BEBD0029BFF2B2DD9FF221C4B2433E2548EE7C21A92B20292019A9246DA445246127E9246029A924516D25A4624323378A25C9A4213D84B465E
:401780002B8000230F4A01991832A3540D4A337050185A46515C302281544A463A80C0E70022924698E701333370BAE7054B02AA12782433E2545FE7B400002034010020ED
:4017C000140300206402002020030020102A000038020020024B18183023C05C7047C04634010020024B18183C23C05C7047C04634010020024B18183023C1547047C046AB
:4018000034010020014B18180173704734010020014B19547047C04634010020F0B544465F4656464D46304BF0B41C5C1818037B85B01B190293002303932C4B99462C4BC0
:401840009B4630239A460C335B4498460EE0BE1BB34236DB21004046FFF7A0FD002801D001230393029B0134A34235D9214B52461D5D4B465B199F5C3C229E5C4B465B5DFA
:40188000210040460193FFF789FD5B462433E35C0028DCD1BE195D44B3420DDB53465246EB5C013BDBB2AB54002BD3D1012221004046FFF77FFDCDE76A4653461279EA54FF
:4018C000C8E7002221004046FFF774FD6A46534612795D44EA54BDE7039805B03CBC90469946A246AB46F0BD482A00003401002064020020102A0000F0B55F4656464D462F
:4019000044460023F0B487B005930493354B9946354B9A4630239B463449049A0B000C338C5CD35C1B190293002303933C33534498460EE0BE1BB34236DB21004046FFF7B1
:401940002DFD002801D001230393029B0134A34235D9274B5A461D5D4B465B199F5C3C229E5C4B465B5D210040460193FFF716FD53462433E35C0028DCD1BE195544B342EB
:401980000DDB5B465A46EB5C013BDBB2AB54002BD3D1012221004046FFF70CFDCDE76A465B461279EA54C8E7002221004046FFF701FD6A465B4612795544EA54BDE7039B28
:4019C000002B01D001230593049B013304930B2BA2D1059807B03CBC90469946A246AB46F0BDC0463401002064020020482A0000102A00004B0018184118890888B27047B2
:401A000070B501260720FFF707FA174B174D1E602878C0B2FFF762FC154C23785BB2002B19DB2878C0B2FFF76BFB28702B780A2B15D92378B343237023785B0607D502227E
:401A40000C490D4800F0ACFF02220C4B1A700720FFF7D8F970BD2378B3432370F7E72878C0B2FFF769FBF2E7140008405B0200203502002004030020B4000020A2020020CB
:401A8000044A1368002BFCDB034B00021843014B186070470000014041000080034A1368002BFCDB024A014B1A607047000001404100004010B5FF24C9002140000208437F
:401AC0000721034A13680B401843106010BDC04604030140044A1368002BFCDB034B00021843014B186070470000014040000080034A1368002BFCDB024A014B1A60704740
:401B0000000001404000004010B5FF24C9002140000208430721034A13680B401843106010BDC0460003014010B51024074B1C60074B186500F0BAFBC023064A11680B4333
:401B4000136000F0B7FB044B1C6010BD80E100E00000002004E400E000E100E01022034B1A60034A034B1A657047C04680E100E0ED0B0000000000201022014B1A607047F5
:401B800080E200E07047C046F0B55F464D46444656468023F0B490468A18814691B00F00DB0101209A4231D88B041B0E9A4643468C0B24025444A401002B2ED06B46EB4645
:401BC00000251E1B2200403208E0A84508D94B465B5D013533550134944207D0A742F4D92378DBB2335501349442F7D15046594600F064FB01239C46E244454502D2403E8F
:401C00000028DFD0012801D90120404211B03CBC90469946A246AB46F0BD0020F6E7C0460300042004499B000A688243D2B21840104308607047C0460003044010B5094C35
:401C40002378002B03D100F045F8012323708021054A0906136805200B431360FFF7D2F810BDC046A40200200000064010B50520FFF7D2F800F08AF8054A052013685B0081
:401C80005B0813600022034B1A60FFF7CFF810BD00000640880F064080220A4B5200196811420AD008490968490406D4186807490140196019680A431A600222044B1A6018
:401CC0007047C0460000064060000640FFFEFFFF6C00064010B50024184B194A1C60194B19491A60194B1A4A05201360194A1460194A1160194A1360194B1C60FFF78CF8E8
:401D000003210520FFF75CF816490520FFF74CF85222154BFF321C60144B1A600022144B1C60144B1C60144B1C60144B1C70144B1C70144B1C80144B1A7010BD0000064078
:401D400000080040600006409E00FE00070100800003064004030640100306400002064004020640ED1D0000880E0640480F0640080F0640C80F0640880F06403C03002095
:401D8000400300203A030020380300200022014B1A7070473C03002010B50520FFF73CF81F21054B05201C781A78E4B28A431A70FFF728F8200010BD4003002070B506008D
:401DC0000D00141E0BD00520FFF726F8044B05201C60044B1E80044B1D80FFF713F870BD44030020480300203E030020F8B54F464646B54BC0B41B68002B00D09847B34BC9
:401E0000B34D1E68B34B2C881F680223FF3333402DD02021B04A13685B005B081360AF4B1A788A431A70102219780A431A70AC4A1268D20600D48DE0022219780A431A70A3
:401E4000A84AA94B11680B40136000238021A74A09061360A24A1360A54A13709E4A13680B4313602C800CBC90469946F8BDFA0601D5A04A13600A233B424CD102231F40BD
:401E8000002F1AD0F30614D50023984A1360944A1360994B1A780A23944200D1F8E08F4A334011780B4320218B4313700022904B1A70730658D4854B1E60864B1B685B0757
:401EC000D0D58E4B8E4E98461A888E4BFF271B688D489C4600230F2199460DE063461B191B78013ADBB23360012399460368013492B20B40082B06D0002AEFD137600368BE
:401F00000B40082BF8D14B46002B00D0D9E010227E4B1A60A6E77E4B1B685B074FD57D4B73491A680B78002B00D191E0012B7BD1724988460988002900D1ABE07648D2B2F2
:401F40000360704B01391B681B191A704346013419806CE0684A1278A24200D170E7082219780A431A706BE720235C4A11780B431370614B1C78694B1A68102313424FD099
:401F80008020674A5D4912884002121B0A80654A1168014311601068634901401160504A13600122614B62491A60484B196010236049086803430B60574B1A607BE7494AC9
:401FC00013689B0400D459E702231F4033D14B4B1988083989B2198008295ED800296ED000239846474B4B489C466118634602681B68D2B21B1901341A708C42F6D1434665
:40200000002B09D18020374A000213680C00034313600022354B1A600C22474B1A602FE70422324B1A60BCE70020FEF709FF0422414B1A6022E70F21404B1B6810681940AB
:40204000294B03401360012398460029CAD1E3E73348008882421DD201242F4804603848008882421DD2801A244C80B22080072819D908281AD080201A4980010B680343E1
:402080000B600821194B19601B4B14001A70CEE7083B04E7FFF700FEC9E7012308219846A0E71648038001230B70EDE7A0240D4824020168214301600C490B60E4E7210005
:4020C000A0E743461A8022E7A8020020400F06403A030020000E06400000064040030020880F064060000640FF5FFFFFC80F06403C030020880E064038030020AC02002014
:40210000400206404403002008020640800F0640CC0F0640400306406C000640640006404803002004020640FFFFFEFF800E0640FF0F0000480F0640C00F064008030640EE
:402140003E03002010B51B4A1378002B1DD1C0210C20194B890019601849086018490A3808601848184908601B689B039B0F012B1DD0591E8B4115498C46634414490B60FA
:402180000021144B19600123137000F08FF80123114A11680B43136000F08CF800F086F880220E4B52041A6000F084F810BD0C4BE4E7C046AE0200200001054024010540C1
:4021C00038010540A60E000014010540A50E00000C010540080105400000054008000540A70E0000014B18607047C04630010540044A1368002BFCDB034B00021843014B00
:4022000018607047000001404200008010B58024084B64001C60084B186600F047F8C023064A11680B43136000F044F8044B1C6010BDC04680E100E00000002008E400E06C
:4022400000E100E00300402004499B010A688243D2B21840104308607047C046000004400300202004495B010A688243D2B21840104308607047C04600000440030008209C
:402280000449DB000A688243D2B21840104308607047C046000004400230800804D0C0460138FDD1C046C046C0467047EFF3108072B6704780F310887047C046F0B5564669
:4022C0005F464D4644460023F0B495B0009306000193FF2800D9EDE0002900D1EAE0402202AD04A800F05CFBA9680B000F005A1E9341EA685B001743002A00D0E4E01C00F6
:402300000A000F003B0029690B43002902D004241F0052183B0069690B43002900D0F7E039000800AF6913003843002F02D006240100D3190F00E8690743002800D0E4E02D
:402340001A000F003800296A0843002900D0D8E01300390008006F6A1A003843002F02D009240100DA190F00A86A0743002800D0C4E013000F003800E96A0843002900D091
:40238000B8E01A00390008002F6B13003843002F02D00C240100D3190F00686B0743002800D0A4E01A000F003800A96B0843002900D098E0130039000800EA6B1043002AE5
:4023C00000D08CE01A0008002B6C1843002B00D081E013006A6C10000843002A01D011240100D318002B00D071E0002900D16FE0A200AF58AB50012398468C4B8C49029355
:402400003F238C4A6B608C4B1D601160C0461A68120F0F2A04D01A68120F0A2A00D17BE0FF221B6813400093009B9946002B43D1FFF73CFF814B83461A68814B9A4651464D
:402440001A60804B1B68DB0FDB074B607E4B1B689B0018338B60494601910199002900D1C0E0009B002B17D1784A31040292029A77480A4302926F496F4A15600860C046E2
:402480001168090F0F2903D01168090F0A2902D01368FF2213400093009B9946002B02D14346002B58D1019B002B37D05846FFF701FF01E004230093009815B03CBC9046EB
:4024C0009946A246AB46F0BD03248A181AE700239846002791E71024D31801007AE70F249A1801006FE753180E24010064E70D241A1859E75A180B24010044E70A2413189E
:4025000039E753180824010024E707241A1819E752180524190004E7002384E753469868302855D0FEF7DCFB534603201B681840FEF7C6FB5246414B12681A6053465B68B3
:40254000002B01D1FEF7B4FB00230193019B002BACD0019B0093A9E74022002104A800F028FA324BA4002F5102933F2330496B60304A314B1D601160C0461A68120F0F2A1E
:4025800003D01A68120F0A2A03D0FF221B681A4091464B460093009B002B00D083E72D4A36040292029A2C4816432249224A029615600860C0461168090F0F2903D0116890
:4025C000090F0A2902D01368FF22134000936AE7032210001B681840AAD11B091340012BA6D1B1E7302B06D12D3B134203D112091A40012A16D00220FEF7C4FB53469B68F3
:40260000302B02D03020FEF76BFBFEF747FB0020FEF756FB302209490B6893431A00102313430B60002300931BE7C046B6D700000400008004001040080010402800034044
:40264000B002002030000340080F0340B6D8000005000080B6D9000006000080002243088B4274D303098B425FD3030A8B4244D3030B8B4228D3030C8B420DD3FF22090258
:4026800012BA030C8B4202D31212090265D0030B8B4219D300E0090AC30B8B4201D3CB03C01A5241830B8B4201D38B03C01A5241430B8B4201D34B03C01A5241030B8B4226
:4026C00001D30B03C01A5241C30A8B4201D3CB02C01A5241830A8B4201D38B02C01A5241430A8B4201D34B02C01A5241030A8B4201D30B02C01A5241CDD2C3098B4201D3DF
:40270000CB01C01A524183098B4201D38B01C01A524143098B4201D34B01C01A524103098B4201D30B01C01A5241C3088B4201D3CB00C01A524183088B4201D38B00C01A39
:40274000524143088B4201D34B00C01A5241411A00D20146524110467047FFE701B5002000F0F0F802BDC0460029F7D076E7704703460B437FD4002243088B4274D303093A
:402780008B425FD3030A8B4244D3030B8B4228D3030C8B420DD3FF22090212BA030C8B4202D31212090265D0030B8B4219D300E0090AC30B8B4201D3CB03C01A5241830B98
:4027C0008B4201D38B03C01A5241430B8B4201D34B03C01A5241030B8B4201D30B03C01A5241C30A8B4201D3CB02C01A5241830A8B4201D38B02C01A5241430A8B4201D3AB
:402800004B02C01A5241030A8B4201D30B02C01A5241CDD2C3098B4201D3CB01C01A524183098B4201D38B01C01A524143098B4201D34B01C01A524103098B4201D30B01EC
:40284000C01A5241C3088B4201D3CB00C01A524183088B4201D38B00C01A524143088B4201D34B00C01A5241411A00D201465241104670475DE0CA0F00D04942031000D314
:402880004042534000229C4603098B422DD3030A8B4212D3FC22890112BA030A8B420CD3890192118B4208D3890192118B4204D389013AD0921100E08909C3098B4201D37E
:4028C000CB01C01A524183098B4201D38B01C01A524143098B4201D34B01C01A524103098B4201D30B01C01A5241C3088B4201D3CB00C01A524183088B4201D38B00C01A78
:402900005241D9D243088B4201D34B00C01A5241411A00D20146634652415B10104601D34042002B00D54942704763465B1000D3404201B5002000F005F802BD0029F8D0D0
:4029400016E770477047C046014B18687047C046DC0100200E4B70B500251E000D4CE41AA410A54204D0AB00F35898470135F8E700F078F8084B00251E00084CE41AA410F3
:40298000A54204D0AB00F35898470135F8E770BD702A0000702A0000702A0000782A0000002310B59A4203D0CC5CC4540133F9E710BD03008218934202D019700133FAE73B
:4029C00070470000000000000200070001040506000701000000000101010101020100000000024000010240000202400003024008000440080104400802044008030440B3
:402A000000000440000104400002044000030440000102030405060708090A0004000000010000008000000001000000020000001000000020000000400000000100000050
:402A40008000000002000000000102030405060708090A0001010101010101010101014300000000F8B5C046F8BC08BC9E46704759010000490C0000F8B5C046F8BC08BCAF
:402A80009E46704731010000982A000068000020780100007001000000000000920900007409000074090000BA09000088090000A6090000A6090000A6090000E204000039
:402AC000E20400006009000003202370410000000100000000007017E02E00000C000000001BB700FF0700000000FF0F0000FF0F0000FF0F0000FF0F0000FF0F0000FF0FC2
:402B00000000FF0F0000FF0F0000FF070000FF070000FF0F0202020202020202020202000404040404040404040404001C22131415181616110F1F00080004400800044088
:402B400008000440080104400801044008010440080104400801044008020440080104400800044003030303030303030303030029202F2F2B292C2E1A1B20011E1E1E1E5D
:402B80001E1E1E1E1E1E1E003232323232323232323232003A2E43433E3B3F4125272D00050505050505050505050500000000000000000000000000000000000000000086
:402BC0000000000000000000000000005F2A00000000000000000000000000000000000000000000000000000000000000000000000000000000000000000000000000004C
:402C00000000000000000000000000007C010020000000000000000000000000000000000000000000000000000000000000000000000000000000000000000000000000F7
:402C40000000000000000000000000000000000000000000000000000000000000000000000000000000000000000000000000000000000000000000000000000000000054
:402C80000000000000000000000000000000000000000000000000000000000000000000000000000000000000000000000000000000000000000000000000000000000014
:402CC00000000000000000000000000000000000000000000000000000000000000000000000000000000000000000000000000000000000000000000000000000000000D4
:402D00000000000000000000000000000000000000000000000000000000000000000000000000000000000000000000000000000000000000000000000000000000000093
:403FC00003202370410000000000000000000000000000000000000000000000000000000000000000000000000000000000000000000000000000000000000000000000CA
:0200000490303A
:0200000060326C
:0200000490402A
:2000000000000000000000000000000000000000FFFFFFFFFFFFFFFFFFFFFFFFFFFFFFFFF0
:0200000490501A
:0C00000000020A48119A00000A5671CC58
:0200000490600A
:0100000001FE
:00000001FF